:020000022000DC
:1060000000000420CD5F04000D6004004D65040015
:10601000116004001360040015600400000000001B
:10602000000000000000000000000000457C0400AB
:106030001960040000000000657C04001D6004007D
:1060400039620400516103001F6004001F600400F6
:106050001F6004001F600400AD2F04001F600400D7
:106060001F6004001F6004001F60040069610300DA
:106070001F6004005D6103001F6004001F600400D6
:106080001F600400F93204001F6004001F60040058
:106090001F6004001F6004001F6004001F600400F4
:1060A0001F6004001F6004001F6004001F600400E4
:1060B0001F6004001F6004000000000000000000DA
:1060C0001F6004001F6004001F6004001F600400C4
:1060D0001F6004001F6004001F600400712E040094
:1060E0001F6004001F6004001F6004000000000027
:1060F000000000001F600400000000001F6004009A
:10610000000000000000000000000000000000008F
:10611000000000000000000000000000000000007F
:10612000000000000000000000000000000000006F
:10613000000000000000000000000000000000005F
:10614000000000000000000000000000000000004F
:10615000000000000000000000000000000000003F
:10616000000000000000000000000000000000002F
:10617000000000000000000000000000000000001F
:10618000000000000000000000000000000000000F
:1061900000000000000000000000000000000000FF
:1061A00000000000000000000000000000000000EF
:1061B00000000000000000000000000000000000DF
:1061C00000000000000000000000000000000000CF
:1061D00000000000000000000000000000000000BF
:1061E00000000000000000000000000000000000AF
:1061F000000000000000000000000000000000009F
:1062000010B5054C237833B9044B13B10448AFF3F0
:1062100000800123237010BDB8360020000000006C
:1062200034DF040008B5034B1BB103490348AFF347
:10623000008008BD00000000BC36002034DF0400F0
:10624000A3F5803A704700BF174B002B08BF134BD4
:106250009D46FFF7F5FF00218B460F461348144A71
:10626000121A22F089FE0E4B002B00D098470D4BDE
:10627000002B00D098470020002104000D000D489D
:10628000002802D00C48AFF3008022F009FE200065
:1062900029001FF05BFE22F0EFFD00BF00000800A8
:1062A000000000000000000000000420B8360020BC
:1062B00000900020000000000000000008B501214F
:1062C0000F2020F0BFFA00210F2020F0F9FA012161
:1062D0000D2020F0B7FABDE8084001210D2020F084
:1062E000EFBA0000024A136801331360704700BF21
:1062F0001C3700207047704710B504461FF062FE3F
:10630000204610BD10B504461FF05CFE204610BDAF
:1063100013B504460846019123F055F8019982B25D
:1063200004F11C0002B0BDE8104000F0CEBE000039
:1063300008B50121152020F085FA0121162020F052
:1063400081FA0121172020F07DFA0121182020F088
:1063500079FA0121052020F075FA0021152020F09E
:10636000AFFA0021162020F0ABFA0021172020F010
:10637000A7FA0021182020F0A3FA0021052020F020
:106380009FFABDE80840024902481AF0ADBD00BFBF
:1063900028970400F0630020F8B5431E012B044643
:1063A0000D460AD9304931481AF08EFD21462F4852
:1063B000BDE8F8400A221AF001BE2D492B481AF018
:1063C00083FD0A22214629481AF0F6FD294927486B
:1063D0001AF07AFD284B29492448002D08BF194698
:1063E0001AF082FD012C4FF005004FF001010BBFA8
:1063F000152717271626182620F062FA0A201CF007
:106400000BFF55B30021384620F05AFA01213046DF
:1064100020F056FA32201CF0FFFE3846002120F012
:106420004FFA3046002120F04BFA0021052020F0E1
:1064300047FA012C0CBF124B124B13491D700B482D
:106440001AF042FD214609480A221AF0B5FDBDE8BE
:10645000F8400E4905481AF047BD0121384620F0A2
:106460002FFA2946D3E700BF6A970400F0630020A3
:106470008197040090970400649704005F970400DC
:1064800028370020303700208997040096970400B1
:10649000012810B5044607D10B4B1978BDE8104010
:1064A00081F00101FFF778BF022801D1074BF4E723
:1064B000074908481AF008FD21460648BDE8104083
:1064C0000A221AF07BBD00BF283700203037002099
:1064D000AA970400F06300200021022020F0B2B946
:1064E00008B5022020F0FAF821F0C4FE0CA3D3E98D
:1064F000002322F053F80CA3D3E9002321F024FF5A
:1065000022F01AFA21F0C8FE09A3D3E9002321F0F2
:106510001BFF22F011FA00EE100A08BDAFF3008055
:106520000000000000F88F406666666666660A40F6
:10653000EE7C3F355EBA024038B510EE100A2DED04
:10654000028BB0EE408A21F0A7FE15A3D3E9002309
:1065500004460D4622F07EF9E0B9F0EE087AB4EE7A
:10656000E78AF1EE10FA12D90FA3D3E900232046EF
:10657000294621F031FD084B002221F0E5FE074BB2
:106580004FF0333222F00AF822F0B6F9C0B2BDEC77
:10659000028B38BD6420FAE7000059403333F33FE3
:1065A00066666666666610403333333333330740BE
:1065B000014837211AF014B9E8360020002238B516
:1065C00005460C46064811461AF0B6F9044885ED12
:1065D000000A00211AF050FA84ED000A38BD00BF0D
:1065E000E836002008B502210D2020F02BF9022109
:1065F0000F2020F027F9BDE808400221102020F0EC
:1066000021B9000038B51CF0FFFD04460D2020F034
:106610007BF960B90D4D2B68E31AC82B07D90C4BD9
:106620001978012081F00101FFF7B6FE2C600F20E0
:1066300020F06AF940B9074D2B68E31AC82B03D93B
:106640000220FFF725FF2C6038BD00BF1037002067
:10665000283700201437002008B50021082020F03A
:10666000F1F8BDE808400249042208201CF038BCBB
:10667000E56202000121042020F0E4B808B5012100
:10668000042020F01DF964201CF0C6FD0420002128
:1066900020F016F9BDE808404FF461701CF0BCBD55
:1066A0000021112020F0CEB808B5112020F02CF9DF
:1066B000003818BF012008BD2DE9F04F7E4A7F4DFC
:1066C000DFF880A27E4FDFF88092DFF88082DFF86B
:1066D00080B28BB0911F06A8049021F074FC0623B1
:1066E0000593049B00249C7104A800F04BFF04A8B0
:1066F00021F058FC2146082000F0F4FE00F064FE72
:106700000646286004201FF059FC6E4B03600146CA
:106710000122304601F0CAF86B4928686B4E01F03F
:1067200052F912226A49CAF800004FF4007301F0CE
:1067300090FD684B68491860286801F044F9674982
:1067400038604FF40073122201F083FD644B6549F9
:10675000186012224FF40073386801F07AFD624B22
:1067600062491860286801F02EF9614B6149186090
:1067700012224FF4007301F06CFD5F4B5F4918600B
:10678000286801F020F95E4930604FF400731A2246
:1067900001F05FFD4FF400731A225A49C9F8000056
:1067A000306801F056FD5849C8F800002868574D78
:1067B00001F009F9564928604FF40073022201F0F4
:1067C00048FD02225349CBF800004FF400732868BB
:1067D00001F03FFD504B51491860DBF80000FFF716
:1067E00097FD4D4B4E491868FFF792FD4D4BD9F878
:1067F00000001B788DF80F304B4B01221B788DF871
:1068000010300DF10F011C3000F05FFCD8F80000D3
:10681000012204A91C3000F058FC04201FF0CEFB1C
:10682000424B036001460190D9F8000000F040FDA2
:106830000199D8F8000000F03BFDDAF8000001F003
:1068400069FB386801F066FB294B186801F062FBB0
:10685000306801F05FFB286801F05CFB00F0D0FDC0
:106860001949054600F09DFA1B49284600F099FA9F
:106870002249284600F095FA2021284600F067FAC0
:10688000A021284600F065FA204600F0C9FD2849FD
:10689000044628481AF018FB2749284B2548002CA5
:1068A00008BF19461AF020FB1CB1254921481AF0EF
:1068B0001BFB0BB0BDE8F08FD99704001837002000
:1068C000FC360020EC990400DA97040038370020E9
:1068D000DF970400D8360020E4970400E99704000D
:1068E00024370020EE9704000C370020F3970400B3
:1068F0000837002018980400043700203D98040051
:106900006298040087980400AC980400E4360020E4
:10691000B1980400B698040000370020D397040013
:10692000BB9804002837002030370020209A04004C
:10693000C1980400F063002030D20400CC9704001A
:10694000EA980400DC3600202C3700203437002081
:10695000E036002008B5FFF7EBFCFFF7BDFDFFF7C1
:1069600027FEFFF73FFEFFF777FEFFF783FEFFF7F7
:1069700097FEFFF7A1FEBDE8084002484FF4E13161
:106980001AF0D8BCF063002070B52DED048B464C96
:1069900086B023688DF80700F0EE408AB0EE608A7A
:1069A000002B7CD0414D286801220DF107011C30DD
:1069B00000F08BFB206800F005FF20B128684FF63F
:1069C000FF7100F06BFC9FED3A9A3A4D68EE898AB0
:1069D0002868FDEEE88A022218EE903A04A91C30DD
:1069E000ADF8103000F071FB206800F0EBFE20B134
:1069F00028684FF6FF7100F051FC28EE098A2E4DF1
:106A0000BCEEC88A286818EE103A02220DF1120175
:106A10001C30ADF8123000F058FB206800F0D2FEB8
:106A200020B128684FF6FF7100F038FC234D244B4D
:106A300028681B680593042205A91C3000F045FB5B
:106A4000206800F0BFFE20B128684FF6FF7100F00B
:106A500025FC1C4B1C4E1B7830688DF80E301B4BF0
:106A60001B4D1B788DF80F3001220DF10E011C30EB
:106A700000F02BFB286801220DF10F011C3000F003
:106A800024FB206800F09EFE48B14FF6FF7130688D
:106A900000F004FC28684FF6FF7100F0FFFB06B021
:106AA000BDEC048B70BD00BF18370020D836002025
:106AB0000000C842243700200C3700200437002093
:106AC0001C370020283700202C37002030370020CA
:106AD00034370020F0B52DED028B83B001A9684654
:106AE000FFF76CFDFFF7FCFCB0EE408AFFF724FDDA
:106AF0000646FFF787FDFFF7C1FD58495848594D35
:106B00001AF0E2F918EE100A21F0C6FB41EC100B66
:106B1000022153481AF01EFB534951481AF0D4F988
:106B20000A2231464E481AF047FA50494C481AF0AA
:106B3000DBF94F494A481AF0C7F9009821F0ACFB3D
:106B400041EC100B022146481AF007FB4949444822
:106B50001AF0BAF9019821F09FFB41EC100B0221C9
:106B60003F481AF0FAFA44493D481AF0ADF9434B50
:106B70003B4819680A221AF02BFA414938481AF0A2
:106B8000A3F9FFF791FD3F4A3F49002818BF11467E
:106B900033481AF0A9F92B68002B4ED03B493048F6
:106BA0003B4C1AF091F9286800F00CFE0A220146CD
:106BB0002B481AF003FA237863B31CF025FB354BFE
:106BC0001B68984226D3344925481AF08DF900F005
:106BD00017FC00F0C0F8C8201CF01EFB00F010FCF1
:106BE0002021074600F0B3F8A021384600F0B1F8A4
:106BF000002000F015FC2949074619481AF064F9ED
:106C0000274B28491648002F08BF19461AF06CF97F
:106C100000232370286800F0D5FD70B9237863B98C
:106C200000F0EEFB00F0A0F8044630B91E490C4815
:106C30001AF05AF9204600F0F3FBDDED010A9DED54
:106C4000000A3046B0EE481AFFF79EFE4FF47A7005
:106C50001CF0E2FA03B0BDEC028BF0BD1C990400FD
:106C6000F063002018370020269904002B990400B7
:106C70002E990400359904003B9904001C3700202C
:106C800049990400059904000F9904004F990400E4
:106C900020370020D4360020679904009099040022
:106CA000CC97040030D20400AD99040006230248BA
:106CB0001622194619F084BDE836002000F10803B9
:106CC00073B5044603600D46E1B1084622F07BFB34
:106CD0000F2805EB0006019007D9002201A92046E4
:106CE00021F03EF9019B2060A360206832462946CE
:106CF00021F069F9019B2268636000212046D1548C
:106D000002B070BD014821F01DF900BF389A04009F
:106D100038B50023C0E90633C0E90033C0E90233C7
:106D2000C0E904330384C36243636FF000438363A9
:106D300090F83C300446022523F0030380F83C30F1
:106D4000057629460FF01EFF6576204638BD418343
:106D500070478183704708B504F0D8FE30F0020315
:106D60000CBF0120002008BD08B504F0FBFF00386F
:106D700018BF012008BD38B504460D460FF0F3FDDD
:106D800038B194F83C306FF3410384F83C30012073
:106D900038BD294604F10C000FF0E5FD0028F0D1C4
:106DA000F6E710B58CB0044606A8FFF787FF06A9E2
:106DB00001A801F067FA01A92046FFF7DCFF0446AD
:106DC00006A821F0EFF820460CB010BD10B504461F
:106DD000006808B11FF0F6F8204610BD07B58268BC
:106DE00001910AB921F0B4F8C36801A9984703B02A
:106DF0005DF804FB08B50378092B09D14068162813
:106E000008D8084A01238340134203D000F07AFADD
:106E1000002008BDCB6A002BFAD001F12400FFF757
:106E2000DDFFF5E70018480010B50C1A134605D031
:106E300001462246184622F085F80346181910BD6F
:106E40008142F7B504460D461FD0D1E900710268B2
:106E50008368CE1B9B1AB3421AD2002E01DA21F0AE
:106E60006EF8304601911FF0A9F8019902460546D7
:106E70003846FFF7D9FF206808B11FF0A3F8256056
:106E80003544A56023681E446660204603B0F0BD0B
:106E900043689B1A9E4203D83846FFF7C5FFF1E7C7
:106EA000F9183846FFF7C0FFD4E90002D5E90031F0
:106EB000101A1844F1E770B586B00D4604466846CE
:106EC0000FF036FD294603A8009E0FF031FDDDE9E5
:106ED00003313046C91A04F003FF064603A8FFF742
:106EE00075FF6846FFF772FF66B929462046FFF72F
:106EF000A7FF94F83C3043F0020384F83C300120B3
:106F000006B070BD0020FBE770B586B00C460546A4
:106F100068460FF00DFD214603A8009E0FF008FD06
:106F2000DDE903313046C91A04F0FBFE064603A82A
:106F3000FFF74CFF6846FFF749FF3EB9214605F1D0
:106F40000C00FFF77DFF012006B070BD0020FBE7BD
:106F50002DE9F0432C4B1F7889B004460E461546A8
:106F600027B90027384609B0BDE8F08304F0FAFEDF
:106F70000028F7D100F03EFA074608B100F0D3FB35
:106F800094F83C309A071CD421462046FFF793FF23
:106F90000028E6D094F83C30DB0712D504F10C0150
:106FA00005A803910FF0C4FCDDE9058905A8FFF7EA
:106FB0000DFFC14505D003992046FFF7A5FF002826
:106FC000CFD0124BA663002E93F8008008BF6FF05D
:106FD00000461DB128460FF0A9FB05460C480D4B95
:106FE000002F14BF07461F46CDE9007404F11803B3
:106FF00032462946404604F099FD30F002030CBFAA
:1070000001270027AEE700BF60370020553700207A
:107010004D7B0200F56D020008B590F83C30826BA4
:107020006FF34103014680F83C3022B9BDE80840C7
:107030001146FFF78DBFC36A13B12430FFF7CEFEB0
:1070400008BD70B50E4601210446701815461DF0A6
:10705000E6FDB5F5007F28BF4FF4007500232060E2
:10706000A580E3802681204670BD10B504460068E7
:1070700008B11DF0D8FD204610BD2DE9F0410446B1
:1070800088461746F2B1C588838815449D4219DCAD
:1070900003890668ADB2AB4205D23046691C1DF0CB
:1070A000C0FD258106466EB11CF006F9E0883A461F
:1070B0004146304421F038FF00232660E5807355B7
:1070C0001CF002F92046BDE8F081F8B503680546DA
:1070D00000240F461646C4801C70FFF7CEFF2868B8
:1070E0003246394621F012FF20B9EB889B1B5842EB
:1070F0005841F8BD2046FCE77047C36A0A46196844
:1071000010B48C680146184623465DF8044B1847B6
:1071100070477047704710B504461EF053FF204675
:1071200010BD70B504461C301D46FFF7CEFFE06A67
:1071300003682A462146DB68BDE870401847000016
:1071400070B5D0E90D560C4B03600446B54207D02C
:1071500055F8040B0028F9D003685B689847F5E7F9
:10716000606B08B11EF02EFF2046044B40F81C3B1C
:10717000FFF77BFF204670BD849A04006C9A0400E0
:1071800010B50446FFF7DCFF20461EF01BFF20462B
:1071900010BD0000F8B50D4604469C461746061D76
:1071A0000FCD0FC62B68336000252583A576624678
:1071B000142104F11C00FFF744FF064B2360064B2B
:1071C000E362069B2785C4E90C35C4E90E552046C9
:1071D000F8BD00BF849A040004340020008D70477D
:1071E000016370472DE9FF471E46BDF83040074652
:1071F000154688464FF6FF7300293ED0002A3CD042
:107200009C420DD091B2404609F052FB0246F0B1CB
:10721000398B2046002E39D006F068FC044628E061
:1072200000F0E8F8014601A800F030FCDDE9019A21
:107230000024ADB2D14518D02946404609F038FBAC
:10724000024638B9019808B11EF0BCFE002004B017
:10725000BDE8F08739F8020B398B1EB106F046FC09
:107260000446E7E706F090FCFAE7019808B11EF043
:10727000A9FEB4FA84F04009E9E79C42398B08D0B2
:1072800016B100222046C7E73246204606F07CFCB5
:10729000C4E7084607F0DAFC0120D8E707B500226A
:1072A000009101231146FFF79DFF03B05DF804FB39
:1072B000024B002908BF1946C16270470434002000
:1072C000024A0349034820F035BE00BF00340020C5
:1072D000F9700200043400207047704710B504466E
:1072E0001EF070FE204610BD024A0349034820F0FC
:1072F00021BE00BF00340020DB72020008340020F1
:1073000070470000024B1A780AB100221A707047C9
:107310006037002010B504461EF054FE204610BD14
:1073200008B50EF079F9BDE808400EF0FFBE08463A
:1073300011460DF007BA0000054B1B680A46196894
:1073400010B48C680146184623465DF8044B184774
:107350000C34002010B5134C207810BB0EF00FF841
:10736000F8B901200EF00BF80246D0B9014609F039
:107370003DFA10B10C4B01221A7001201CF060FF85
:1073800001232370094B1B785BB1094B186808B1C6
:1073900000F057F9074B186818B1BDE81040FFF727
:1073A0003BBE10BD60370020553700205437002009
:1073B0005C3700205837002010B50446006808B13B
:1073C0001EF000FE204610BD38B5094C236863B995
:1073D00020201EF0F3FD054600F08CF9256007F033
:1073E00043FF01F0E1FE01F06FFF206838BD00BFF0
:1073F00064370020014B1868704700BF64370020D5
:1074000038B5064C236833B940201EF0D7FD054639
:10741000FFF77EFC2560206838BD00BF583700208C
:1074200007B50190FFF7ECFF0199002203B05DF86A
:1074300004EBFFF78DBD08B5FFF7E2FFBDE808409C
:10744000FFF789BC70B5044670B3194B03201E4684
:1074500053F8042B944228D120460FF021FE3568C2
:1074600058B195F8283043F0020385F828302846B3
:107470001321BDE870400FF039BC236953B195F872
:10748000283043F0040385F828302846BDE87040D2
:107490000FF03BBC2DB128460FF0D4FB28461EF060
:1074A00091FD00233360012070BD0138CFD1FBE78F
:1074B0003C370020F7B50A4F0646032557F8044B22
:1074C00044B1214668460FF02BFC314668460FF068
:1074D0002EF910B9013DF1D12C46204603B0F0BD84
:1074E0003C37002008B501F079FAB0FA80F0400985
:1074F00008BD0000014B1868704700BF143400201D
:1075000010B50C4604F024FF04B1206030F00203F3
:107510000CBF0120002010BD30B5044687B00D46D9
:107520001422002101A821F027FD0223208C8DF8D0
:10753000043001A902950BF09BFDB0FA80F04009E0
:1075400007B030BD30B587B004460D461422002187
:1075500001A821F011FD0423208C8DF804300DEBDF
:1075600003018DF808500BF083FDB0FA80F040095C
:1075700007B030BD08B5006801F000FEB0FA80F039
:10758000400908BD37B5154C2278E2B901900EF0DC
:1075900025F8134B134A1A61134A5A61134A9A6227
:1075A0001A89019822F46F6222F00F0242F003025E
:1075B0001A810322DA721A73FFF7DCFF0DF04EFD19
:1075C0000B480EF07FFD0B4D2B78012013B91CF0FA
:1075D00037FEF9E7207003B030BD00BF54370020FC
:1075E0004035002005730200557302003973020014
:1075F000217302006037002008B5084A084909488D
:1076000020F098FC0848054A08490023C0E90033E7
:107610008360BDE8084020F08DBC00BF003400202E
:10762000017302001034002048370020B9730200B3
:1076300070477047704710B504461EF0C3FC2046E3
:1076400010BD0146162251F80C0B03681B69184740
:10765000024A0349034820F06DBC00BF00340020FB
:107660003176020018340020704770477047704729
:107670000048704740E201007047704710B504466B
:107680001EF0A0FC204610BD08460121FFF75ABF9E
:1076900000F1080373B5044603600D46E1B10846E6
:1076A00021F091FE0F2805EB0006019007D900227A
:1076B00001A9204620F054FC019B2060A3602068B3
:1076C0003246294620F07FFC019B2268636000213E
:1076D0002046D15402B070BD014820F033FC00BFF9
:1076E000389A040010B52C220446002121F044FCF5
:1076F000204610BD027822F00F020270054A426057
:107700000022C0E90222C26102614FF0FF324261F1
:10771000028370471C3400200378DA0744BF43F02B
:1077200002030370704703782DE9F74FD907044629
:1077300045D407F02DF9002841D1D4E90259A945D3
:107740002ED02868837D0BB32B68D3E9067ABA451F
:1077500024D057F8043BD3E90D6B5E45F7D0286879
:1077600000F016FE804657F8040C043000F010FEBE
:1077700001903068043000F00BFE56F8043B01998C
:1077800002461833404607F07DFCE6E700F000FEB5
:107790002968143107F068FC0028D5D00435CEE7FD
:1077A00023789A0707D56FF3410323704FF6FF71D3
:1077B000012001F07BFD237843F00103237003B027
:1077C000BDE8F08F10B500F1140200231A304FF617
:1077D000FF71824205D032F8024B8C42F9D001335E
:1077E000F7E7D8B210BD2DE9F0478CB000AF1446D2
:1077F0000646381D1D46FFF775FF391D304603F05C
:10780000F9FE2378032B4FD8DFE803F00220022093
:107810006368DB8843B14FF6FF739E4204D02B6848
:10782000391D9B68284698471BF046FD6A8CE9691C
:1078300060680EF038F804461BF046FD002C18BFB7
:10784000112420463037BD46BDE8F0876468B5F89E
:107850002090E6884E45E84602D90D24C546F0E75B
:1078600009F10703DB08A8EBC3039D4621683246F4
:107870006846EA4621F058FBE46864B1E288B31830
:107880009945EADB0AEB0600216821F04DFBE3880D
:107890001E44B6B2F0E72B683246D3F80C9051463E
:1078A0003B1D2846C847D9E70E24CAE7037821B113
:1078B000416062F3820303707047024A426061F3E1
:1078C0008203F8E71C34002007B50191FFF798FD0B
:1078D0000199002203B05DF804EBFFF739BB00000B
:1078E0002DE9F84FD0E9009893466FF06043A8EB7C
:1078F0000902B3EBA20F07468A464FEAA20402D15F
:107900001D4820F022FB012C224638BF0122A4187A
:10791000A1EB09052DD23CB19C4228BF1C46A0001A
:107920001EF04CFB064600E02646DBF800307351A3
:10793000002D04DD2A464946304621F003FBA8EB22
:107940000A080435B8F1000F354404DD42465146BB
:10795000284621F0E9FA4544B9F1000F02D0484623
:107960001EF030FB06EB8404C7E90065BC60BDE88F
:10797000F88F1C46D3E700BFFC9A040010B50A46F6
:10798000D0E90114A14204D0126841F8042B4160EF
:1079900010BDFFF7A5FFFBE730B585B004464420D6
:1079A00001911EF00BFB0199054600F07BFA03A93B
:1079B00004F108000395FFF7E1FF2046FFF7ACFE56
:1079C000039805B030BD10B58CB0044606A8FFF78B
:1079D0005FFE06A901A800F055FC01A92046FFF7AB
:1079E000DBFF044606A820F0DDFA20460CB010BDEF
:1079F0002DE9F84FD0E9009893466FF04043A8EB8B
:107A00000902B3EB620F07468A464FEA620402D1CD
:107A10001D4820F09AFA012C224638BF0122A418F2
:107A2000A1EB09052DD23CB19C4228BF1C46600049
:107A30001EF0C4FA064600E02646BBF80030735339
:107A4000002D04DD2A464946304621F07BFAA8EB9A
:107A50000A080235B8F1000F354404DD42465146AC
:107A6000284621F061FA4544B9F1000F02D048469A
:107A70001EF0A8FA06EB4404C7E90065BC60BDE847
:107A8000F88F1C46D3E700BFFC9A0400F8B500232A
:107A9000C0E900330446836001F1140601F11A05C0
:107AA0004FF6FF77AE4232460FD036F8023BBB426C
:107AB000F8D0D4E90110814203D021F8023B616083
:107AC000F0E72046FFF794FFECE72046F8BD426858
:107AD0000B4604318A4210B5044604D01846521AA7
:107AE00021F030FA03466268043A6260184610BD1D
:107AF000F8B50546FFF766FE38BB2F46FFF79BFC3F
:107B000007F0B2FB01F050FB01F0DEFB57F8084F25
:107B1000EB68A34215D02668B37D6BB1022B0ED162
:107B2000304600F0D8F930461EF04CFA214638466F
:107B3000FFF7CDFF0446EBE7304600F0EBF90434E5
:107B4000E6E72B786FF300032B70F8BD2DE9F043C7
:107B500093B0054607A80191FFF7C4FDFFF74AFC63
:107B60002B7801990646122B1BD8DFE813F013007F
:107B70003D001A00E8001A001A001A001A001A0044
:107B8000E300020135011A00C1008000B2001B01B0
:107B9000F60026016B681A2B05D023B10020FFF7F1
:107BA0003FFC00241CE0288907A903F023FD0446BC
:107BB0000028F6D106F1140306F11A074FF6FF71FB
:107BC0009F421A4606D01088884203F10203F7D17B
:107BD0002B8913807068036807AA9B683146984711
:107BE000204613B0BDE8F0836868162806D8904A8E
:107BF00001238340134201D0FFF784FB06F11403F5
:107C000006F11A04A3421A4608D01088298D88422A
:107C100003F10203F6D14FF6FF731380F36933B11A
:107C20002A8D998C914204BF4FF6FF729A84337863
:107C3000990702D53046FFF75BFF05F108070FCF24
:107C400007AC0FC40FCF0FC497E8070084E8070004
:107C50007068036807AADC686B683146A047337810
:107C60001A079ED500213046FFF72EFE99E7D0E98E
:107C70000267B74295D056F8043BD3E90648A045C1
:107C8000F7D02368EA881B8B9A4220D1A88807A9DD
:107C900003F0B0FC0028ECD12068FFF79FFA0799A9
:107CA00011F0010105D110F4606F02D0A888FFF730
:107CB00027FC21686A7AC86A0368C2F3C00CC2F361
:107CC0004002D3F8149002EB4C0307AAC8470434CF
:107CD000D5E7A88807A903F08DFC044600287FF4A7
:107CE00060AF70682989036807AA1B69984777E71E
:107CF000D0E90227002197420DD052F8043BD3E986
:107D0000063C9C45F7D053F8040B6E89048BA642C1
:107D100008BF0146F5E700293FF443AF2B7B6A68B3
:107D2000DB0702D5002A3FF43CAFC86A03681B6931
:107D3000984736E72846FFF75DF8044650E728895C
:107D400007A903F057FC044600287FF42AAF7068A7
:107D500003685B6A07A9984742E7A88807A903F068
:107D600049FC002861D10DF127000CF094FC01249E
:107D700036E7288907A903F03DFC04460028F6D120
:107D80007068036807A9DB699847F16900293FF427
:107D900008AF8A8C2B899A427FF403AF28460EF0F5
:107DA000D9FF1DE7A88807A903F024FC0446002892
:107DB000DDD1706803681B6ACCE7288907A903F046
:107DC00019FC04460028D2D17068AA7A036807A972
:107DD0009E6AEB7AB04703E71422002102A821F043
:107DE000CBF82B79032B11D18DF80830FFF782FBEC
:107DF000104B0390984204D1706803685B69984700
:107E00000390A88902A90BF033F9CAE6042B7FF48A
:107E1000C8AEA88907A903F0EDFB0028A7D17068B8
:107E2000AA68036807A99B6982E70224D8E600BF15
:107E30000018480040E20100024A0349034820F0CC
:107E400079B800BF00340020697602001C3400209D
:107E500000F1080373B5044603600D46E1B108461E
:107E600021F0B1FA0F2805EB0006019007D9002296
:107E700001A9204620F074F8019B2060A3602068CF
:107E80003246294620F09FF8019B2268636000215A
:107E90002046D15402B070BD014820F053F800BF15
:107EA000389A040070B50D46044606460FCD0FC63D
:107EB0002B6833600021C4E90611A182A1752162FB
:107EC000202204F1240021F057F8204600F060FA47
:107ED000A062204670BD036B70B504463BB1D86804
:107EE00008B11EF071F8206B08B11EF06DF8D4E9EE
:107EF0000656AE4207D055F8040B0028F9D00368A7
:107F00005B689847F5E7A06908B11EF05BF820466A
:107F100070BD00002DE9F04F036B87B0044673B9C4
:107F2000236BABB9D4E9063200259A42194619D021
:107F30000968897E04330029F7D10135F5E7FFF799
:107F400059FA03789B07EBD4012007B0BDE8F08F06
:107F5000D86808B11EF038F8206B0028E2D01EF077
:107F600033F8DFE7002D00F09980544A6B1C9342F0
:107F70009ABF1C2058434FF0FF301EF021F80646F0
:107F80000346002D08DB18461C22002120F0F4FFD8
:107F900003461C33013DF4E7E369A56901934FF003
:107FA00000094FF01C0B019BAB4276D02B689A7EE8
:107FB000002A70D1D3E90D31904699421A4607D074
:107FC0001268927E0433002AF7D108F10108F4E721
:107FD000B8F1000F46D008F10100B0F1006F34BFD6
:107FE00000014FF0FF301DF0EBFF07460346B8F1EC
:107FF000000F09DB18461022002120F0BDFF0346C8
:10800000103308F1FF38F2E72B689A6BD3F834800D
:1080100002924FF0000A029B434520D0D8F800009E
:10802000827E0592C2B94FEA0A1107EB0A130430A7
:108030000491039300F0ACF90499039B7850D8F8AD
:108040000010059A098D19715A711D4A9A60D8F865
:108050000020DA600AF1010A08F10408DBE70BFBF3
:108060000963DF602868043000F092F90BFB09F81F
:1080700006EB0807124B46F808007B602B68BB60D4
:108080002868FFF7ABF80023BB742B6838821833DD
:108090007B6109F10109043585E72663012304F8B2
:1080A000243F204607F03CF830B9204607F010F88E
:1080B000B0FA80F0400948E7002046E724499204DE
:1080C000E77702002DE9F843D0E9065889461646BD
:1080D000002445452F460FD0386849460430043502
:1080E00000F058F90028F4D0B44202D13868BDE855
:1080F000F8830134A4B2ECE70020F8E72DE9F84F4B
:10810000D0E9009893466FF06043A8EB0902B3EB07
:10811000A20F07468A464FEAA20402D11D481FF06B
:1081200014FF012C224638BF0122A418A1EB090537
:108130002DD23CB19C4228BF1C46A0001DF03EFF42
:10814000064600E02646DBF800307351002D04DDC2
:108150002A464946304620F0F5FEA8EB0A080435C9
:10816000B8F1000F354404DD42465146284620F060
:10817000DBFE4544B9F1000F02D048461DF022FF56
:1081800006EB8404C7E90065BC60BDE8F88F1C46B7
:10819000D3E700BFFC9A040010B50A46D0E90114E9
:1081A000A14204D0126841F8042B416010BDFFF7D2
:1081B000A5FFFBE773B58B7E01910446084673B1BA
:1081C000D4E90625002319469542164607D036689D
:1081D000B04202F10402F7D181760123F4E7D4E939
:1081E00006259542114609D00968884202F1040229
:1081F000F7D12146FEF7F4FF02B070BD23B901A903
:1082000004F11800FFF7C8FF21460198FEF7E8FFC8
:10821000FFF7F0F8FFF780FAEEE77FB5044640205D
:108220000391164602931DF0C9FE029B0399009428
:10823000B2B205460291FEF7ADFF02990022204638
:10824000FFF740FF20462946FFF7B4FF284604B059
:1082500070BD10B58EB0044608A8CDE90032FFF716
:10826000F7FD08A903A800F00DF8DDE9003203A925
:108270002046FFF7D2FF044608A81FF093FE2046D1
:108280000EB010BDF0B50D4687B014220021044693
:1082900020F072FE6B68042B09D11022286822702E
:1082A000002121F0B9F96080204607B0F0BD082B0D
:1082B00008D12023286823701022002121F0ACF976
:1082C0006060F1E7102B0CD12B68621C03F11001E8
:1082D00053F8040B42F8040B8B42F9D1802323702E
:1082E000E2E7242B41D12868102201A921F00EF9E0
:1082F00005460198102201A9013021F007F90F0469
:108300002B4647EA104705040198002675194FF0DF
:10831000100201A900F1010043EB070721F0F6F874
:10832000281847EB0101CDE902010198102201A9AB
:10833000013021F0EBF8054601981022314601305A
:1083400021F0E4F82A04301842EB010102ABCDE938
:10835000040103CB04ABC4F80900C4F80D1003CB2F
:10836000C4F80100C4F80510B8E70023B7E70078A7
:1083700070470378202B05D0802B05D0102B05D11A
:10838000023070470430704701307047002070475A
:10839000704700002DE9FF41057806460C46002D88
:1083A00060D00A78002A5DD0AA4234D02E4B6F46A6
:1083B00003F1100EB84618685968BC46ACE80300D3
:1083C000083373456746F6D1802D15D12046FFF757
:1083D000D0FF102A01460CBF0222042203A820F07D
:1083E000A3FD3046FFF7C5FF1022414620F08EFD69
:1083F000B0FA80F040091BE0802A33D13046FFF705
:10840000B8FF102D01460CBF0222042203A820F061
:108410008BFD2046E6E7102A0DD1FFF7AAFF0246A2
:108420000846FFF7A6FF138800881B1A58425841D8
:1084300004B0BDE8F081202A08D1FFF79AFF024678
:108440000846FFF796FF13680068EEE7802A09D117
:10845000FFF78FFF05460846FFF78BFF1022014606
:108460002846C3E70020E3E74C9B040010B5C0E9B1
:108470000012836004461CF041F8E060204610BD05
:1084800070471FB54A1C08461AD10291002403AB5D
:1084900000944FF00042214620461CF015F9039B42
:1084A000A34211DB029B00934FF00042234621467A
:1084B00020461CF009F9431E5842584104B010BD33
:1084C00002A90EF012F9E1E70120F7E707B54160D4
:1084D000C06830B10021009101234FF000421CF030
:1084E00049F903B05DF804FB064BD3F850253AB1C7
:1084F00022F00801042903D1D3F850159142FAE77C
:10850000704700BF00100040F0B5283922B11F4B62
:108510001F4A9B7AD35CC91A1E4DD5F84035D5F851
:1085200004259B1A23F07F4311F11D0F03F1FF3344
:10853000B5BF841E00F1FF343D271E27022B24F017
:108540007F461FD9B31A13F4000023F07F4219D1DC
:10855000022A17D9104B012239441A60C3F8341586
:10856000C3F834014FF48033C5F84001C5F84065C5
:10857000C5F84433094B4FF00042C3F80425034BC0
:108580001C63F0BD4FF0FF30FBE700BF68370020F1
:108590002C9D040000B000400C80004000F0014021
:1085A000314A3249D079324BF0B13248C3F8040530
:1085B00003F56043C3F80C05C3F810152E49C3F842
:1085C00014152E49C3F804152D49C3F808150021C8
:1085D000C3F80012C3F80811C3F80411012119608F
:1085E00003F580334FF00071C3F80415137AA3B379
:1085F000244B0321C3F800152349C3F80815234968
:10860000C3F814150021C3F80011C3F80411C3F80E
:1086100008111F4B4FF48011C3F808154FF40001E7
:10862000C3F808150123D3700021114B91715173C8
:108630000822C3F8602540F25312C3F80411C3F8AE
:108640001411C3F82811C3F81C11C3F83011C3F872
:1086500000221222C3F804237047D379002BD8D10B
:108660000849C1F80035D4E768370020A738002052
:1086700000100040A0370020AC3A002001000001AB
:108680008082002000F000404C8D002078370020D0
:1086900000F001400A4A43F2FF43C2F808330121C7
:1086A0000023C2F800321161064A0749C2F80815D2
:1086B000064A0221C2F88011054AD370704700BFF4
:1086C0000010004000F00140F000B08200E100E046
:1086D0006837002010B51AF0EFFD114B012200247D
:1086E0001A60C3F83425C3F834410CF0CDFF0D4BAC
:1086F000033020F07F42C3F84041C3F840254FF4D7
:108700008032C3F8442303F5A0334FF00042C3F88E
:108710000425054B18631AF0D7FD204610BD00BF95
:108720000C80004000B000406837002083072DE92E
:10873000F04106D0234B244A24484FF4F9711DF030
:10874000E9FE8B684D79B3F800E00A8AAEEB0505C7
:10875000043D0F46AA42944628BFAC462CF0030CB9
:108760003E68A7F806C0A2EB0C02E046444603E0D0
:1087700050F8083046F80830B8F10408F8D5001968
:108780003619032A03D8A5EB0C05AA4202D9FF68C3
:108790007546DFE7FB881344FB8001E0835CB3543C
:1087A000013AFBD50A4C01F1180304F110052246E9
:1087B00003CAAA4218605960144603F10803F6D1AF
:1087C000BDE8F0815C9B0400A79C0400769B04003C
:1087D0008037002010B5154B01289C7A144B05BF3B
:1087E000144AD3F84835D3F84035525C12490CBFCF
:1087F000993328331A44114B1B5D114C28331A440A
:108800000B4BC3F84C250022C3F84C213020012229
:10881000C1F804052260D3F84445D3F84C359C4296
:1088200082BF084BC1F808051A6010BD68370020E8
:1088300000800040309D040000F00140249D0400B1
:1088400044800040101000402DE9F843334F344D70
:10885000344840F201137B812823BB70324B002443
:10886000012643F2FF423E734FF00308C3F8FC4F6A
:10887000C3F8FC6FC3F808232C4AC3F81085C3F86B
:1088800014252B4AC3F81825D3F850263243C3F8D1
:10889000502640F20312C3F82C45C3F83065C3F8E4
:1088A000342540F25B62C3F838254FF0FF39962239
:1088B000C3F844252146C5F808934FF48672C5F8DD
:1088C0000062C5F8084120F057FB1A4B3C61C5F81F
:1088D0000835194BC5F808930422C5F80041C5F8BE
:1088E0000441C5F80841C5F80445144D1E60DE601A
:1088F000C3F80485C3F80045C3F80C2500F098FBC5
:108900000F4985F8014330460DF034FC02232B60FB
:108910003B7803B93E700020BDE8F883683700203B
:1089200000F00040AC3A00200010004008011000A8
:10893000FF0003024C8D00200480004000E100E0B5
:10894000918A0200094B00F1100250F8041B43F811
:10895000041B9042F9D1064B0122DA71054B00222B
:10896000C3F800250222C3F800257047808200204A
:108970006837002000F00040034A0368C2F819304D
:108980004368C2F81D30704780820020024B186196
:1089900059611A76704700BF80820020094B4FF062
:1089A0000072C3F80825A3F57F43F83B01221A6043
:1089B000054A0023C2F80831C2F80035034AD371D2
:1089C000704700BF00F0014000F000406837002011
:1089D000014BC3E90A1070476837002010B540B258
:1089E00000F04CFB044600F043FB024B5C7000209F
:1089F00010BD00BF6837002008B540B200F03EFB54
:108A000008BD0000272810B506D9104B104A1148A0
:108A100040F642011DF07EFD0F4B0C02C3F81C45D1
:108A2000D3F8244524F0FF0444EA1164C3F8244534
:108A30000A4C6161C3F83C25094AA070125CC3F876
:108A40000825C3F85405002010BD00BFD39B0400C7
:108A5000EC9C0400769B0400001000406837002066
:108A6000FC9C0400074A08B501231360D360064B41
:108A70004FF48032C3F84823FFF70CFE034B00226B
:108A80005A7108BD0480004000B0004068370020E3
:108A9000F8B5B04BB04CD3F8047317F0020F47D0C1
:108AA000D3F80421002A43D000250222C3F8045140
:108AB000C3F8082303F5F0333022C3F808250FF07C
:108AC00045FF226BA378A5492262A3760123E576B0
:108AD0006377D1F84455A37AA149A377CB5C20836F
:108AE00028339D4238BF1E35A5EB030538BF02F180
:108AF000FF32284638BF22630CF0CAFD06460CF050
:108B0000CFFD2D1A1F2D206A924B04BF0136002580
:108B10003044C4E90805D3F85025D3F82811F9B931
:108B2000002AF8D143F2FF41C3F80813C3F800222A
:108B3000FB063FD5874BD3F81021002A3AD0D3F853
:108B40000C21E178002A38D1012902D1A279002A2A
:108B500033D0844B844A40F2D55184481DF0DAFC6E
:108B6000237AF3B1824AD37859061AD503F00F035A
:108B7000072B0CBF02230023D91C0A447D49C1F8EE
:108B80001025A1F560410022C1F828217A4A4FF44E
:108B90000000C2F80405627B083302EBC303C1F88E
:108BA0006035764AA17876480FF060FE002878DBC1
:108BB0000123A37100236371F8BD00221020012955
:108BC000C3F80C21C3F81021C3F8080306D002290A
:108BD0006DD06C4B644A4FF4BE61BEE7A0790028AB
:108BE00062D0654A4FF40011C2F80815D3F81C2171
:108BF00022B9654B654A40F2BB41AEE7D3F8482540
:108C0000D3F83031524213F0FF0F22771BD0238B61
:108C100043F080022283E279AAB1564AD2F80411C5
:108C20000029FBD05249097929B1D2F8002412B9A0
:108C300043F0A00323834F4BD3F808311BB1238BA0
:108C400023F080032383454AA17F5148D2F8483559
:108C5000415C5048504E6E335B1AA17A415C4648E5
:108C60005B1A0021C2F840354FF48015C2F840115C
:108C70000121C0F804553160D2F84C65B34205D2E9
:108C8000D2F8403113B9C0F80855617138483B49F2
:108C900003794371C37800F8043F0FF073FE002896
:108CA00088DAFFF7DFFE85E70FF0C2FD82E7E379A0
:108CB000A77A2BB12F4BD3F8081109B1C3F80821BB
:108CC000E36A25790BB1A06A9847022D234E17D18C
:108CD000FFF766FC002239460120FFF77BFD2F4B92
:108CE000D6F84825DB5D6C321344C6F840350023C6
:108CF000C6F84031204B4FF40012C3F8042559E761
:108D0000032D57D1254BDD5D94F83630002B47D02D
:108D1000D6F84835A08E1844A37A1E4AD35C283D65
:108D2000ED1A0E4B28440022C3F84005C3F8402139
:108D30001948114A4FF480110125C2F80415056045
:108D4000D3F84C05D3F8403598427FF633AFC2F8DC
:108D500008152FE700100040683700200080004011
:108D6000249D0400EC9B0400E09C0400769B04001E
:108D7000A438002000F0004000F0014080370020BF
:108D8000A73800203E9D0400629C0400CD9C040096
:108D9000289D04002C9D04004C800040309D040060
:108DA0003846D6F8446514F0A1FFA38E33442B4413
:108DB000181AB1E70B4A0123136033610A4B3022C2
:108DC000C3F808254FF48012C3F808254FF000427D
:108DD000C3F80825002D3FF4EDAE044B044A40F2E1
:108DE0008A41BAE60480004000F00140819C040002
:108DF000BA9C040010B5094C4FF40013C4F80835B0
:108E00000122FFF781FB18B1FFF72CFE052010BDF2
:108E10004FF48013C4F80435F9E700BF00F00140B7
:108E200010B5FFF761FB0E4AD2F85015134649B151
:108E3000D2F8502502F00702022A03D0FFF712FEF3
:108E4000012010BD002443F2FF42C3F80823C3F8F9
:108E50000C41C3F81041FFF7A3FB2046F1E700BF28
:108E60000010004038B50C4D4FF48013C5F808359C
:108E70000022FFF749FB68B1FFF72CFC01244FF4F7
:108E80000013C5F80435FFF7CBFF10B9002C18BF4D
:108E9000062038BD0446F2E700F001400B4A08B551
:108EA00001231360D3600A4B4FF48032C3F8482388
:108EB000FFF7F0FBFFF70EFC064B4FF40012C3F870
:108EC0000425BDE80840FFF7ABBF00BF04800040A9
:108ED00000B0004000F001402DE9FF41334C8046D6
:108EE0006079164628B1FFF7BDFD052004B0BDE846
:108EF000F0810191FFF7F8FA2D4B2E4F01993022A6
:108F0000C3F808254FF40002C3F808254FF000729B
:108F1000C3F80825E279A3F58033002A3CD001226A
:108F2000C3F80022244D254AC3F80C55C3F8107528
:108F3000C3F814254FF08072C3F80801C3F8042564
:108F40001F4AC3F808250DF10F02E81CC0479DF821
:108F50000F302B700023AB70E379687013B1194B9D
:108F600001221A60184900230322C1F80475C1F8D0
:108F70000031C1F80C31C1F81031C1F800221022C3
:108F8000C1F8042326716072D1F850250B2A08D04D
:108F90000222E2701846A9E70C4AC3F808253D46AC
:108FA000D1E7FFF75FFD0120A0E700BF6837002091
:108FB00000F00140A8390020A0370020AC3A002082
:108FC0008082002000F00040001000404C8D002006
:108FD000014B5869704700BF68370020014B9879F2
:108FE000704700BF68370020024BD3F85005C0B26D
:108FF000704700BF00100040FB207047044B1A78F8
:10900000044BC3F80425044B01221A72704700BFB9
:10901000488D002000F0004068370020014B0022FE
:109020001A727047683700201DF0E2BA1DF01CBBB1
:109030000D4B4FF08062C3F804254FF00062C3F877
:1090400004250A4AC3F8302502F5DE424832C3F847
:10905000342502F58072C3F83825A2F5E2423C3A85
:10906000C3F83C25704700BF00F0014004110040E8
:10907000014BC3F80C0570470010004007281ADCAC
:1090800025D0062823D0052821D004281FD0032866
:109090001DD0002811DA031D11DA10F1080F11DAC2
:1090A00010F10C0F11DA10F1140FB4BF6FF027009C
:1090B0006FF01300704708207047002070476FF072
:1090C000030070476FF0070070476FF00B007047A8
:1090D000936813B5186814460BF08CFB28B91F4B26
:1090E0001F4AF1211F481DF015FAB0F5285F08D07E
:1090F00042F6012398421CD01B4B194A4FF494713D
:10910000F0E7237863B9194820F05DF9174982B276
:1091100060680CF0C8FB002818BF112002B010BD19
:10912000012B114B02D1124A8721DBE70C4AFA21AD
:10913000D8E723783BB90F4B1B88ADF806300222E5
:109140000DF10601E4E7012B08BF0B4A064B16BFE1
:10915000034AB02140F20511C4E700BF349D04006A
:10916000F69D0400409D04003E9D040080340020D4
:10917000AD9D0400B83B0020D29D040037B501909E
:1091800020F021F91F2804460AD8064D019902460D
:1091900028461FF0C9FE00232B55184603B030BDEA
:1091A0000320FBE78034002008B50A4805F0B8FF2B
:1091B00030B1094B094A40F26F1109481DF0AAF974
:1091C000044805F085FF20B1034B044A4FF4B97100
:1091D000F3E708BD1C9E0400A59D0400099E040041
:1091E000409D040010B51478134634B904495868FA
:1091F00001220CF058FB204610BD0320FCE700BF05
:10920000BE3B002037B5137815467BB901220DF11E
:10921000070105F06DFD044678B9686801220DF17B
:1092200007010CF040FB204603B030BD012B06D1F6
:10923000516805F07BFD0446F5E70E24F3E70024B2
:10924000F1E7000070B5147815462CB1104B114AA7
:10925000942111481DF05EF9506804210CF042FD84
:10926000064690B1AA680D4B9A4203D00C4B094AAE
:109270009C21EEE70B4B19880CF02EF90A4BB01C21
:1092800019880CF029F9204670BD0620FCE700BFC4
:109290003C9E0400019F0400649E0400B034002042
:1092A000CB9E0400C03B0020BC3B0020034B188039
:1092B000034B1980034B188805F0C8BCC03B002045
:1092C000BC3B0020BA3B002008B5094805F028FF48
:1092D00028B1084B084AE72108481DF01BF904484B
:1092E00005F0F6FE18B1034B034AEA21F4E708BD86
:1092F000289F0400A59D0400159F0400649E04009F
:109300002DE9F34110F0400805460E4617461C466D
:109310000ED11868018A0CF071FB0623CDE9008399
:1093200022682B463946304600F0DAFEC4F8008049
:1093300002B0BDE8F08107F0EEBA7047172938BFD8
:1093400017218181704710B5044607F015FE30B132
:10935000A38923B16089984228BF184610BD172001
:10936000FCE710B50C46FFF7EEFF218A0B1A002B25
:1093700005DD411A2046BDE810400CF03FBB10BD92
:109380001FB5CDE9001006F09FF8DDE9001002AB33
:1093900003AA07F0C0FA40B90298FFF7D4FF0446C9
:1093A00006F094F8204604B010BD0024F8E7000051
:1093B00008B507F0C1FD38B104230381C380034B16
:1093C0001B884381024B836108BD00BFC23B002064
:1093D0003D94020002381E2811D8DFE800F0121078
:1093E000121012101210121012101210121012106D
:1093F0001010121012101010101210101200002075
:109400007047012070470138202812D8DFE800F0AB
:10941000131113111311131113111311131113112C
:109420001311131111111311131111111113111122
:109430001300002070470120704700002DE9FF4114
:10944000044607F0C9FD4FF6FF73984205463BD02E
:10945000206926890DF107030122002104F110077C
:109460000CF0A6FA70BB042E16D19DF80700FFF78A
:10947000CAFF88B106F028F802AA03AB3146284695
:1094800007F061FA024638B90298039980F874200F
:1094900000F08EFB06F01AF89DF80700DFF86080F8
:1094A000002398F80020904210D004D301331F2BE2
:1094B00008F10808F5D13B4632462946FFF720FF60
:1094C000082418E0042416E0072414E02069012190
:1094D0000CF094FAD8F804303A46314628469847BA
:1094E000044640B1082C06D19DF807003B463246A1
:1094F0002946FFF705FF204604B0BDE8F08100BF14
:10950000489F0400024B4FF480721A80002070477D
:10951000C23B0020F8B506460F461046042115460A
:1095200007F0DAF9044640B92B681A683946D3784F
:10953000B2F80120304604F02DFB2046F8BD30B5CE
:10954000162985B005460C463BD905F0BDFF01AB99
:1095500002AA04212846FFF7EEFE28B105F0B6FF67
:109560000724204605B030BD019B9B7BDB0709D457
:1095700005F0ACFF022103AA084600F006FB28B95B
:109580000624EEE705F0A2FF0224EAE70480039A2E
:109590000421284600F04EFB04460028E1D105F0E6
:1095A00093FF01AB02AA04212846FFF7C4FE04463C
:1095B00020B9019A937B43F00103937305F086FF72
:1095C000CFE70324CDE7F7B506460F461046022144
:1095D000154607F081F9044630BB2B681D6805F07D
:1095E00073FF224601AB39463046FFF7A4FE04461E
:1095F000C0B929880198FFF7A1FE0198FFF7A3FEE3
:10960000054605F063FF24B92A460421304603F0DD
:10961000B2F830462B462246042104F0D5FA204603
:1096200003B0F0BD0025ECE70025F2E7F7B50646EC
:109630000F461D46144682B19A420ED8042101AA53
:10964000084600F0A2FA50B104804580019A3946DC
:10965000304600F0EFFA03B0F0BD0320FBE7062030
:10966000F9E72DE9F047074686B088461046012104
:10967000144607F031F9054640B920680121D0F8B9
:1096800000A00CF0BBF923681B8A43B938462A4670
:10969000414604F0E6FA284606B0BDE8F0879AF89D
:1096A0000060012E1CD0022E25D14FF01209494630
:1096B000204607F011F918BB236818680BF027FF44
:1096C000012EADF800000ED0022E16D020684946BB
:1096D0000CF094F96A464146384604F099FAD2E70C
:1096E0004FF00409E3E702231A46216801A80BF0B2
:1096F000A3F80028EAD00A25C8E710233246F4E789
:109700000546C3E72DE9F341DDF8288006460F46FC
:109710001D461446D2B19A4218D801AA08F1060192
:10972000062000F032FA98B1BDF820300999048083
:1097300045808380424606301FF0F6FB019A394689
:10974000304600F077FA02B0BDE8F0810320FAE776
:109750000620F8E773B505460E46144623681A8AB4
:1097600032B92846314604F0C9FA002002B070BD73
:109770000421204607F0B0F8B0B920680368597892
:109780001A7842EA0122ADF804209A78DB780421A5
:1097900042EA0323ADF806300CF030F901AA314655
:1097A000284604F080FAD9E70A22DAE72DE9F341E6
:1097B000DDF8208006460F461D461446C2B19A4287
:1097C00016D840460BF074F801AA011D082000F0DD
:1097D000DCF978B1011D0480458040460BF03EF86D
:1097E000019A3946304600F025FA02B0BDE8F08112
:1097F0000320FAE70620F8E72DE9F043064685B096
:109800000F4610460121144607F066F8054670B968
:109810002068036893F8008001210CF0EFF8B8F19C
:10982000010F28D9A8F1020923681B8A43B93046E1
:109830002A46394604F09EFA284605B0BDE8F08372
:109840004146204607F048F8B8B923681B685978A4
:109850001A78CDF8089042EA0122ADF804200233CC
:109860003946304601AA039304F06CFA2068414659
:109870000CF0C4F8D8E70A25D9E70546D7E773B551
:1098800005460E4614466AB101AA02210A2000F0DC
:109890007CF948B10480019A3146284600F0CAF9A3
:1098A00002B070BD0320FBE70620F9E708B51346B8
:1098B000002204F0C9FA002008BDF7B505460E469F
:1098C0001F46144672B101AA04210C2000F05DF974
:1098D00050B104804780019A3146284600F0AAF929
:1098E00003B0F0BD0320FBE70620F9E708B51346F7
:1098F000002204F0C1FA002008BD13B5002413466D
:109900000094224604F0CBFA204602B010BD082095
:1099100070472DE9F341DDF8208006460F461D46CD
:109920001446C2B19A4216D840460AF0C1FF01AAB5
:10993000011D102000F029F978B1011D0480458037
:1099400040460AF08BFF019A3946304600F072F922
:1099500002B0BDE8F0810320FAE70620F8E72DE920
:10996000F043064685B00F4610460121144606F026
:10997000B3FF054658B920680368012193F80080B9
:109980000CF03CF8A8F1040923681B8A43B930465F
:109990002A46394604F034FA284605B0BDE8F0837B
:1099A000B8F1040F21DD4146204606F095FFF0B9DD
:1099B000236818680BF0ABFD2368ADF80400186845
:1099C00002300BF0A4FD2368ADF806001B68CDF84B
:1099D000089004333946304601AA039304F0E2F9B3
:1099E000206841460CF00AF8CEE70425CFE705468B
:1099F000CDE708B504F06DFA002008BD2DE9F3416C
:109A0000089D074688461C46164602B32B8A234407
:109A1000B3F5007F1BDCFFF7B3FC2B8A04389842B8
:109A200015DD01AA0421162000F0AFF8A0B1448092
:109A30000680294601980CF039F9019A41463846CA
:109A400000F0F8F80446204602B0BDE8F081032497
:109A500028460BF015FFF6E70624F9E72DE9F74352
:109A600006460F4610460421154606F035FF04460B
:109A7000A0B9286803680421B3F80090B3F8028005
:109A80000BF0BCFF3046CDE900854B4622463946F7
:109A900004F030FA204603B0BDE8F0834FF0000830
:109AA000C146EFE773B504460D461646012101AAEB
:109AB000182000F06AF838B10670019A294620464D
:109AC00000F0B8F802B070BD0620FBE708B5002230
:109AD00004F02EFA002008BD73B5064615460C4664
:109AE00099B101AA02211B2000F04FF890B1048027
:109AF000294601980CF0DAF8019A0421304600F06A
:109B000099F80446204602B070BD032428460BF0A5
:109B1000B7FEF7E70624F9E7F7B506460F461D46F8
:109B200014469AB101AA02211D2000F02EF890B12E
:109B30000480294601980CF0B9F8019A394630465C
:109B400000F078F80446204603B0F0BD0324284610
:109B50000BF096FEF7E70624F9E708B504F000FAE3
:109B6000002008BD013170B589B206461046154681
:109B70000CF0B8F8044620B928460BF081FE2046C8
:109B800070BD2C6804F8016BF9E737B5154604463B
:109B9000019106F087FE0246286030B10199204607
:109BA00003B0BDE83040FFF7DDBF03B030BD0000BB
:109BB00070B505460E4614465AB990F87430C3B9CC
:109BC000C46EB4B16368C36613B900F16C03036774
:109BD000103C23681878FFF7FDFB78B195F87430D6
:109BE0004BB1002363612B6F04F1100214341A602F
:109BF0002C67002070BD012385F874302368187825
:109C0000FFF79BFB21463046FFF7ABFB2246314670
:109C1000284607F083FA0028EBD0034B034A044898
:109C20005B211CF077FC00BFA59D040098A00400F8
:109C300040A0040030B585B01546019005F044FC05
:109C4000019802AB03AA042106F07DFE044638B158
:109C500005F03CFC28460BF013FE204605B030BD55
:109C6000DDE902102A46FFF7A3FF044605F02EFCAB
:109C7000F3E710B5144606F02FFE06280CBF11239B
:109C8000002304B1237010BDF8B5069F1D463B7834
:109C9000102B038A16460CBF0622142213448B4253
:109CA00011DC11460CF01EF8044670B131460BF081
:109CB00013FC2946A01C0BF00FFC211D38460AF0AE
:109CC000CDFD0020F8BD0420FCE70620FAE70000E7
:109CD00010B5034C20681AF0A6FF0023236010BDC6
:109CE000C43B002013B50C46019005F0EDFB019834
:109CF00005F086FE836D236002B0BDE8104005F0DC
:109D0000E5BB00002DE9F0470646147AA0B01746DF
:109D10001D468846A1B1E00705D402232B70102010
:109D200020B0BDE8F08704F0040A04F0080904F04C
:109D3000100444EA090353EA0A030CD10020EFE7B8
:109D4000A10701D40323E9E704F0200A04F0400945
:109D500004F08004EDE769463046FFF7C3FF364B59
:109D60005B7A13F0100F9DF8003011D003F003025E
:109D7000032A04D005232B7040F20510D0E703F02E
:109D8000F802802A04D00C232B704FF48670C7E7AA
:109D900059EA0A0231D013F0010A29D105F094FBE7
:109DA000304605F015FE78B103A905F047FEDDF851
:109DB0001300BDF817209DF819308DF80BA0019005
:109DC000ADF808208DF80A3005F080FB0AA901A83B
:109DD0000AF02DFB50B99DF8503013F0010F0CBF65
:109DE00005200F20287000F5807099E70520F9E71D
:109DF000B9F1000F01D09A07BCD57A7AB2EBD30F34
:109E0000C1D8002C9AD005F05FFB304605F0E0FD8C
:109E1000044605F05BFB94F85930DB078ED4798952
:109E20004246304602F0D7FC022887D108232B7027
:109E30004FF4847074E700BF403500202DE9F041F5
:109E400086B00546039300238DF817304FF6FF7355
:109E500098420C9F0C4616460FD12369019303AB21
:109E60000093D4F80C806189334601222846C0470C
:109E700078B18DF81700092007E00A460DF11703A5
:109E80000121FFF73FFF0028E7D017B19DF81730F9
:109E90003B7006B0BDE8F08173B504460DF10600D5
:109EA00015461E460BF018FB02220DF10601204656
:109EB0000BF0F9FC20B111233370062002B070BD05
:109EC00029460DF106000BF007FB02220DF10601F9
:109ED00020460BF0E8FC0028EDD10120EEE7000061
:109EE00010B5044640B180680BF0CAFC2146034817
:109EF000BDE810400CF096B810BD00BF343C002007
:109F0000F0B51D4685B04FF6FF730C4698424FF0F2
:109F10000001064617468DF80F100DD1236961899F
:109F2000CDE900730222E76800233046B84750B1FC
:109F30008DF80F00092006E00DF10F032246FFF710
:109F4000E1FE0028EAD015B19DF80F302B7005B066
:109F5000F0BD2DE9F04385B00446DDF8349003915F
:109F600090461F4606F09EFC054600B30346039943
:109F7000CDF8009020460022FFF760FF044630B97C
:109F80002E8A46450AD90E2389F800300424284633
:109F90000BF076FC204605B0BDE8F0833B46014659
:109FA000324628460BF004FD0C9B1E80EFE706248A
:109FB000EDE700002DE9F041804612480F461646B5
:109FC0001D460CF008F80446B8B10F4BC0F80480E9
:109FD0001A880772013292B21A80069BC360079BEF
:109FE00003610A4B467259684281002020600C6070
:109FF0005C6025B12A80BDE8F0810620FBE7284699
:10A00000F9E700BFC83B0020EC3B0020F03B0020FC
:10A01000014B1888704700BFEC3B0020044A034600
:10A02000106800B9704742899A42FBD00068F8E78F
:10A03000F03B002037B50546084601921C46FFF765
:10A04000EDFF019A014628B90CB1012323700520C8
:10A0500003B030BD2346284603B0BDE83040FFF7CB
:10A060004FBF000070B50D46164640B90A4B1C683C
:10A070001CB16389B34204D90024204670BD046832
:10A08000F6E7002DF9D0606829460AF098FB002811
:10A09000F3D02468ECE700BFF03B0020026822B157
:10A0A0004068401A20EAE07070476FF00040704747
:10A0B00037B504460846CDE90032FFF7AFFF069DED
:10A0C000DDE90032014628B90DB101232B700520CE
:10A0D00003B030BD204603B0BDE83040FFF7AEBE50
:10A0E0002DE9F84304460D4601200421BDF82090D7
:10A0F0009DF8248016461F46FFF734FD58B10770BF
:10A1000080F80380A0F80190324629462046BDE839
:10A11000F843FFF78FBD0620BDE8F8832DE9F34132
:10A1200006469DF824800F461C46154642B1B8F1FC
:10A13000000F1DD05BB1218A20460BF05FFC0AE0C6
:10A140001A46FFF777FD054688B14FF00E0806F076
:10A15000A9FB044660B1BDF828300093CDF8048017
:10A160009DF82030224639463046FFF7B9FF0024DB
:10A1700020460BF085FB284602B0BDE8F0812DE9B2
:10A18000F043042989B006460D4690464FF0000979
:10A190006AD10DF1170202214046FFF76AFD04461D
:10A1A00000285ED1D8F800301B681F888DF8170092
:10A1B00005F08AF9224607AB29463046FFF7BBF87F
:10A1C000044610B9079BB3F80A9005F07FF9002CFC
:10A1D00045D1D8F80050C8F80040298A28460BF02D
:10A1E0000DFC2A4602210320FFF7BCFCA0BB112373
:10A1F0008DF817300624002302939DF81730019341
:10A200000223009322462B4604213046FFF786FFA7
:10A210000446E8B905F058F906AB07AA0421304610
:10A22000FFF789F8044658B939460698FFF786F8CB
:10A230000698837B43F001038373FFF784F8074696
:10A2400005F044F924B93A460421304602F093FA65
:10A25000204609B0BDE8F083A0F80090CBE70025C8
:10A26000C9E74D464F46C6E70824F1E72DE9F04F10
:10A2700016468BB081468A4600240DF12702042140
:10A2800030468DF82740FFF7F4FC0546002876D1CC
:10A2900034682368B3F800805B880593984502D83A
:10A2A000B8F1000F14D101238DF8273000240A25BE
:10A2B0009DF82730019304230093CDF808802346AE
:10A2C0002A4651464846FFF729FF0BB0BDE8F08FFC
:10A2D000218A306020460BF091FB224601210520A7
:10A2E000FFF740FC074620B911238DF827300625DB
:10A2F000DEE751464846FFF743F8224B3D701E68A3
:10A300000690AB461EB17389059A9A4205D2BBF1FD
:10A31000000F16D04FF00008CAE798452DD8716895
:10A320003B780978102914D183B901233B700421AB
:10A33000238A069A0B449342E9DC20460BF0D2FCB8
:10A3400080B90A238DF827300525B1E7012BEED01F
:10A35000DDE723B94FF002033B701221E8E7022B3F
:10A36000FBD0D4E7718907900BF0B6F8079B7068B3
:10A37000991C0AF073FA0BF1010B3668C2E7A0468C
:10A3800096E700BFF03B00202DE9F04F2DED028B4A
:10A3900014468FB082468B4600250DF1210206211E
:10A3A00020468DF82150FFF764FC0646002840F057
:10A3B000DA8023681B685A88B3F8008005929045BC
:10A3C00002D8B8F1000F16D101238DF821300025F5
:10A3D0000A269DF82130019306230093CDF80880CA
:10A3E0002B46324659465046FFF798FE0FB0BDEC5B
:10A3F000028BBDE8F08F9F8806F054FA054650B1F5
:10A40000024631460720FFF7ADFB60B911238DF8F6
:10A4100021300626DDE7112325688DF821302660DE
:10A4200006242646D5E759465046FEF7A9FF23687D
:10A43000ADF8267008EE103A10238DF824304C4BFE
:10A4400006901F68B146344697B9C4B12B8A069965
:10A450001A1D914214DB21460DF121034A4628467C
:10A46000FFF71AFD0128044609D0002CD9D106E0D7
:10A470007B89984515D854B9059A9A4241D22B8ABE
:10A48000012B72D80A238DF821300524C9E79DF8E5
:10A490002430102B20D17A681378102B03D0B7F812
:10A4A0000A903F68D0E709A807920AF0A3F942F69C
:10A4B00001018842079A0BD8B0F5205F0CD31046F3
:10A4C0000AF098F9A0F5205080B20128E7D803E0FF
:10A4D00042F60301884237D02B8A069A04339A4207
:10A4E000CDDB21460DF121034A462846FFF7D4FC77
:10A4F00001280446B9D17B89059A9342BFD84FF011
:10A500000009786809A90AF05AF950BB0DF1210336
:10A5100001930DF12203009310220AAB39465046F5
:10A52000FFF717FD044600287FF47BAFBDF822300B
:10A5300018EE100A0AAA06210BF0ACFA0028B0D1D6
:10A54000B7F80A904C46ACE7079010460AF052F96B
:10A55000A0F5205292B2012ABED9079B98429ED103
:10A56000BAE700249DE7A84633E74FF0000830E73C
:10A57000F03B00202DE9F04F13682DED028B1E8A71
:10A5800097B00025062E08EE101A814617468DF862
:10A590002D5001D0142E13D10DF12D0A5246314603
:10A5A0003846FFF766FB044650BB39680B681D88C8
:10A5B0005B8808939D4200D8B5B901238DF82D30F2
:10A5C00000260A249DF82D3001930823009318EEED
:10A5D000101A0295334622464846FFF79FFD17B0F2
:10A5E000BDEC028BBDE8F08F0DF1440B331F04224C
:10A5F00058460AF021F9044628B104248DF82D406C
:10A6000000252E46DEE73E688DF82D00318A386041
:10A6100030460BF0F3F9324601210920FFF7A2FA88
:10A62000059030B91123059D8DF82D300620044684
:10A63000C8E718EE101A4846FEF7A2FEA04606909C
:10A6400007942746CDF824A03846089A5946FFF7C4
:10A6500009FD0746002855D04389AB42F4D3099B36
:10A6600001930DF12E03009301460CAB13224846D3
:10A67000FFF76FFC60B17D89079B73BB9DF82D30A0
:10A6800013B90A238DF82D300028D0D1052499E77D
:10A69000069BBDF82E20033B9342DEBF069B043B86
:10A6A000ADF82E30BDF82EA0B8F1000F01D0D04586
:10A6B000E2D1328A069B02325244934224DB0AF1F1
:10A6C000020189B230460BF00DFB78B9079B7D89FA
:10A6D00011228DF82D20CBB1D04600238DF82D30DE
:10A6E000059B08F1020883F800806BE77A8920F85F
:10A6F000022B0CA9BDF82E201EF016FC0123D0461B
:10A700000793A1E70520B7E7D046B5E706208EE717
:10A710002DE9F04786B017460DF1170A80468946A5
:10A7200000265246022138468DF81760FFF7A1FA3D
:10A73000044650BB3D682B68298A1E88386028462D
:10A740000BF05CF92A4621460B20FFF70BFA90B973
:10A7500011238DF8173006249DF8173001930A2332
:10A76000009302962B46224649464046FFF7D6FC08
:10A7700006B0BDE8F0872246CDF800A02B46314652
:10A780004046FFF795FC0446E6E73546E4E72DE949
:10A79000F04F87B017460DF1170A8046894600260C
:10A7A0005246042138468DF81760FFF762FA0446D6
:10A7B00060BB3D682B68298A1E88B3F802B03860F8
:10A7C00028460BF01BF92A4621460D20FFF7CAF94F
:10A7D00090B911238DF8173006249DF81730019396
:10A7E0000C23009302962B46224649464046FFF72B
:10A7F00095FC07B0BDE8F08FCDF800A02B465A4677
:10A8000031464046FFF754FC0446E6E73546E4E7A8
:10A810002DE9F04F87B000240F46154606468DF807
:10A820001740FEF7ADFD804606F03CF8814698B132
:10A83000024621460F20FFF795F9044678B10DF145
:10A84000170B2B681B8A012B03D9B9F8103043452D
:10A8500019D30024A24607E0D5F800902C601123FC
:10A860008DF817304FF0060A9DF8173001930E232C
:10A87000009302944B46524639463046FFF74EFC51
:10A8800007B0BDE8F08F5A4602212846FFF7F1F9DC
:10A890008246A0B92B6818680AF039FE02210446E6
:10A8A00028680BF0ABF85246CDF800B04B46214675
:10A8B0003046FFF7FDFB82460028C2D0D4E70024D3
:10A8C000D2E72DE9F04F89B000248946174680462B
:10A8D0008DF81D40FEF754FD824605F0E3FF054666
:10A8E00050B1024621462120FFF73CF9C0B911239F
:10A8F0008DF81D30044604E011233D688DF81D30AD
:10A900003C6006229DF81D300193202300930294A1
:10A910002B4649464046FFF701FC09B0BDE8F08FE1
:10A92000214602200AF082FF0DF11D0B06463B680E
:10A930001B8A012B02D92B8A534502D300242246BD
:10A9400036E05A4602213846FFF793F9024670BBBB
:10A950003B68059018680AF0DAFD02210446386861
:10A960000BF04CF8059ACDF800B03346214640462E
:10A97000FFF79EFB0246D8B9338AADF81E3002229B
:10A980000DF11E0128460AF08EFF024690B9BDF86F
:10A990001E30002BCBD0314628460AF0E2FF02469B
:10A9A00040B9BDF81E1030460BF028F8BFE7002470
:10A9B000002EA7D0304605920AF062FF059AA1E763
:10A9C0002DE9F04F13682DED028B8946198A97B057
:10A9D0000025062908EE100A17468DF81D5001D0F3
:10A9E000142913D10DF11D023846FFF742F9044630
:10A9F000002840F0DF8039680B681D885B8804936D
:10AA00009D4200D8B5B901238DF81D3000260A24D7
:10AA10009DF81D3001931023009318EE100A029543
:10AA2000334622464946FFF779FB17B0BDEC028B4F
:10AA3000BDE8F08F0B8A0DF1300B043B0422584621
:10AA400009F0FAFE08B10423DEE70590584609F044
:10AA5000D1FEA0F5205080B20128059B05D9102316
:10AA600026468DF81D301C46D2E7494618EE100ADE
:10AA700005938DF81D40FEF783FC3E683C60318AEB
:10AA8000824630460AF0BAFF324601211120FFF714
:10AA900069F8059B804620B911238DF81D300624E6
:10AAA000B6E7484A037017681C461A4697B9002A49
:10AAB0006CD04FF6FF7411AB0093514623463046DD
:10AAC000FFF7E2F8062808BF1123044608BF8DF8F7
:10AAD0001D305CE07B899D420ED8049999426CD36D
:10AAE000E2B17868059209F085FEA0F5205080B2A9
:10AAF0000128059A02D97C893F68D7E711AB0093FA
:10AB0000514623463046FFF7BFF8044630B10628C9
:10AB10007D8921D111238DF81D3079E77868594658
:10AB200009F04DFE00283FD10DF11D0301930DF1F9
:10AB30001E030093102208AB39464FF6FF70FFF753
:10AB400008FA044638B9BDF81E2008A911A809F072
:10AB500012FE044620B17D89042C08BF002457E76B
:10AB600098F80030062B0DD0142B18D07BB99DF827
:10AB70004430102B0CBF0623142388F800307A8948
:10AB80001446B9E79DF84430102BF8D00024338ADE
:10AB9000022B0BD80A238DF81D30052438E79DF8C9
:10ABA0004430102BEBD1F1E70022A5E7002C3FF455
:10ABB0002FAFD1E700252E462AE7002A7FF47BAF8E
:10ABC000E4E700BFF03B00202DE9F043904687B05A
:10ABD00006460F4600250DF11702022140468DF86A
:10ABE0001750FFF746F80446A8BBD8F800301B689A
:10ABF000B3F8009005F056FE0546C8B1024621465E
:10AC00001320FEF7AFFFC0B911238DF817300624CB
:10AC10009DF81730019312230093CDF808902B462E
:10AC2000224639463046FFF779FA07B0BDE8F0838F
:10AC3000D8F80050C8F80040E6E7D8F80000022134
:10AC40000AF0DCFE0DF11703424649463046FFF795
:10AC5000F1F90446DCE7A946DAE773B51446054680
:10AC60000DF1070202212046FFF703F860B92068C2
:10AC700003681E8802210AF0C1FE0DF10703224677
:10AC800031462846FFF7D6F902B070BD2DE9F047EE
:10AC9000B0B00FA98046164600F0ACFC0446002870
:10ACA00040F08B808DF80F000546DDF84700BDF8B9
:10ACB0004B209DF84D3002901AA902A8ADF80C2047
:10ACC0008DF80E3009F0B3FB044600286ED19DF8D4
:10ACD000B25015F0010572D00DF107020221304685
:10ACE000FEF7C7FF0446002863D130680368018A75
:10ACF000B3F800900C2204AB0C390AF059FE6FF047
:10AD00000B0130680AF07AFED6F800A0BAF810708D
:10AD10000537BFB2384619F080FF0346D22203F848
:10AD2000012B05462146BAF8102050460AF040FE95
:10AD300033682D9A1B8A2B443946C3F801202846D4
:10AD40000AF0F3FB10220DF1A2010BA80AF0FEFBA2
:10AD50002146102207A81EF00FF907AB3A462946F4
:10AD60000BA808F040FB044600BB102107A80AF01E
:10AD7000DCFB04222DA904A81EF0C8F8F8B90822AB
:10AD800009A905A81EF0C2F8C8B9404607F0EBFCB7
:10AD9000044658B9306802210AF030FE0DF107036D
:10ADA000324649464046FFF745F90446284619F021
:10ADB0003AFF204630B0BDE8F0870025F6E71724BB
:10ADC000F4E710B50446206800B910BD036823609D
:10ADD000FFF786F8F7E700002DE9F04F2DED028B25
:10ADE00016468BB008EE101A07464FF0000B0DF117
:10ADF0002702042130468DF827B0FEF73AFF0446BB
:10AE0000002840F09C8033681D68B5F800904846E3
:10AE1000FFF704F98046B0B901238DF827300524E7
:10AE20009DF8273001931623009318EE101ACDF8E1
:10AE30000890434622463846FFF770F90BB0BDEC48
:10AE4000028BBDE8F08F024621460DF127033846FC
:10AE5000FEF758FF0446002874D104F035FBB5F81E
:10AE600000B0D6F800A01FFA8BF306936B88ADF8FC
:10AE7000143038469BB2079304F0C2FD8046324836
:10AE80000BF0A9F80546A0B909238DF82730062450
:10AE900004F01CFB0023D6F800803360002CBFD1E7
:10AEA000012140460AF085FED8F8003017221A70BA
:10AEB000B6E704604460846005F0F4FCA86020B943
:10AEC0002846FFF70DF81123DFE7BDF81430EB80BB
:10AED000BAF81030A5F804B0043B9BB204225146E6
:10AEE0000AF03FFD044630B12846FEF7F9FF09237A
:10AEF0008DF82730CCE7D8F844C0024663461BB132
:10AF00009888069981420ED2AAB9C5F800C0C8F83F
:10AF1000445019F0A1F800F5EA403030C8F8480074
:10AF200004F00AFBB4E703D1D88807998842EBD82C
:10AF30001A461B68E3E713682B601560E9E7D946FA
:10AF4000D8466DE7D8466BE7343C00202DE9F04F3A
:10AF5000154689B081468A460DF116020121284620
:10AF6000FEF787FE0446002840F083802F683B6888
:10AF7000398A1E78286038460AF040FD3A46214654
:10AF80001920FEF7EFFD002876D1112325468DF814
:10AF9000163006249DF8163001931823009302956D
:10AFA0003B46224651464846FFF7B8F809B0BDE88F
:10AFB000F08F069E224606BB069D002D35D0AD883B
:10AFC0004FF0000BDDF81880B8F1000F39D128469A
:10AFD000CDF81CB0FFF722F80DF11703014607AAC0
:10AFE0004846FEF78DFF804607980AF049FCB8F105
:10AFF000000FE1D09DF8174017E0F1881AB1B5882D
:10B000009088A84203D041B1B58807240DE090682C
:10B01000D288008A02448A42F7D1B268128A0A446E
:10B02000B2F5007F0ADDB5880D24002C8DF816409E
:10B0300018BF092406A8FFF7C4FEABE732463668FE
:10B04000B9E7B8F80430AB42C1D1BBF1000F0AD167
:10B05000D8F808B0069BC8F808601B6806934046FD
:10B06000FEF73EFFAEE7D8F8081058460AF01EFE7D
:10B07000F0E700273D468DE704F026FA484604F045
:10B08000BFFC436C4464069304F020FA002E90D178
:10B090002546CFE7F7B51546064600220221284689
:10B0A000FEF7E7FD0446A8B92B681B681F889FB10F
:10B0B00001A93046FEF716FE286802210AF09EFC20
:10B0C0002A6823463946304601F0D7FA2C602046DC
:10B0D00003B0F0BD0624FAE70A24F8E70820704719
:10B0E0002DE9F043154687B08046894600220221AB
:10B0F0002846FEF7BEFD044660B92B681B681F8812
:10B1000067B105F0CFFB064660B92E682C601123AD
:10B1100006241EE000231E461F461AE03B463E461C
:10B120000A2416E0024621461E20FEF71BFD0028D9
:10B13000EDD005A94046FEF7D5FD286802210AF0AA
:10B140005DFC01232A683946404601F096FA2C60DE
:10B150002346CDE901371D23009322463346494655
:10B160004046FEF7DBFF07B0BDE8F08338B50D4C75
:10B170000D4D216831B90D4C0B4D216851B90C4B67
:10B18000198038BD0B68236003B9646028460AF053
:10B1900049FFEEE70B68236003B9646028460AF0B4
:10B1A00041FFEAE7F03B0020C83B0020E43B0020E1
:10B1B000EC3B002037B5FEF78BFD0F4B1C881CB90C
:10B1C0000024204603B030BD142505FB04F019F01F
:10B1D00024FD0A4B186068B1094B00932A460346C8
:10B1E000214608480AF0B2FE0028E9D00B24FEF7F9
:10B1F0006FFDE6E70624FAE7F4820020C43B002056
:10B20000ADA00400C83B002007B50B4B00930B48D2
:10B210000B4B0C2205210AF099FE50B9094BC3E9EA
:10B220000003094BC3E90003084B188003B05DF825
:10B2300004FB0B20FAE700BFC4A00400343C00204C
:10B24000F83B0020F03B0020E43B0020EC3B0020DA
:10B2500038B5064B1C6805460CB9204638BDD4E904
:10B26000003128469847A468F6E700BF503C00200C
:10B2700070B588B001AE0C463146054604F0DEFBE1
:10B2800096E8030004F10803606023F8021B090C30
:10B290001970DDF80B30C4F80B30BDF80F30A4F88E
:10B2A0000F309DF811306374DDF81230C4F812309D
:10B2B000BDF81630E3829DF818302376DDF819309A
:10B2C000C4F81930BDF81D30A4F81D309DF81F30AA
:10B2D000E377AB882384AB8B6384EB8BA3842B8CC9
:10B2E000E38495F8223084F82930AB6D236095F81B
:10B2F0002830DB4303F0010384F8283008B070BD28
:10B300001FB50023ADF80C000093022203A940F200
:10B310001D4004F0BDFC05B05DF804FB1FB5002323
:10B32000ADF80C000093022203A942F2160004F0CB
:10B33000AFFC05B05DF804FB07B5002300931A4687
:10B34000194642F20E0004F0A3FC03B05DF804FBC2
:10B350001FB500238DF80C008DF80D10009302220C
:10B3600003A942F20C0004F093FC05B05DF804FB65
:10B370001FB500238DF80C000093012203A942F2AF
:10B380000A0004F085FC05B05DF804FB064A13884A
:10B3900023F4FF7323F001031380537C6FF3C30383
:10B3A000537404F0C9B800BF543C0020F8B5094FED
:10B3B0003D4604460E4604F087F80FCD0FC42B68B7
:10B3C00023601EB1FFF7E2FF00233B74BDE8F840A5
:10B3D00004F07CB8543C0020014610B101480AF04A
:10B3E00021BE7047943C002010B40C4611461CB19D
:10B3F00023465DF8044B18470278042A07D1D0E9A8
:10B4000001120B6813604B6853608B6893600020D7
:10B410005DF8044B7047F7B50546019104F054F808
:10B42000019804F0D5FA044660B1D0E9196704F038
:10B430004DF854B13A463146284603B0BDE8F040D5
:10B44000FFF7D2BF07460646F1E7072003B0F0BD7D
:10B4500000B593B03422002105A81DF08DFD08230E
:10B46000012168468DF81430FFF7A0FF029919B149
:10B47000039A05A8FFF7B8FF05A8FFF7E9FE13B088
:10B480005DF804FB30B5144B1B78012B93B00446D8
:10B490001DD0022B19D101216846FFF787FF029DBD
:10B4A0009DB13422002105A81DF066FD00230399FB
:10B4B0008DF81430069405A8A84726238DF814307B
:10B4C0000399029B069405A8984713B030BDFFF777
:10B4D000BFFFFFF75BFFF8E7543C0020044B1B7CE9
:10B4E00023B9044B5878C0F380007047012070479F
:10B4F000543C0020683C002010B590B0342200215C
:10B50000044603A81DF038FD092303A88DF80C306C
:10B510000494FFF79DFE03F0D7FF0A4A1388D2E98F
:10B52000024123F4875323F01F031380019104F099
:10B5300003F803F0CBFF14B1019903A8A04710B0A2
:10B5400010BD00BF683C002038B5104D2B78BBB152
:10B550006B78DB0614D56C6818F07EFD201A002885
:10B5600010DC0020FFF704FF68B92B8823F4875311
:10B5700023F01F032B8003F0DFFF0D20FFF7BCFF3C
:10B580006FF0004038BD6420FCE700BF683C00203D
:10B5900070B50A4D00202E78FFF7EAFE044650B938
:10B5A0002B8823F4875323F01F032B8003F0C4FF61
:10B5B000012E18BF0224204670BD00BF683C002049
:10B5C00038B50B4B196800220C460CB9204638BD23
:10B5D000A58A854205D022462468F6E723681360D1
:10B5E00003E0002AFAD10A681A6003F0A5FFEDE72C
:10B5F000783C002037B50D46019003F065FF0198B7
:10B6000004F0E6F9044618B115B12946FFF730FEFB
:10B6100003F05CFF002C0CBF0720002003B030BDFE
:10B6200030B5114B1B78012B93B004461AD134224C
:10B63000002105A81DF0A0FC07238DF814300FCCC5
:10B6400006AD0FC594E8030085E8030000216846B5
:10B65000FFF7ACFE029B13B1039905A8984705A814
:10B66000FFF7F6FD13B030BD543C00202DE9F0414A
:10B670000E46017892B00546002951D002290DD01E
:10B680003C2946D1744B1B78012B03D0002012B00B
:10B69000BDE8F0810020FFF72FFFF7E76F4B1A7826
:10B6A000002AF3D01B7C022B03D11D20FFF7EAFEFA
:10B6B000ECE701216846FFF779FE029D002DE5D0F9
:10B6C0003422002105A81DF057FC00238DF814300A
:10B6D0009DF81130039913F0080F14BF09230D23AF
:10B6E0004FF6FF740693ADF81C4005A8A847262323
:10B6F0008DF814309DF811300399ADF81C4013F00B
:10B70000080F14BF09230D23069305A8029B984731
:10B71000BCE7534B534A544840F65E211AF0FAFEF8
:10B72000408804F077F80028B0D02B79002B63D044
:10B73000012B67D0688804F0FFF8AB898383EB891D
:10B74000C3832B8A0384AB7C80F822302B79044698
:10B75000002B61D1414B9A684266DA6882665B7C55
:10B7600090F82820C3F3410342F0010280F828201A
:10B770008371FFF70BFE95F8058084F807802B4650
:10B78000012753F8062FA2609B88A3812B46A7733D
:10B7900053F8132FC4F80F209B88A4F8133005F139
:10B7A00019060023062231460DF115000593CDF848
:10B7B00017301DF0ABFB002843D1B8450ED1637B99
:10B7C00003F0C003402B09D1234653F8072FC4F8D8
:10B7D00015209A889B79A4F81920E37603F074FE6B
:10B7E000204604F001F903F071FE2B796888012BE3
:10B7F0002ED1FFF785FD49E7184B1B78022B99D016
:10B80000052044E7002EFBD1134B1A78012AF7D10B
:10B810005B781B07F4D58DE70F4A310102EB061662
:10B82000B3684366F36883667378C3F30103837177
:10B83000535A23F4875323F01F03535203F07CFE23
:10B8400099E767753368C4F81630B3886383C5E732
:10B85000FFF764FD1AE700BF683C0020543C00205D
:10B860003E9D040043A10400E0A0040030B58FB069
:10B87000044634220D4601A800211DF07DFB002363
:10B8800001A88DF804300295ADF80C40FFF7E0FCFC
:10B89000214601A8FFF7BFFD262301A88DF804303B
:10B8A0000295ADF80C40FFF7D3FC214601A8FFF745
:10B8B000B2FD40F64802FB21204604F0B0FE0FB076
:10B8C00030BD000038B5044603F0FEFD608804F08A
:10B8D0007FF8054603F0FAFDDDB195F82830DB0767
:10B8E00008D5201D09F018FE68626088BDE8384060
:10B8F000FFF706BD63781BB9201D09F00DFE6862D5
:10B9000061786088FFF7B2FF6288024B012143F83B
:10B91000221038BDB482002038B5044603F0D4FDAF
:10B92000B4F8010004F054F8054603F0CFFDE378C5
:10B9300085F85C306279237943EA0223A5F85E300A
:10B94000A379E27943EA0223A5F8603095F828301C
:10B95000DB0705D4B4F80100BDE83840FFF7DEBCD2
:10B96000217829B9B4F80100BDE83840FFF77EBF5F
:10B9700038BD30B58FB004460D463422002101A8F1
:10B980001DF0FAFA0523214601A88DF80430ADF820
:10B9900010400295FFF73FFD0FB030BD70B58EB07F
:10B9A000458804463422002101A81DF0E5FA12233F
:10B9B0008DF804306378029323798DF80E30AEB29F
:10B9C00063798DF80F3001A8ADF80C50FFF740FCFB
:10B9D000314601A8FFF71FFD0EB070BD30B58FB026
:10B9E000B0F8015004463422002101A81DF0C4FA29
:10B9F00022238DF80430B4F80300ADF80A00B4F83F
:10BA00000710ADF80E10B4F80520ADF80C20B4F80E
:10BA100009300B4CADF8103024F81500094820F817
:10BA20001510094921F81520084A01A822F81530F7
:10BA3000FFF70EFC294601A8FFF7EDFC0FB030BD63
:10BA4000AC820020C4820020A4820020CC8200208E
:10BA5000F8B52C4D2B786BB16B78DB070AD56C6889
:10BA600018F0FAFA241A002C0BDC2B78012B26D0C4
:10BA7000022B02D06FF0004403E0FFF75DFCC8B179
:10BA80006624214F03F020FD18F0E6FA3A686FF0C3
:10BA900000454FF6FF71DAB92DB303F017FDAC4244
:10BAA000A8BF2C46FFF750FDA04228DCBDE8F840B7
:10BAB000FFF74ABD6B7860F300036B70DAE7002193
:10BAC0000846FFF745FC0028DAD1FFF7C1FCD1E7B3
:10BAD00013691B1A23EAE373AB42B8BF918A126859
