:020000022000DC
:1060000000000420ED6404002D6504006D6A0400A6
:1060100031650400336504003565040000000000AC
:1060200000000000000000000000000009820400E1
:106030003965040000000000298204003D65040069
:1060400059670400E96A03003F6504003F650400E6
:106050003F6504003F650400CD3404003F65040043
:106060003F6504003F6504003F650400016B0300C9
:106070003F650400F56A03003F6504003F650400C6
:106080003F650400193804003F6504003F650400C3
:106090003F6504003F6504003F6504003F65040060
:1060A0003F6504003F6504003F6504003F65040050
:1060B0003F6504003F650400000000000000000090
:1060C0003F6504003F6504003F6504003F65040030
:1060D0003F6504003F6504003F6504009133040000
:1060E0003F6504003F6504003F65040000000000B8
:1060F000000000003F650400000000003F65040050
:10610000000000000000000000000000000000008F
:10611000000000000000000000000000000000007F
:10612000000000000000000000000000000000006F
:10613000000000000000000000000000000000005F
:10614000000000000000000000000000000000004F
:10615000000000000000000000000000000000003F
:10616000000000000000000000000000000000002F
:10617000000000000000000000000000000000001F
:10618000000000000000000000000000000000000F
:1061900000000000000000000000000000000000FF
:1061A00000000000000000000000000000000000EF
:1061B00000000000000000000000000000000000DF
:1061C00000000000000000000000000000000000CF
:1061D00000000000000000000000000000000000BF
:1061E00000000000000000000000000000000000AF
:1061F000000000000000000000000000000000009F
:1062000010B5054C237833B9044B13B10448AFF3F0
:1062100000800123237010BDD03600200000000054
:10622000C4E6040008B5034B1BB103490348AFF3B0
:10623000008008BD00000000D4360020C4E6040041
:10624000A3F5803A704700BF174B002B08BF134BD4
:106250009D46FFF7F5FF00218B460F461348144A71
:10626000121A23F06BF90E4B002B00D098470D4B00
:10627000002B00D098470020002104000D000D489D
:10628000002802D00C48AFF3008023F0EBF8200088
:10629000290020F0EBF823F0D1F800BF000008003F
:1062A000000000000000000000000420D0360020A4
:1062B00048900020000000000000000008B5012107
:1062C0000F2020F0A1FD00210F2020F0DBFD012197
:1062D0000D2020F099FDBDE8084001210D2020F09F
:1062E000D1BD0000024A136801331360704700BF3C
:1062F0005837002070477047704710B5044620F0AB
:10630000F1F8204610BD10B5044620F0EBF8204609
:1063100010BD10B5044620F0E5F8204610BD00F190
:10632000080373B50360044608460D4623F02DFBB1
:106330000F2805EB0006019007D9002201A920468D
:1063400022F0F0F8019B2060A360206832462946C5
:1063500022F01BF9019B2268636000212046D15482
:1063600002B070BD13B504460846019123F00DFB41
:10637000019982B204F11C0002B0BDE8104001F0A6
:1063800070BB000008B50121682020F03DFD01210F
:106390006A2020F039FD01216D2020F035FD01211A
:1063A0006E2020F031FD0121062020F02DFD00217E
:1063B000682020F067FD00216A2020F063FD0021A5
:1063C0006D2020F05FFD00216E2020F05BFD00219C
:1063D000062020F057FDBDE80840024902481BF0A6
:1063E00013B800BFEC9C040030640020431E012B56
:1063F000F7B504460D460AD9404941481AF0F4FF62
:106400003F480A2221461BF069F803B0F0BD3D4920
:106410003B481AF0E9FF0A22214639481BF05CF894
:10642000394937481AF0E0FF384B39493448002DD4
:1064300008BF19461AF0E8FF012C4FF006004FF094
:1064400001010BBF68276D276A266E2620F01AFD12
:106450000A201DF071F9002D3FD00021384620F0B0
:1064600011FD0121304620F00DFD32201DF064F9B0
:106470000021384620F006FD0021304620F002FDC4
:106480000021062020F0FEFC012C224B2BD1224EB5
:106490001868357098B101F061FE80B11F4D286811
:1064A00068B133788DF807300DF1070101221C30F7
:1064B00001F0D7FA28684FF6FF7101F0BBFB1849CD
:1064C0000F481AF091FF21460A220D481BF004F8EC
:1064D00014490B481AF098FF97E70121384620F03D
:1064E000D1FC2946BEE7104E186835700028E6D06A
:1064F00001F034FE0028E2D00C4DD0E72E9D0400C0
:1065000030640020459D0400549D0400289D040033
:10651000239D040054370020643700206837002092
:106520004D9D04005A9D04006C37002070370020F8
:10653000012810B5044607D10B4B1978BDE810406F
:1065400081F00101FFF752BF022801D1074BF4E7A8
:10655000074908481AF048FF21460648BDE81040A0
:106560000A221AF0BBBF00BF643700206C3700203E
:106570006E9D0400306400200021042020F044BC03
:1065800008B5042020F03AFB22F056F90CA3D3E919
:10659000002322F0E5FA0CA3D3E9002322F0B6F998
:1065A00022F0ACFC22F05AF909A3D3E9002322F02F
:1065B000ADF922F0A3FC00EE100A08BDAFF3008095
:1065C0000000000000F88F406666666666660A4056
:1065D000EE7C3F355EBA024038B510EE100A2DED64
:1065E000028BB0EE408A22F039F915A3D3E90023DB
:1065F00004460D4622F010FCE0B9F0EE087AB4EE45
:10660000E78AF1EE10FA12D90FA3D3E9002320464E
:10661000294621F0C3FF084B002222F077F9074BEF
:106620004FF0333222F09CFA22F048FCC0B2BDECAD
:10663000028B38BD6420FAE7000059403333F33F42
:10664000666666666666104033333333333307401D
:10665000014837211AF052BB00370020002238B51C
:1066600005460C46064811461AF0F6FB044885ED2F
:10667000000A00211AF090FC84ED000A38BD00BF2A
:106680000037002008B50221112020F0BDFB0221B7
:10669000142020F0B9FBBDE808400221162020F0AC
:1066A000B3BB000038B51DF03FF80446112020F0C0
:1066B0000DFC60B90D4D2B68E31AC82B07D90C4BA4
:1066C0001978012081F00101FFF790FE2C60142061
:1066D00020F0FCFB40B9074D2B68E31AC82B03D907
:1066E0000220FFF725FF2C6038BD00BF2C370020AB
:1066F000643700203037002008B50021182020F032
:1067000083FBBDE808400249042218201CF078BE33
:10671000E562020001210F2020F076BB38B5104B56
:10672000186840B101F01AFD28B1BDE838401921C0
:106730000F2020F017BB0B4C1CF0F6FF2268821ACA
:10674000B2F57A7F05460AD3074B197881F001012B
:10675000197001B119210F2020F004FB256038BD0C
:1067600054370020383700203C37002000210B2010
:1067700020F04ABB08B50B2020F0A8FB003818BF5A
:10678000012008BDF0B52DED048B524D87B02B686C
:106790008DF80700F0EE408AB0EE608A002B00F022
:1067A00095801CF0C1FF4C4B4C4E1C68041BB4F58B
:1067B0007A7F28BF1860306801220DF107011C3074
:1067C00001F04FF9286801F0C9FC38B1B4F57A7FBF
:1067D00004D330684FF6FF7101F02CFA9FED409A18
:1067E000404E68EE898A3068FDEEE88A022218EE93
:1067F000903A04A91C30ADF8103001F032F9286845
:1068000001F0ACFC38B1B4F57A7F04D330684FF6B0
:10681000FF7101F00FFA28EE098A334EBCEEC88AE8
:10682000306818EE103A02220DF112011C30ADF85A
:10683000123001F016F9286801F090FC38B1B4F577
:106840007A7F04D330684FF6FF7101F0F3F9274ED9
:10685000274B30681B680593042205A91C3001F002
:1068600000F9286801F07AFC38B1B4F57A7F04D3D6
:1068700030684FF6FF7101F0DDF91E4B1E4F1B789B
:1068800038688DF80E301D4B1D4E1B788DF80F307B
:1068900001220DF10E011C3001F0E3F830680122F5
:1068A0000DF10F011C3001F0DCF8286801F056FCF6
:1068B00060B1B4F57A7F09D34FF6FF71386801F003
:1068C000B9F930684FF6FF7101F0B4F907B0BDECCB
:1068D000048BF0BD5437002028370020F03600200C
:1068E0000000C84260370020243700201C370020F9
:1068F0005837002064370020683700206C370020AC
:106900007037002010B5094C094920461AF07CFD6B
:10691000084920461AF078FD074920461AF074FD10
:1069200020460649BDE810401AF06EBD30640020D4
:10693000909D0400A89D0400DF9D0400169E0400A5
:1069400038B5084B1D785DB9074C206840B11EF082
:10695000FAFB256005490648BDE838401AF054BDE9
:1069600038BD00BF4C370020403700204A9E04004D
:106970003064002010B50446006808B11FF0B2FD75
:10698000204610BD2DE9F0412DED028B90B001A9FC
:106990006846FFF763FEFFF7F3FDB0EE408AFFF7AE
:1069A0001BFE894D8046FFF77DFEFFF7B7FE1CF00A
:1069B000BBFE2B6841F28732C31A934204464DD97D
:1069C000824983481AF010FD18EE100A21F046FFA4
:1069D00041EC100B02217E481AF04CFE7D497C48A8
:1069E0001AF002FD0A22414679481AF075FD7A49EB
:1069F00077481AF009FD794975481AF0F5FC0098B6
:106A000021F02CFF41EC100B022171481AF035FEE9
:106A100073496F481AF0E8FC019821F01FFF41EC20
:106A2000100B02216A481AF028FE6E4968481AF0D5
:106A3000DBFC6D4B664819680A221AF059FD6B4958
:106A400063481AF0D1FCFFF795FE694A69490028AE
:106A500018BF11465E481AF0D7FC2C60664F3B68A1
:106A6000002B00F09C8065495948654E1AF0BCFC2B
:106A7000386801F073FB0A22014655481AF02EFDD2
:106A80003378002B78D01CF04FFE5E4B1B68984289
:106A900072D35D494E481AF0B7FC01F07DF900F061
:106AA0001EFEC8201CF048FE01F076F920210546A4
:106AB00000F011FEA021284600F00FFE53490AA85D
:106AC000FFF72DFC0AA9284600F044FE0AA821F091
:106AD0004BFD00244D4904940AA8CDE90244FFF778
:106AE0001EFC01220AA902A800F0D3FB0AA821F08B
:106AF0003BFD47490AA8FFF712FC0AA905A802F0C6
:106B00008DF805A902A800F031FC0AA821F02CFD9F
:106B100002A9284600F09BFE3C4907940AA8CDE94B
:106B20000544FFF7FCFB01220AA905A800F0B1FB10
:106B30000AA821F019FD05A9284600F0B1FE20465B
:106B400001F03AF93349044621481AF04DFC324924
:106B5000324B1F48002C08BF19461AF055FC1CB1D7
:106B60002F491B481AF050FC002305A83370FFF78B
:106B700001FF02A8FFF7FEFE386801F0EFFA70B9D6
:106B8000337863B901F008F900F0B2FD044630B97A
:106B900024490F481AF038FC204601F00DF9DDEDCC
:106BA000010A9DED000A4046B0EE481AFFF7EAFDE3
:106BB000FFF7C6FE4FF4FA701CF0BEFD10B0BDEC3E
:106BC000028BBDE8F08100BF34370020889E0400AE
:106BD00030640020929E0400979E04009A9E040058
:106BE000A19E0400A79E040058370020B59E040013
:106BF0006A9E0400749E040054370020BB9E04006B
:106C00005C370020EC360020D39E0400FC9E04007C
:106C1000039F0400089F0400B0D90400819E040073
:106C2000259F04005B9F04002DE9F04F93B0B84905
:106C3000B84CB94FB94EDFF88493DFF88483DFF89E
:106C400084B3DFF884A30CA8FFF769FB0CA801F05C
:106C500065F90CA821F088FC0021082001F00EF94C
:106C600001F07EF80546206004201FF037FCAC4B95
:106C7000036001460122284601F0E4FAA949206890
:106C8000A94D01F06CFBA94BA949186012224FF4E1
:106C9000007301F0AAFFA74BA7491860206801F014
:106CA0005EFBA64938604FF40073122201F09DFF8D
:106CB000A34BA449186012224FF40073386801F006
:106CC00094FFA14BA1491860206801F048FBA04A3D
:106CD000A04910604FF40073122201F086FF9E4B12
:106CE0009E491860206801F03AFB9D4930604FF4DE
:106CF00000731A2201F079FF4FF400731A229949A8
:106D0000C9F80000306801F070FF9749C8F800002A
:106D1000206801F024FB954928604FF4007302229B
:106D200001F063FF4FF4007302229149CBF8000099
:106D3000286801F05AFF8F49CAF8000020688E4C7D
:106D400001F00DFB8D4920604FF40073082201F023
:106D50004CFF8B490C2208604FF40073894920686E
:106D600001F043FF884B6A491860DBF80000FFF729
:106D7000F9FA8649DAF80000FFF7F4FA844AD9F8FC
:106D8000000012788DF80E20824A12788DF80F20BC
:106D90000DF10E0101221C3000F063FED8F8000056
:106DA00001220DF10F011C3000F05BFE04201FF0EA
:106DB00095FB794A026001460190D9F8000000F085
:106DC00043FF0199D8F8000000F03EFF04201FF0B7
:106DD00085FB724A0260014601906948006800F034
:106DE00033FF694B0199186800F02EFF4F4B18686C
:106DF00001F05CFD386801F059FD554A106801F05A
:106E000055FD306801F052FD286801F04FFD206803
:106E100001F04CFD00F0C0FF4249044600F085FC43
:106E20004549204600F081FC4C49204600F07DFC9D
:106E30005049204600F079FC2046A02100F04BFC90
:106E40002046F02100F049FC31490CA8FFF767FA11
:106E50000CA9204600F07EFC0CA821F085FB002543
:106E60002B4906950CA8CDE90455FFF758FA0122E5
:106E70000CA904A800F00DFA0CA821F075FB294913
:106E80000CA8FFF74CFA0CA907A801F0C7FE07A948
:106E900004A800F06BFA0CA821F066FB294604A8B0
:106EA00000F098FB04A9204600F0D1FC1849099590
:106EB0000CA8CDE90755FFF732FA01220CA907A863
:106EC00000F0E7F90CA821F04FFB07A9204600F0DD
:106ED000E7FC284600F070FF3149044631481AF0BB
:106EE00083FA3149314B2F48AC4208BF19461AF09A
:106EF0008BFA002C6AD02E492A481AF085FA2D49BF
:106F000028481AF081FA2C4926481AF07DFA5DE0EB
:106F1000FC9E0400543700201437002074370020F2
:106F20004CA10400039F0400FC360020F43600202E
:106F30008F9F0400F0360020949F0400999F040066
:106F4000603700209E9F040024370020A39F040088
:106F500020370020C89F04001C370020ED9F04004C
:106F600012A0040037A004005CA0040061A004008B
:106F700066A00400BA9D040050370020F19D040073
:106F800044370020259E0400483700206BA00400F1
:106F9000643700206C37002080A10400A0A1040009
:106FA00071A0040030640020B0D90400819E040068
:106FB0009AA00400B5A00400FBA0040068370020DC
:106FC00070370020F83600201837002007A8FFF798
:106FD000D1FC04A8FFF7CEFC13B0BDE8F08F00BFD2
:106FE00008B5FFF7CFF9FFF7C7FAFFF731FBFFF757
:106FF00049FBFFF781FBFFF78DFBFFF7B7FBFFF7BF
:1070000013FEFFF77FFCBDE8084002484FF4E13172
:107010001AF020BC30640020024806231622082102
:1070200019F05CBE0037002008B11FF05BBA704752
:107030002DE9F047194C1A4BA2EB010806464FEA1E
:10704000A80044439C428946924602D9154821F043
:107050005EFA1CB140461FF041FA044604EB0803F7
:107060003460B3604FF0000C09EB0C05AA4508D062
:107070000FCD04EB0C070FC72B683B600CF1140C11
:10708000F2E7094B4FEA980803FB08F323F040436B
:10709000142000FB03447460BDE8F087CDCCCCCC59
:1070A00066666606B8A10400CDCCCC0C10B5D0E95C
:1070B00000240020A41AA04207D213185B788B4248
:1070C00005D0135C01331844F5E74FF0FF3010BDD5
:1070D000091A08B5531A29B10A460146184622F082
:1070E00013FA0346184608BD10B504461046D4E905
:1070F00000236FF000449B1AE21A8A4201D221F069
:1071000006FA994238BF1946C91805D20029ACBF02
:1071100008466FF0004010BD2046FCE710B50C1A81
:10712000134605D001462246184622F0EDF90346E3
:10713000181910BD10B50C1A134605D00146224689
:10714000184622F0E1F90346181910BD70B5D1E9CF
:107150000035ED1A00239D42C0E9003304460E4677
:10716000836011D001DA21F0CCF928461FF0B6F97E
:1071700002461544C4E90022D6E90001A560FFF7E4
:10718000D9FF6060204670BD2A46F2E710B504467C
:10719000FFF7DCFF204610BD9A422DE9F84F044668
:1071A0000D46174699461ED09E1AD0E90183A3EBDF
:1071B0000803B3422FD3A8EB010A564515D2A8EB1A
:1071C000060A424641465046FFF7B4FF626816443D
:1071D0005146424666602846FFF77AFF2A464946EE
:1071E0003846FFF7A7FFBDE8F88F02EB0A0B4946C8
:1071F00042465846FFF79EFF6268A6EB0A063244F5
:10720000626041462846FFF795FF63685344636018
:107210002A465946E4E7134A3146FFF765FFB0F1C5
:1072200000081DD001DA21F06CF91FF057F906466D
:10723000324629462068FFF771FF49460246384624
:10724000FFF778FF616802462846FFF767FF0546AB
:107250002068FFF7E9FEC4E900654644A660C2E77E
:107260004646E5E7E9A1040037B5D0E900452C1B07
:1072700014441F2C0BD84FF000038DF800308B18EE
:107280000A462946FFF788FF012003B030BD0020E1
:10729000FBE730B54B6809681E2B044638BF104623
:1072A000DAB228BF00201D2A89B028BF1D22531C36
:1072B000002802F102058DF80030EDB214BF092359
:1072C00008230DF102008DF8013022F00FF92A4653
:1072D00069462046FFF7C8FF09B030BD2DE9F04FE1
:1072E000D3E9007A89B080460D4614464FEAD209A8
:1072F0000226574517D0384601F005FDA0420FD1B0
:1073000006EB090BBBF11E0F0CDC384601F0FDFC4F
:107310004A4601460DEB060022F0E8F85FFA8BF6CC
:107320001437E6E70025731E202C8DF8003011D0AD
:10733000802C14D0102C17D1002D14BF032302234E
:107340003246694640468DF80130FFF78DFF09B09F
:10735000BDE8F08F002D14BF05230423F0E7002DB6
:1073600014BF07230623EBE70020F0E7F0B506463D
:1073700089B008460C4601F0C6FC07460FCC03ADA9
:107380000FC523682B6008AA002303A96846CDE92E
:1073900000330293FFF74CFE6B463A46012130461C
:1073A000FFF79CFF0446009808B11FF09BF82046A9
:1073B00009B0F0BD2DE9F04706468AB008468A4676
:1073C00001F0A1FCC0F3C704042C38D0102C38D035
:1073D000022C4CD10327FFB239463046FFF766FE38
:1073E000421C08BF04F102083146054602A80CBF42
:1073F0005FFA88F8A046FFF7A9FEDDE902031B1A31
:1074000003EB0809FFF710FEB9F11F0F2FD8504604
:1074100001F07BFC6B1C014615D1631C22460DF16B
:107420000A008DF808308DF8097022F05FF84246A6
:1074300002A93046FFF718FF0AB0BDE8F08705271C
:10744000C9E70727C7E73368585D5F1901304FF078
:1074500000038DF800300A460B1939183046FFF743
:107460009BFE3368585D04445C550120E4E700202E
:10747000E2E7000093422DE9F84F04460D46174617
:1074800099461ED09E1AD0E90183A3EB0803B342AC
:107490002FD3A8EB010A564515D2A8EB060A42469F
:1074A00041465046FFF746FE626816445146424642
:1074B00066602846FFF70CFE2A4649463846FFF725
:1074C00039FEBDE8F88F02EB0A0B494642465846A2
:1074D000FFF730FE6268A6EB0A063244626041465E
:1074E0002846FFF727FE6368534463602A465946DF
:1074F000E4E7134A3146FFF7F7FDB0F100081DD06D
:1075000001DA20F0FEFF1EF0E9FF0646324629466A
:107510002068FFF703FE494602463846FFF70AFE99
:10752000616802462846FFF7F9FD05462068FFF727
:107530007BFDC4E900654644A660C2E74646E5E730
:10754000E9A1040070B588B00446FFF7AFFD431C05
:1075500005464FF0000338D0266807939842CDE9DE
:10756000053306EB000102DA194820F0D0FF2AD0DB
:1075700003911EF0B3FF039902465319304605925A
:107580000793FFF7D7FD22680690535D1D44013530
:107590004FF0000301462A448DF8003005A86368C7
:1075A000FFF768FFDDE905126568079B206806950F
:1075B000C4E90012A568A36005900795FFF734FDA4
:1075C000012008B070BD0246D7E71846F9E700BFB2
:1075D000B8A1040007B529B91921FFF7B3FF03B01B
:1075E0005DF804FB042241F60313ADF806100DEB21
:1075F0000201ADF80430FFF737FEF0E737B50C466F
:1076000001210546FFF752FD431C0DD03CB12B680C
:10761000184444F004048470012003B030BD0121FB
:107620002846FFF78FFFF8E74FF4817344F0040416
:10763000032201A92846ADF804308DF80640FFF773
:1076400013FEEAE700F1080373B5044603600D4634
:10765000E1B1084622F099F90F2805EB00060190E8
:1076600007D9002201A9204620F05CFF019B206081
:10767000A36020683246294620F087FF019B2268DC
:10768000636000212046D15402B070BD014820F053
:107690003BFF00BF01A2040038B50023C0E9063358
:1076A000C0E90033C0E90233C0E904330384C36294
:1076B00043636FF00043836390F83C300446022537
:1076C00023F0030380F83C3005762946FFF796FF48
:1076D0006576204638BD418370478183704708B581
:1076E00004F0E0FE30F002030CBF0120002008BDD2
:1076F00008B505F003F8003818BF012008BD38B5FB
:1077000004460D46FFF756FE38B194F83C306FF34F
:10771000410384F83C30012038BD294604F10C00B7
:10772000FFF748FE0028F0D1F6E710B58CB004460C
:1077300006A8FFF787FF06A901A801F06FFA01A9C3
:107740002046FFF7DCFF044606A820F00DFF204688
:107750000CB010BD38B590F83C30DB0704460D4640
:107760000CD501220C30FFF794FD38B194F83C3071
:107770006FF3410384F83C30012038BD01222946D3
:107780002046FFF786FD0028F0D1F6E707B58268AE
:1077900001910AB920F0BEFEC36801A9984703B061
:1077A0005DF804FB08B50378092B09D14068162859
:1077B00008D8084A01238340134203D000F06EFA30
:1077C000002008BDCB6A002BFAD001F12400FFF79E
:1077D000DDFFF5E7001848008142F7B504460D4685
:1077E0001FD0D1E9007102688368CE1B9B1AB34297
:1077F0001AD2002E01DA20F084FE304601911EF0EC
:107800006DFE0199024605463846FFF793FC206855
:1078100008B11EF067FE25603544A56023681E444C
:107820006660204603B0F0BD43689B1A9E4203D8B1
:107830003846FFF77FFCF1E7F9183846FFF77AFC86
:10784000D4E90002D5E90031101A1844F1E770B507
:1078500086B00D4604466846FFF798FC294603A803
:10786000009EFFF793FCDDE903313046C91A04F0AE
:1078700003FF064603A8FFF77DF86846FFF77AF88E
:1078800066B929462046FFF7A7FF94F83C3043F03D
:10789000020384F83C30012006B070BD0020FBE7F5
:1078A00070B586B00C4605466846FFF76FFC21466A
:1078B00003A8009EFFF76AFCDDE903313046C91AD0
:1078C00004F0FBFE064603A8FFF754F86846FFF7EE
:1078D00051F83EB9214605F10C00FFF77DFF01206C
:1078E00006B070BD0020FBE72DE9F0432C4B1F785C
:1078F00089B004460E46154627B90027384609B018
:10790000BDE8F08304F0FAFE0028F7D100F03EFA5B
:10791000074608B100F0D3FB94F83C309A071CD41A
:1079200021462046FFF793FF0028E6D094F83C302C
:10793000DB0712D504F10C0105A80391FFF726FC23
:10794000DDE9058905A8FFF715F8C14505D00399BC
:107950002046FFF7A5FF0028CFD0124BA663002ECC
:1079600093F8008008BF6FF000461DB128460FF065
:10797000A9FB05460C480D4B002F14BF07461F46B8
:10798000CDE9007404F1180332462946404604F05C
:1079900099FD30F002030CBF01270027AEE700BFBE
:1079A0009C37002091370020E5840200A577020073
:1079B00008B590F83C30826B6FF34103014680F8C4
:1079C0003C3022B9BDE808401146FFF78DBFC36ABD
:1079D00013B12430FFF7DAFE08BD70B50E46012161
:1079E0000446701815461DF0AAFBB5F5007F28BFA8
:1079F0004FF4007500232060A580E3802681204697
:107A000070BD10B50446006808B11DF09CFB20460F
:107A100010BD2DE9F041044688461746F2B1C588ED
:107A2000838815449D4219DC03890668ADB2AB42D8
:107A300005D23046691C1DF084FB258106466EB1D7
:107A40001BF0CAFEE0883A464146304421F04EFD24
:107A500000232660E58073551BF0C6FE2046BDE876
:107A6000F081F8B50368054600240F461646C48029
:107A70001C70FFF7CEFF28683246394621F028FDFA
:107A800020B9EB889B1B58425841F8BD2046FCE7C3
:107A90007047C36A0A46196810B48C6801461846D4
:107AA00023465DF8044B184770477047704710B580
:107AB00004461EF017FD204610BD70B504461C306C
:107AC0001D46FFF7CEFFE06A03682A462146DB68C1
:107AD000BDE870401847000070B5D0E90D560C4B5A
:107AE00003600446B54207D055F8040B0028F9D0CE
:107AF00003685B689847F5E7606B08B11EF0F2FC1D
:107B00002046044B40F81C3BFFF77BFF204670BD2E
:107B10004CA2040034A2040010B50446FFF7DCFFB9
:107B200020461EF0DFFC204610BD0000F8B50D46D3
:107B300004469C461746061D0FCD0FC62B683360C2
:107B400000252583A5766246142104F11C00FFF769
:107B500044FF064B2360064BE362069B2785C4E97E
:107B60000C35C4E90E552046F8BD00BF4CA20400F8
:107B700004340020008D7047016370472DE9FF47F2
:107B80001E46BDF830400746154688464FF6FF733F
:107B900000293ED0002A3CD09C420DD091B24046F4
:107BA00009F052FB0246F0B1398B2046002E39D045
:107BB00006F068FC044628E000F0E8F8014601A859
:107BC00000F030FCDDE9019A0024ADB2D14518D0B7
:107BD0002946404609F038FB024638B9019808B1F9
:107BE0001EF080FC002004B0BDE8F08739F8020BDD
:107BF000398B1EB106F046FC0446E7E706F090FC20
:107C0000FAE7019808B11EF06DFCB4FA84F040095F
:107C1000E9E79C42398B08D016B100222046C7E71D
:107C20003246204606F07CFCC4E7084607F0DAFC42
:107C30000120D8E707B50022009101231146FFF784
:107C40009DFF03B05DF804FB024B002908BF1946F5
:107C5000C162704704340020024A0349034820F0FF
:107C60004BBC00BF00340020917A02000434002095
:107C70007047704710B504461EF034FC204610BD16
:107C8000024A0349034820F037BC00BF00340020FB
:107C9000737C02000834002070470000024B1A7801
:107CA0000AB100221A7070479C37002010B50446B4
:107CB0001EF018FC204610BD08B50EF079F9BDE89D
:107CC00008400EF0FFBE084611460DF007BA00004E
:107CD000054B1B680A46196810B48C6801461846A3
:107CE00023465DF8044B18470C34002010B5134CA4
:107CF000207810BB0EF00FF8F8B901200EF00BF849
:107D00000246D0B9014609F03DFA10B10C4B0122F0
:107D10001A7001201CF024FD01232370094B1B78ED
:107D20005BB1094B186808B100F057F9074B1868A8
:107D300018B1BDE81040FFF73BBE10BD9C370020D6
:107D4000913700209037002098370020943700208A
:107D500010B50446006808B11EF0C4FB204610BDF3
:107D600038B5094C236863B920201EF0B7FB0546DF
:107D700000F08CF9256007F043FF01F0E1FE01F00F
:107D80006FFF206838BD00BFA0370020014B186886
:107D9000704700BFA037002038B5064C236833B9C0
:107DA00040201EF09BFB0546FFF776FC256020680F
:107DB00038BD00BF9437002007B50190FFF7ECFFF6
:107DC0000199002203B05DF804EBFFF78DBD08B503
:107DD000FFF7E2FFBDE80840FFF781BC70B504463D
:107DE00070B3194B03201E4653F8042B944228D13C
:107DF00020460FF0E3FB356858B195F8283043F082
:107E0000020385F8283028461321BDE870400FF0A2
:107E1000FBB9236953B195F8283043F0040385F882
:107E200028302846BDE870400FF0FDB92DB1284636
:107E30000FF096F928461EF055FB00233360012011
:107E400070BD0138CFD1FBE778370020F7B50A4F76
:107E50000646032557F8044B44B1214668460FF007
:107E6000EDF9314668460FF02EF910B9013DF1D118
:107E70002C46204603B0F0BD7837002008B501F04D
:107E800079FAB0FA80F0400908BD0000014B18688B
:107E9000704700BF1434002010B50C4604F024FFD6
:107EA00004B1206030F002030CBF0120002010BD9F
:107EB00030B5044687B00D461422002101A821F0F8
:107EC0003DFB0223208C8DF8043001A902950BF0B4
:107ED0009BFDB0FA80F0400907B030BD30B587B0E7
:107EE00004460D461422002101A821F027FB04239B
:107EF000208C8DF804300DEB03018DF808500BF049
:107F000083FDB0FA80F0400907B030BD08B50068C5
:107F100001F000FEB0FA80F0400908BD37B5154CFD
:107F20002278E2B901900EF025F8134B134A1A613A
:107F3000134A5A61134A9A621A89019822F46F62AD
:107F400022F00F0242F003021A810322DA721A733E
:107F5000FFF7DCFF0DF04EFD0B480EF07FFD0B4DE3
:107F60002B78012013B91CF0FBFBF9E7207003B05C
:107F700030BD00BF90370020403500209D7C0200BE
:107F8000ED7C0200D17C0200B97C02009C3700200D
:107F900008B5084A0849094820F0AEFA0848054AD9
:107FA00008490023C0E900338360BDE8084020F0A1
:107FB000A3BA00BF00340020997C020010340020D6
:107FC00084370020517D020070477047704710B51C
:107FD00004461EF087FA204610BD0146162251F8CD
:107FE0000C0B03681B691847024A0349034820F039
:107FF00083BA00BF00340020C97F0200183400207B
:1080000070477047704770470048704740E2010072
:108010007047704710B504461EF064FA204610BD44
:1080200008460121FFF75ABF00F1080373B5044663
:1080300003600D46E1B1084621F0A7FC0F2805EBCF
:108040000006019007D9002201A9204620F06AFA13
:10805000019B2060A36020683246294620F095FAF3
:10806000019B2268636000212046D15402B070BD9C
:10807000014820F049FA00BF01A2040010B52C22EB
:108080000446002121F05AFA204610BD027822F061
:108090000F020270054A42600022C0E90222C2615A
:1080A00002614FF0FF324261028370471C340020AE
:1080B0000378DA0744BF43F0020303707047037884
:1080C0002DE9F74FD907044645D407F02DF90028CC
:1080D00041D1D4E90259A9452ED02868837D0BB33C
:1080E0002B68D3E9067ABA4524D057F8043BD3E984
:1080F0000D6B5E45F7D0286800F016FE804657F8F5
:10810000040C043000F010FE01903068043000F0E0
:108110000BFE56F8043B019902461833404607F01F
:108120007DFCE6E700F000FE2968143107F068FCEA
:108130000028D5D00435CEE723789A0707D56FF30A
:10814000410323704FF6FF71012001F07BFD23787E
:1081500043F00103237003B0BDE8F08F10B500F1C8
:10816000140200231A304FF6FF71824205D032F814
:10817000024B8C42F9D00133F7E7D8B210BD2DE99C
:10818000F0478CB000AF14460646381D1D46FFF779
:1081900075FF391D304603F0F9FE2378032B4FD8C5
:1081A000DFE803F0022002206368DB8843B14FF66A
:1081B000FF739E4204D02B68391D9B682846984760
:1081C0001BF00AFB6A8CE96960680EF038F8044617
:1081D0001BF00AFB002C18BF112420463037BD4687
:1081E000BDE8F0876468B5F82090E6884E45E8461B
:1081F00002D90D24C546F0E709F10703DB08A8EB17
:10820000C3039D46216832466846EA4621F06EF96E
:10821000E46864B1E288B3189945EADB0AEB06002A
:10822000216821F063F9E3881E44B6B2F0E72B68B9
:108230003246D3F80C9051463B1D2846C847D9E733
:108240000E24CAE7037821B1416062F38203037010
:108250007047024A426061F38203F8E71C34002051
:1082600007B50191FFF798FD0199002203B05DF871
:1082700004EBFFF739BB00002DE9F84FD0E9009877
:1082800093466FF06043A8EB0902B3EBA20F0746D9
:108290008A464FEAA20402D11D4820F038F9012C89
:1082A000224638BF0122A418A1EB09052DD23CB10A
:1082B0009C4228BF1C46A0001EF010F9064600E0B4
:1082C0002646DBF800307351002D04DD2A4649466E
:1082D000304621F019F9A8EB0A080435B8F1000F6F
:1082E000354404DD42465146284621F0FFF8454416
:1082F000B9F1000F02D048461EF0F4F806EB8404F2
:10830000C7E90065BC60BDE8F88F1C46D3E700BF35
:10831000C4A2040010B50A46D0E90114A14204D059
:10832000126841F8042B416010BDFFF7A5FFFBE781
:1083300030B585B00446442001911EF0CFF8019974
:10834000054600F07BFA03A904F108000395FFF746
:10835000E1FF2046FFF7ACFE039805B030BD10B535
:108360008CB0044606A8FFF75FFE06A901A800F03E
:1083700055FC01A92046FFF7DBFF044606A820F0C4
:10838000F3F820460CB010BD2DE9F84FD0E9009865
:1083900093466FF04043A8EB0902B3EB620F074628
:1083A0008A464FEA620402D11D4820F0B0F8012C41
:1083B000224638BF0122A418A1EB09052DD23CB1F9
:1083C0009C4228BF1C4660001EF088F8064600E06C
:1083D0002646BBF800307353002D04DD2A4649467B
:1083E000304621F091F8A8EB0A080235B8F1000FE9
:1083F000354404DD42465146284621F077F845448D
:10840000B9F1000F02D048461EF06CF806EB4404A8
:10841000C7E90065BC60BDE8F88F1C46D3E700BF24
:10842000C4A20400F8B50023C0E900330446836009
:1084300001F1140601F11A054FF6FF77AE423246FC
:108440000FD036F8023BBB42F8D0D4E9011081428C
:1084500003D021F8023B6160F0E72046FFF794FF6C
:10846000ECE72046F8BD42680B4604318A4210B55D
:10847000044604D01846521A21F046F803466268B2
:10848000043A6260184610BDF8B50546FFF766FE6F
:1084900038BB2F46FFF79BFC07F0B2FB01F050FB07
:1084A00001F0DEFB57F8084FEB68A34215D02668B1
:1084B000B37D6BB1022B0ED1304600F0D8F93046B7
:1084C0001EF010F821463846FFF7CDFF0446EBE7D3
:1084D000304600F0EBF90434E6E72B786FF3000345
:1084E0002B70F8BD2DE9F04393B0054607A8019124
:1084F000FFF7C4FDFFF74AFC2B7801990646122BC3
:108500001BD8DFE813F013003D001A00E8001A0042
:108510001A001A001A001A00E300020135011A00BD
:10852000C1008000B2001B01F60026016B681A2B07
:1085300005D023B10020FFF73FFC00241CE0288970
:1085400007A903F023FD04460028F6D106F1140321
:1085500006F11A074FF6FF719F421A4606D010889F
:10856000884203F10203F7D12B89138070680368F6
:1085700007AA9B6831469847204613B0BDE8F083B0
:108580006868162806D8904A01238340134201D018
:10859000FFF784FB06F1140306F11A04A3421A46FE
:1085A00008D01088298D884203F10203F6D14FF6D6
:1085B000FF731380F36933B12A8D998C914204BF04
:1085C0004FF6FF729A843378990702D53046FFF749
:1085D0005BFF05F108070FCF07AC0FC40FCF0FC427
:1085E00097E8070084E807007068036807AADC685A
:1085F0006B683146A04733781A079ED50021304674
:10860000FFF72EFE99E7D0E90267B74295D056F8FA
:10861000043BD3E90648A045F7D02368EA881B8BC2
:108620009A4220D1A88807A903F0B0FC0028ECD119
:108630002068FFF79FFA079911F0010105D110F4A6
:10864000606F02D0A888FFF727FC21686A7AC86AA1
:108650000368C2F3C00CC2F34002D3F8149002EBDB
:108660004C0307AAC8470434D5E7A88807A903F034
:108670008DFC044600287FF460AF70682989036888
:1086800007AA1B69984777E7D0E90227002197429C
:108690000DD052F8043BD3E9063C9C45F7D053F883
:1086A000040B6E89048BA64208BF0146F5E700293A
:1086B0003FF443AF2B7B6A68DB0702D5002A3FF407
:1086C0003CAFC86A03681B69984736E72846FFF73E
:1086D00069F8044650E7288907A903F057FC0446C7
:1086E00000287FF42AAF706803685B6A07A998477F
:1086F00042E7A88807A903F049FC002861D10DF1E1
:1087000027000CF094FC012436E7288907A903F020
:108710003DFC04460028F6D17068036807A9DB69B0
:108720009847F16900293FF408AF8A8C2B899A4257
:108730007FF403AF28460EF09BFD1DE7A88807A92C
:1087400003F024FC04460028DDD1706803681B6A2E
:10875000CCE7288907A903F019FC04460028D2D1E8
:108760007068AA7A036807A99E6AEB7AB04703E7A4
:108770001422002102A820F0E1FE2B79032B11D155
:108780008DF80830FFF782FB104B0390984204D11C
:10879000706803685B6998470390A88902A90BF089
:1087A00033F9CAE6042B7FF4C8AEA88907A903F001
:1087B000EDFB0028A7D17068AA68036807A99B6928
:1087C00082E70224D8E600BF0018480040E201001A
:1087D000024A034903481FF08FBE00BF0034002047
:1087E000018002001C34002000F1080373B5044628
:1087F00003600D46E1B1084621F0C7F80F2805EBEC
:108800000006019007D9002201A920461FF08AFE28
:10881000019B2060A3602068324629461FF0B5FE08
:10882000019B2268636000212046D15402B070BDD4
:1088300001481FF069FE00BF01A2040070B50D469B
:10884000044606460FCD0FC62B6833600021C4E9ED
:108850000611A182A1752162202204F1240020F0DA
:108860006DFE204600F060FAA062204670BD036BEA
:1088700070B504463BB1D86808B11DF035FE206BD9
:1088800008B11DF031FED4E90656AE4207D055F8C6
:10889000040B0028F9D003685B689847F5E7A069E6
:1088A00008B11DF01FFE204670BD00002DE9F04FFD
:1088B000036B87B0044673B9236BABB9D4E90632B6
:1088C00000259A42194619D00968897E0433002987
:1088D000F7D10135F5E7FFF759FA03789B07EBD499
:1088E000012007B0BDE8F08FD86808B11DF0FCFD8D
:1088F000206B0028E2D01DF0F7FDDFE7002D00F02F
:108900009980544A6B1C93429ABF1C2058434FF0E5
:10891000FF301DF0E5FD06460346002D08DB184636
:108920001C22002120F00AFE03461C33013DF4E71F
:10893000E369A56901934FF000094FF01C0B019BFF
:10894000AB4276D02B689A7E002A70D1D3E90D31E4
:10895000904699421A4607D01268927E0433002A44
:10896000F7D108F10108F4E7B8F1000F46D008F19B
:108970000100B0F1006F34BF00014FF0FF301DF077
:10898000AFFD07460346B8F1000F09DB1846102279
:10899000002120F0D3FD0346103308F1FF38F2E741
:1089A0002B689A6BD3F8348002924FF0000A029B36
:1089B000434520D0D8F80000827E0592C2B94FEA24
:1089C0000A1107EB0A1304300491039300F0ACF989
:1089D0000499039B7850D8F80010059A098D1971F5
:1089E0005A711D4A9A60D8F80020DA600AF1010A2B
:1089F00008F10408DBE70BFB0963DF60286804303B
:108A000000F092F90BFB09F806EB0807124B46F849
:108A100008007B602B68BB602868FFF7ABF8002379
:108A2000BB742B68388218337B6109F10109043566
:108A300085E72663012304F8243F204607F03CF82D
:108A400030B9204607F010F8B0FA80F0400948E746
:108A5000002046E7244992047F8102002DE9F84373
:108A6000D0E9065889461646002445452F460FD0C2
:108A7000386849460430043500F058F90028F4D02D
:108A8000B44202D13868BDE8F8830134A4B2ECE7FF
:108A90000020F8E72DE9F84FD0E9009893466FF0F1
:108AA0006043A8EB0902B3EBA20F07468A464FEAE0
:108AB000A20402D11D481FF02AFD012C224638BF16
:108AC0000122A418A1EB09052DD23CB19C4228BF7C
:108AD0001C46A0001DF002FD064600E02646DBF81D
:108AE00000307351002D04DD2A464946304620F0FF
:108AF0000BFDA8EB0A080435B8F1000F354404DD7E
:108B000042465146284620F0F1FC4544B9F1000F99
:108B100002D048461DF0E6FC06EB8404C7E9006578
:108B2000BC60BDE8F88F1C46D3E700BFC4A20400B8
:108B300010B50A46D0E90114A14204D0126841F8E8
:108B4000042B416010BDFFF7A5FFFBE773B58B7EDB
:108B500001910446084673B1D4E90625002319465D
:108B60009542164607D03668B04202F10402F7D1AA
:108B700081760123F4E7D4E906259542114609D010
:108B80000968884202F10402F7D12146FEF7F4FF9A
:108B900002B070BD23B901A904F11800FFF7C8FFA6
:108BA00021460198FEF7E8FFFFF7F0F8FFF780FA9B
:108BB000EEE77FB5044640200391164602931DF070
:108BC0008DFC029B03990094B2B205460291FEF718
:108BD000ADFF029900222046FFF740FF20462946BC
:108BE000FFF7B4FF284604B070BD10B58EB0044640
:108BF00008A8CDE90032FFF7F7FD08A903A800F0A7
:108C00000DF8DDE9003203A92046FFF7D2FF044644
:108C100008A81FF0A9FC20460EB010BDF0B50D4607
:108C200087B014220021044620F088FC6B68042BD6
:108C300009D1102228682270002120F0CFFF608027
:108C4000204607B0F0BD082B08D1202328682370E8
:108C50001022002120F0C2FF6060F1E7102B0CD140
:108C60002B68621C03F1100153F8040B42F8040B4B
:108C70008B42F9D180232370E2E7242B41D128686D
:108C8000102201A920F024FF05460198102201A915
:108C9000013020F01DFF0F042B4647EA1047050462
:108CA0000198002675194FF0100201A900F101008A
:108CB00043EB070720F00CFF281847EB0101CDE933
:108CC00002010198102201A9013020F001FF0546A0
:108CD000019810223146013020F0FAFE2A043018A3
:108CE00042EB010102ABCDE9040103CB04ABC4F8B4
:108CF0000900C4F80D1003CBC4F80100C4F8051036
:108D0000B8E70023B7E7007870470378202B05D039
:108D1000802B05D0102B05D10230704704307047EE
:108D20000130704700207047704700002DE9FF4177
:108D3000057806460C46002D60D00A78002A5DD0E2
:108D4000AA4234D02E4B6F4603F1100EB846186875
:108D50005968BC46ACE80300083373456746F6D152
:108D6000802D15D12046FFF7D0FF102A01460CBFF9
:108D70000222042203A820F0B9FB3046FFF7C5FF0A
:108D80001022414620F0A4FBB0FA80F040091BE01D
:108D9000802A33D13046FFF7B8FF102D01460CBFB3
:108DA0000222042203A820F0A1FB2046E6E7102AB5
:108DB0000DD1FFF7AAFF02460846FFF7A6FF13886A
:108DC00000881B1A5842584104B0BDE8F081202A9F
:108DD00008D1FFF79AFF02460846FFF796FF13688F
:108DE0000068EEE7802A09D1FFF78FFF05460846A5
:108DF000FFF78BFF102201462846C3E70020E3E778
:108E000014A3040010B5C0E90012836004461BF0EF
:108E100005FEE060204610BD70471FB54A1C08469D
:108E20001AD10291002403AB00944FF00042214676
:108E300020461BF0D9FE039BA34211DB029B00934B
:108E40004FF000422346214620461BF0CDFE431E34
:108E50005842584104B010BD02A90EF012F9E1E7E2
:108E60000120F7E707B54160C06830B100210091EB
:108E700001234FF000421BF00DFF03B05DF804FB2F
:108E8000064BD3F850253AB122F00801042903D14A
:108E9000D3F850159142FAE7704700BF0010004028
:108EA000F0B5283922B11F4B1F4A9B7AD35CC91AEF
:108EB0001E4DD5F84035D5F804259B1A23F07F4385
:108EC00011F11D0F03F1FF33B5BF841E00F1FF3414
:108ED0003D271E27022B24F07F461FD9B31A13F417
:108EE000000023F07F4219D1022A17D9104B01222A
:108EF00039441A60C3F83415C3F834014FF4803391
:108F0000C5F84001C5F84065C5F84433094B4FF03A
:108F10000042C3F80425034B1C63F0BD4FF0FF3043
:108F2000FBE700BFA4370020F4A4040000B0004019
:108F30000C80004000F00140314A3249D079324B78
:108F4000F0B13248C3F8040503F56043C3F80C05DB
:108F5000C3F810152E49C3F814152E49C3F804158B
:108F60002D49C3F808150021C3F80012C3F80811F1
:108F7000C3F804110121196003F580334FF000712B
:108F8000C3F80415137AA3B3244B0321C3F80015C7
:108F90002349C3F808152349C3F814150021C3F861
:108FA0000011C3F80411C3F808111F4B4FF48011CE
:108FB000C3F808154FF40001C3F808150123D37056
:108FC0000021114B917151730822C3F8602540F2C2
:108FD0005312C3F80411C3F81411C3F82811C3F8CD
:108FE0001C11C3F83011C3F800221222C3F8042365
:108FF0007047D379002BD8D10849C1F80035D4E7A0
:10900000A4370020E338002000100040DC370020A7
:10901000E83A002001000001C882002000F0004072
:10902000948D0020B437002000F001400A4A43F23A
:10903000FF43C2F8083301210023C2F80032116156
:10904000064A0749C2F80815064A0221C2F88011EB
:10905000054AD370704700BF0010004000F0014087
:10906000F000B08200E100E0A437002010B51AF053
:10907000B3FB114B012200241A60C3F83425C3F856
:1090800034410CF0CDFF0D4B033020F07F42C3F88C
:109090004041C3F840254FF48032C3F8442303F520
:1090A000A0334FF00042C3F80425054B18631AF0B3
:1090B0009BFB204610BD00BF0C80004000B000406C
:1090C000A437002083072DE9F04106D0234B244A22
:1090D00024484FF4F9711DF0ADFC8B684D79B3F85D
:1090E00000E00A8AAEEB0505043D0F46AA4294460D
:1090F00028BFAC462CF0030C3E68A7F806C0A2EBD4
:109100000C02E046444603E050F8083046F80830C8
:10911000B8F10408F8D500193619032A03D8A5EBCD
:109120000C05AA4202D9FF687546DFE7FB881344A5
:10913000FB8001E0835CB354013AFBD50A4C01F19A
:10914000180304F11005224603CAAA4218605960A8
:10915000144603F10803F6D1BDE8F08124A304000E
:109160006FA404003EA30400BC37002010B5154BCB
:1091700001289C7A144B05BF144AD3F84835D3F81C
:109180004035525C12490CBF993328331A44114BB5
:109190001B5D114C28331A440B4BC3F84C2500229D
:1091A000C3F84C2130200122C1F804052260D3F815
:1091B0004445D3F84C359C4282BF084BC1F80805A2
:1091C0001A6010BDA437002000800040F8A40400FD
:1091D00000F00140ECA40400448000401010004066
:1091E0002DE9F843334F344D344840F201137B816D
:1091F0002823BB70324B0024012643F2FF423E730A
:109200004FF00308C3F8FC4FC3F8FC6FC3F8082302
:109210002C4AC3F81085C3F814252B4AC3F8182527
:10922000D3F850263243C3F8502640F20312C3F855
:109230002C45C3F83065C3F8342540F25B62C3F8AF
:1092400038254FF0FF399622C3F844252146C5F84A
:1092500008934FF48672C5F80062C5F8084120F003
:109260006DF91A4B3C61C5F80835194BC5F80893E0
:109270000422C5F80041C5F80441C5F80841C5F805
:109280000445144D1E60DE60C3F80485C3F8004534
:10929000C3F80C2500F098FB0F4985F801433046D0
:1092A0000DF034FC02232B603B7803B93E700020A4
:1092B000BDE8F883A437002000F00040E83A002021
:1092C0000010004008011000FF000302948D0020F0
:1092D0000480004000E100E029940200094B00F105
:1092E000100250F8041B43F8041B9042F9D1064BBE
:1092F0000122DA71054B0022C3F800250222C3F8CF
:1093000000257047C8820020A437002000F00040EC
:10931000034A0368C2F819304368C2F81D30704729
:10932000C8820020024B186159611A76704700BF4D
:10933000C8820020094B4FF00072C3F80825A3F53E
:109340007F43F83B01221A60054A0023C2F8083126
:10935000C2F80035034AD371704700BF00F00140E6
:1093600000F00040A4370020014BC3E90A10704709
:10937000A437002010B540B200F04CFB044600F0CA
:1093800043FB024B5C70002010BD00BFA4370020DF
:1093900008B540B200F03EFB08BD0000272810B51C
:1093A00006D9104B104A114840F642011DF042FB0D
:1093B0000F4B0C02C3F81C45D3F8244524F0FF04DE
:1093C00044EA1164C3F824450A4C6161C3F83C25A2
:1093D000094AA070125CC3F80825C3F854050020A0
:1093E00010BD00BF9BA30400B4A404003EA304006E
:1093F00000100040A4370020C4A40400074A08B5A8
:1094000001231360D360064B4FF48032C3F8482326
:10941000FFF70CFE034B00225A7108BD0480004088
:1094200000B00040A4370020F8B5B04BB04CD3F8E2
:10943000047317F0020F47D0D3F80421002A43D059
:1094400000250222C3F80451C3F8082303F5F033C2
:109450003022C3F808250FF007FD226BA378A54939
:109460002262A3760123E5766377D1F84455A37A87
:10947000A149A377CB5C208328339D4238BF1E359A
:10948000A5EB030538BF02F1FF32284638BF22633F
:109490000CF0CAFD06460CF0CFFD2D1A1F2D206AD8
:1094A000924B04BF013600253044C4E90805D3F8C7
:1094B0005025D3F82811F9B9002AF8D143F2FF4119
:1094C000C3F80813C3F80022FB063FD5874BD3F837
:1094D0001021002A3AD0D3F80C21E178002A38D1A3
:1094E000012902D1A279002A33D0844B844A40F268
:1094F000D55184481DF09EFA237AF3B1824AD3787D
:1095000059061AD503F00F03072B0CBF02230023C3
:10951000D91C0A447D49C1F81025A1F560410022FB
:10952000C1F828217A4A4FF40000C2F80405627B92
:10953000083302EBC303C1F86035764AA178764858
:109540000FF022FC002878DB0123A3710023637154
:10955000F8BD002210200129C3F80C21C3F8102106
:10956000C3F8080306D002296DD06C4B644A4FF44F
:10957000BE61BEE7A079002862D0654A4FF40011B1
:10958000C2F80815D3F81C2122B9654B654A40F290
:10959000BB41AEE7D3F84825D3F83031524213F03F
:1095A000FF0F22771BD0238B43F080022283E279C6
:1095B000AAB1564AD2F804110029FBD052490979C0
:1095C00029B1D2F8002412B943F0A00323834F4BF2
:1095D000D3F808311BB1238B23F080032383454A42
:1095E000A17F5148D2F84835415C5048504E6E3307
:1095F0005B1AA17A415C46485B1A0021C2F84035EB
:109600004FF48015C2F840110121C0F804553160B3
:10961000D2F84C65B34205D2D2F8403113B9C0F844
:109620000855617138483B4903794371C37800F8A4
:10963000043F0FF035FC002888DAFFF7DFFE85E7EE
:109640000FF084FB82E7E379A77A2BB12F4BD3F895
:10965000081109B1C3F80821E36A25790BB1A06AA2
:109660009847022D234E17D1FFF766FC002239469A
:109670000120FFF77BFD2F4BD6F84825DB5D6C32D0
:109680001344C6F840350023C6F84031204B4FF450
:109690000012C3F8042559E7032D57D1254BDD5D92
:1096A00094F83630002B47D0D6F84835A08E1844B1
:1096B000A37A1E4AD35C283DED1A0E4B28440022A3
:1096C000C3F84005C3F840211948114A4FF48011EE
:1096D0000125C2F804150560D3F84C05D3F84035D0
:1096E00098427FF633AFC2F808152FE7001000400C
:1096F000A437002000800040ECA40400B4A30400C0
:10970000A8A404003EA30400E038002000F00040BC
:1097100000F00140BC370020E338002006A504001B
:109720002AA4040095A40400F0A40400F4A40400F6
:109730004C800040F8A404003846D6F8446514F084
:1097400063FDA38E33442B44181AB1E70B4A01235F
:10975000136033610A4B3022C3F808254FF480129E
:10976000C3F808254FF00042C3F80825002D3FF448
:10977000EDAE044B044A40F28A41BAE60480004050
:1097800000F0014049A4040082A4040010B5094C73
:109790004FF40013C4F808350122FFF781FB18B11C
:1097A000FFF72CFE052010BD4FF48013C4F80435DC
:1097B000F9E700BF00F0014010B5FFF761FB0E4A6A
:1097C000D2F85015134649B1D2F8502502F00702DD
:1097D000022A03D0FFF712FE012010BD002443F23D
:1097E000FF42C3F80823C3F80C41C3F81041FFF748
:1097F000A3FB2046F1E700BF0010004038B50C4D38
:109800004FF48013C5F808350022FFF749FB68B113
:10981000FFF72CFC01244FF40013C5F80435FFF7C3
:10982000CBFF10B9002C18BF062038BD0446F2E764
:1098300000F001400B4A08B501231360D3600A4BC6
:109840004FF48032C3F84823FFF7F0FBFFF70EFC1C
:10985000064B4FF40012C3F80425BDE80840FFF79B
:10986000ABBF00BF0480004000B0004000F00140EA
:109870002DE9FF41334C80466079164628B1FFF749
:10988000BDFD052004B0BDE8F0810191FFF7F8FAB5
:109890002D4B2E4F01993022C3F808254FF40002BA
:1098A000C3F808254FF00072C3F80825E279A3F544
:1098B0008033002A3CD00122C3F80022244D254ADF
:1098C000C3F80C55C3F81075C3F814254FF0807217
:1098D000C3F80801C3F804251F4AC3F808250DF191
:1098E0000F02E81CC0479DF80F302B700023AB70AF
:1098F000E379687013B1194B01221A6018490023EB
:109900000322C1F80475C1F80031C1F80C31C1F867
:109910001031C1F800221022C1F8042326716072B0
:10992000D1F850250B2A08D00222E2701846A9E788
:109930000C4AC3F808253D46D1E7FFF75FFD01203B
:10994000A0E700BFA437002000F00140E439002068
:10995000DC370020E83A0020C882002000F00040F8
:1099600000100040948D0020014B5869704700BFE3
:10997000A4370020014B9879704700BFA43700201E
:10998000024BD3F85005C0B2704700BF0010004032
:10999000FB207047044B1A78044BC3F80425044B92
:1099A00001221A72704700BF908D002000F0004025
:1099B000A4370020014B00221A727047A437002000
:1099C0001DF0A6B81DF0E0B80D4B4FF08062C3F853
:1099D00004254FF00062C3F804250A4AC3F8302575
:1099E00002F5DE424832C3F8342502F58072C3F82E
:1099F0003825A2F5E2423C3AC3F83C25704700BF47
:109A000000F0014004110040014BC3F80C05704701
:109A10000010004007281ADC25D0062823D005288E
:109A200021D004281FD003281DD0002811DA031DDF
:109A300011DA10F1080F11DA10F10C0F11DA10F130
:109A4000140FB4BF6FF027006FF0130070470820A9
:109A50007047002070476FF0030070476FF00700F9
:109A600070476FF00B007047936813B51868144681
:109A70000BF08CFB28B91F4B1F4AF1211F481CF02B
:109A8000D9FFB0F5285F08D042F6012398421CD0D8
:109A90001B4B194A4FF49471F0E7237863B91948C6
:109AA0001FF073FF174982B260680CF0C8FB0028F2
:109AB00018BF112002B010BD012B114B02D1124A68
:109AC0008721DBE70C4AFA21D8E723783BB90F4B13
:109AD0001B88ADF8063002220DF10601E4E7012BE8
:109AE00008BF0B4A064B16BF034AB02140F20511CE
:109AF000C4E700BFFCA40400BEA5040008A5040040
:109B000006A504008034002075A50400F43B002065
:109B10009AA5040037B501901FF037FF1F280446AF
:109B20000AD8064D0199024628461FF0DFFC0023A3
:109B30002B55184603B030BD0320FBE780340020CE
:109B400008B50A4805F0B8FF30B1094B094A40F2A0
:109B50006F1109481CF06EFF044805F085FF20B125
:109B6000034B044A4FF4B971F3E708BDE4A50400C0
:109B70006DA50400D1A5040008A5040010B5147853
:109B8000134634B90449586801220CF058FB2046AA
:109B900010BD0320FCE700BFFA3B002037B5137867
:109BA00015467BB901220DF1070105F06DFD044654
:109BB00078B9686801220DF107010CF040FB2046DE
:109BC00003B030BD012B06D1516805F07BFD044682
:109BD000F5E70E24F3E70024F1E7000070B51478F0
:109BE00015462CB1104B114A942111481CF022FF4C
:109BF000506804210CF042FD064690B1AA680D4B56
:109C00009A4203D00C4B094A9C21EEE70B4B198872
:109C10000CF02EF90A4BB01C19880CF029F92046DB
:109C200070BD0620FCE700BF04A60400C9A604001E
:109C30002CA60400B034002093A60400FC3B0020B6
:109C4000F83B0020034B1880034B1980034B188806
:109C500005F0C8BCFC3B0020F83B0020F63B002090
:109C600008B5094805F028FF28B1084B084AE72144
:109C700008481CF0DFFE044805F0F6FE18B1034B5F
:109C8000034AEA21F4E708BDF0A604006DA504002C
:109C9000DDA604002CA604002DE9F34110F04008D5
:109CA00005460E4617461C460ED11868018A0CF070
:109CB00071FB0623CDE9008322682B4639463046E6
:109CC00000F0DAFEC4F8008002B0BDE8F08107F0D1
:109CD000EEBA7047172938BF17218181704710B538
:109CE000044607F015FE30B1A38923B1608998427C
:109CF00028BF184610BD1720FCE710B50C46FFF72B
:109D0000EEFF218A0B1A002B05DD411A2046BDE823
:109D100010400CF03FBB10BD1FB5CDE9001006F0A0
:109D20009FF8DDE9001002AB03AA07F0C0FA40B9C2
:109D30000298FFF7D4FF044606F094F8204604B0DA
:109D400010BD0024F8E7000008B507F0C1FD38B1E8
:109D500004230381C380034B1B884381024B83612F
:109D600008BD00BFFE3B0020D59D020002381E2822
:109D700011D8DFE800F01210121012101210121099
:109D800012101210121012101010121012101010C7
:109D90001012101012000020704701207047013887
:109DA000202812D8DFE800F013111311131113113A
:109DB0001311131113111311131113111111131185
:109DC00013111111111311111300002070470120FC
:109DD000704700002DE9FF41044607F0C9FD4FF62A
:109DE000FF73984205463BD0206926890DF1070391
:109DF0000122002104F110070CF0A6FA70BB042E1A
:109E000016D19DF80700FFF7CAFF88B106F028F8C1
:109E100002AA03AB3146284607F061FA024638B978
:109E20000298039980F8742000F08EFB06F01AF86F
:109E30009DF80700DFF86080002398F8002090422A
:109E400010D004D301331F2B08F10808F5D13B468D
:109E500032462946FFF720FF082418E0042416E0C4
:109E6000072414E0206901210CF094FAD8F804309A
:109E70003A46314628469847044640B1082C06D158
:109E80009DF807003B4632462946FFF705FF20466E
:109E900004B0BDE8F08100BF10A70400024B4FF4EE
:109EA00080721A8000207047FE3B0020F8B50646FD
:109EB0000F4610460421154607F0DAF9044640B96A
:109EC0002B681A683946D378B2F80120304604F07E
:109ED0002DFB2046F8BD30B5162985B005460C4649
:109EE0003BD905F0BDFF01AB02AA04212846FFF7CC
:109EF000EEFE28B105F0B6FF0724204605B030BDC0
:109F0000019B9B7BDB0709D405F0ACFF022103AA70
:109F1000084600F006FB28B90624EEE705F0A2FF8C
:109F20000224EAE70480039A0421284600F04EFB4D
:109F300004460028E1D105F093FF01AB02AA0421F9
:109F40002846FFF7C4FE044620B9019A937B43F0EC
:109F50000103937305F086FFCFE70324CDE7F7B540
:109F600006460F4610460221154607F081F90446C1
:109F700030BB2B681D6805F073FF224601AB3946E4
:109F80003046FFF7A4FE0446C0B929880198FFF7C0
:109F9000A1FE0198FFF7A3FE054605F063FF24B973
:109FA0002A460421304603F0B2F830462B462246BA
:109FB000042104F0D5FA204603B0F0BD0025ECE7FB
:109FC0000025F2E7F7B506460F461D46144682B156
:109FD0009A420ED8042101AA084600F0A2FA50B114
:109FE00004804580019A3946304600F0EFFA03B00C
:109FF000F0BD0320FBE70620F9E72DE9F04707460F
:10A0000086B0884610460121144607F031F905460E
:10A0100040B920680121D0F800A00CF0BBF92368FA
:10A020001B8A43B938462A46414604F0E6FA2846D8
:10A0300006B0BDE8F0879AF80060012E1CD0022E11
:10A0400025D14FF012094946204607F011F918BBF7
:10A05000236818680BF027FF012EADF800000ED022
:10A06000022E16D0206849460CF094F96A46414603
:10A07000384604F099FAD2E74FF00409E3E70223E7
:10A080001A46216801A80BF0A3F80028EAD00A2597
:10A09000C8E710233246F4E70546C3E72DE9F3414C
:10A0A000DDF8288006460F461D461446D2B19A4276
:10A0B00018D801AA08F10601062000F032FA98B17A
:10A0C000BDF82030099904804580838042460630DF
:10A0D0001FF00CFA019A3946304600F077FA02B0C8
:10A0E000BDE8F0810320FAE70620F8E773B50546DE
:10A0F0000E46144623681A8A32B92846314604F0BF
:10A10000C9FA002002B070BD0421204607F0B0F863
:10A11000B0B92068036859781A7842EA0122ADF88C
:10A1200004209A78DB78042142EA0323ADF8063054
:10A130000CF030F901AA3146284604F080FAD9E73C
:10A140000A22DAE72DE9F341DDF8208006460F46C2
:10A150001D461446C2B19A4216D840460BF074F818
:10A1600001AA011D082000F0DCF978B1011D04806E
:10A17000458040460BF03EF8019A3946304600F0E3
:10A1800025FA02B0BDE8F0810320FAE70620F8E7DF
:10A190002DE9F043064685B00F46104601211446CE
:10A1A00007F066F8054670B92068036893F80080E8
:10A1B00001210CF0EFF8B8F1010F28D9A8F102093C
:10A1C00023681B8A43B930462A46394604F09EFA72
:10A1D000284605B0BDE8F0834146204607F048F820
:10A1E000B8B923681B6859781A78CDF8089042EA04
:10A1F0000122ADF8042002333946304601AA039308
:10A2000004F06CFA206841460CF0C4F8D8E70A253F
:10A21000D9E70546D7E773B505460E4614466AB139
:10A2200001AA02210A2000F07CF948B10480019AB9
:10A230003146284600F0CAF902B070BD0320FBE7A2
:10A240000620F9E708B51346002204F0C9FA0020F9
:10A2500008BDF7B505460E461F46144672B101AA61
:10A2600004210C2000F05DF950B104804780019A70
:10A270003146284600F0AAF903B0F0BD0320FBE701
:10A280000620F9E708B51346002204F0C1FA0020C1
:10A2900008BD13B5002413460094224604F0CBFAFF
:10A2A000204602B010BD082070472DE9F341DDF8CB
:10A2B000208006460F461D461446C2B19A4216D863
:10A2C00040460AF0C1FF01AA011D102000F029F943
:10A2D00078B1011D0480458040460AF08BFF019A49
:10A2E0003946304600F072F902B0BDE8F081032033
:10A2F000FAE70620F8E72DE9F043064685B00F4659
:10A3000010460121144606F0B3FF054658B92068EF
:10A310000368012193F800800CF03CF8A8F10409CF
:10A3200023681B8A43B930462A46394604F034FA7A
:10A33000284605B0BDE8F083B8F1040F21DD4146A1
:10A34000204606F095FFF0B9236818680BF0ABFDC6
:10A350002368ADF80400186802300BF0A4FD2368F0
:10A36000ADF806001B68CDF8089004333946304636
:10A3700001AA039304F0E2F9206841460CF00AF8C0
:10A38000CEE70425CFE70546CDE708B504F06DFA22
:10A39000002008BD2DE9F341089D074688461C466C
:10A3A000164602B32B8A2344B3F5007F1BDCFFF76C
:10A3B000B3FC2B8A0438984215DD01AA042116202B
:10A3C00000F0AFF8A0B144800680294601980CF057
:10A3D00039F9019A4146384600F0F8F8044620461B
:10A3E00002B0BDE8F081032428460BF015FFF6E724
:10A3F0000624F9E72DE9F74306460F4610460421E7
:10A40000154606F035FF0446A0B928680368042104
:10A41000B3F80090B3F802800BF0BCFF3046CDE9F2
:10A4200000854B462246394604F030FA204603B0F8
:10A43000BDE8F0834FF00008C146EFE773B504466E
:10A440000D461646012101AA182000F06AF838B11D
:10A450000670019A2946204600F0B8F802B070BD97
:10A460000620FBE708B5002204F02EFA002008BD04
:10A4700073B5064615460C4699B101AA02211B2068
:10A4800000F04FF890B10480294601980CF0DAF8FA
:10A49000019A0421304600F099F80446204602B0A3
:10A4A00070BD032428460BF0B7FEF7E70624F9E752
:10A4B000F7B506460F461D4614469AB101AA022179
:10A4C0001D2000F02EF890B10480294601980CF070
:10A4D000B9F8019A3946304600F078F8044620462B
:10A4E00003B0F0BD032428460BF096FEF7E70624E0
:10A4F000F9E708B504F000FA002008BD013170B595
:10A5000089B20646104615460CF0B8F8044620B944
:10A5100028460BF081FE204670BD2C6804F8016BC4
:10A52000F9E737B515460446019106F087FE024665
:10A53000286030B10199204603B0BDE83040FFF7F4
:10A54000DDBF03B030BD000070B505460E461446B1
:10A550005AB990F87430C3B9C46EB4B16368C366B5
:10A5600013B900F16C030367103C23681878FFF7F8
:10A57000FDFB78B195F874304BB1002363612B6F0C
:10A5800004F1100214341A602C67002070BD0123FE
:10A5900085F8743023681878FFF79BFB2146304616
:10A5A000FFF7ABFB22463146284607F083FA002826
:10A5B000EBD0034B034A04485B211CF03BFA00BF7D
:10A5C0006DA5040060A8040008A8040030B585B09B
:10A5D0001546019005F044FC019802AB03AA042142
:10A5E00006F07DFE044638B105F03CFC28460BF031
:10A5F00013FE204605B030BDDDE902102A46FFF704
:10A60000A3FF044605F02EFCF3E710B5144606F050
:10A610002FFE06280CBF1123002304B1237010BDA8
:10A62000F8B5069F1D463B78102B038A16460CBFD3
:10A630000622142213448B4211DC11460CF01EF842
:10A64000044670B131460BF013FC2946A01C0BF0F8
:10A650000FFC211D38460AF0CDFD0020F8BD042076
:10A66000FCE70620FAE7000010B5034C20681AF05A
:10A670006AFD0023236010BD003C002013B50C468A
:10A68000019005F0EDFB019805F086FE836D2360D7
:10A6900002B0BDE8104005F0E5BB00002DE9F04731
:10A6A0000646147AA0B017461D468846A1B1E007B9
:10A6B00005D402232B70102020B0BDE8F08704F0F1
:10A6C000040A04F0080904F0100444EA090353EAF8
:10A6D0000A030CD10020EFE7A10701D40323E9E727
:10A6E00004F0200A04F0400904F08004EDE7694614
:10A6F0003046FFF7C3FF364B5B7A13F0100F9DF81F
:10A70000003011D003F00302032A04D005232B707C
:10A7100040F20510D0E703F0F802802A04D00C23A1
:10A720002B704FF48670C7E759EA0A0231D013F054
:10A73000010A29D105F094FB304605F015FE78B1E9
:10A7400003A905F047FEDDF81300BDF817209DF8BA
:10A7500019308DF80BA00190ADF808208DF80A3063
:10A7600005F080FB0AA901A80AF02DFB50B99DF85D
:10A77000503013F0010F0CBF05200F20287000F59A
:10A78000807099E70520F9E7B9F1000F01D09A0729
:10A79000BCD57A7AB2EBD30FC1D8002C9AD005F091
:10A7A0005FFB304605F0E0FD044605F05BFB94F8E6
:10A7B0005930DB078ED479894246304602F0D7FC07
:10A7C000022887D108232B704FF4847074E700BFF0
:10A7D000403500202DE9F04186B005460393002363
:10A7E0008DF817304FF6FF7398420C9F0C461646B3
:10A7F0000FD12369019303AB0093D4F80C806189D6
:10A80000334601222846C04778B18DF81700092049
:10A8100007E00A460DF117030121FFF73FFF00286B
:10A82000E7D017B19DF817303B7006B0BDE8F08156
:10A8300073B504460DF1060015461E460BF018FBD5
:10A8400002220DF1060120460BF0F9FC20B1112384
:10A850003370062002B070BD29460DF106000BF0E2
:10A8600007FB02220DF1060120460BF0E8FC002850
:10A87000EDD10120EEE7000010B5044640B180683C
:10A880000BF0CAFC21460348BDE810400CF096B816
:10A8900010BD00BF703C0020F0B51D4685B04FF6DE
:10A8A000FF730C4698424FF00001064617468DF89C
:10A8B0000F100DD123696189CDE900730222E76889
:10A8C00000233046B84750B18DF80F00092006E04C
:10A8D0000DF10F032246FFF7E1FE0028EAD015B183
:10A8E0009DF80F302B7005B0F0BD2DE9F04385B019
:10A8F0000446DDF83490039190461F4606F09EFC16
:10A90000054600B303460399CDF800902046002287
:10A91000FFF760FF044630B92E8A46450AD90E2358
:10A9200089F80030042428460BF076FC204605B058
:10A93000BDE8F0833B460146324628460BF004FD55
:10A940000C9B1E80EFE70624EDE700002DE9F041A7
:10A95000804612480F4616461D460CF008F804467D
:10A96000B8B10F4BC0F804801A880772013292B256
:10A970001A80069BC360079B03610A4B46725968A5
:10A980004281002020600C605C6025B12A80BDE817
:10A99000F0810620FBE72846F9E700BF043C0020D1
:10A9A000283C00202C3C0020014B1888704700BF39
:10A9B000283C0020044A0346106800B970474289C9
:10A9C0009A42FBD00068F8E72C3C002037B50546DA
:10A9D000084601921C46FFF7EDFF019A014628B98F
:10A9E0000CB101232370052003B030BD2346284657
:10A9F00003B0BDE83040FFF74FBF000070B50D4613
:10AA0000164640B90A4B1C681CB16389B34204D98D
:10AA10000024204670BD0468F6E7002DF9D0606878
:10AA200029460AF098FB0028F3D02468ECE700BF21
:10AA30002C3C0020026822B14068401A20EAE070F5
:10AA400070476FF00040704737B504460846CDE9BF
:10AA50000032FFF7AFFF069DDDE90032014628B95D
:10AA60000DB101232B70052003B030BD204603B08B
:10AA7000BDE83040FFF7AEBE2DE9F84304460D4671
:10AA800001200421BDF820909DF8248016461F4621
:10AA9000FFF734FD58B1077080F80380A0F80190EB
:10AAA000324629462046BDE8F843FFF78FBD062011
:10AAB000BDE8F8832DE9F34106469DF824800F4652
:10AAC0001C46154642B1B8F1000F1DD05BB1218A7A
:10AAD00020460BF05FFC0AE01A46FFF777FD0546BB
:10AAE00088B14FF00E0806F0A9FB044660B1BDF82E
:10AAF00028300093CDF804809DF820302246394656
:10AB00003046FFF7B9FF002420460BF085FB2846AE
:10AB100002B0BDE8F0812DE9F043042989B0064672
:10AB20000D4690464FF000096AD10DF1170202213F
:10AB30004046FFF76AFD044600285ED1D8F8003091
:10AB40001B681F888DF8170005F08AF9224607ABAD
:10AB500029463046FFF7BBF8044610B9079BB3F807
:10AB60000A9005F07FF9002C45D1D8F80050C8F8BC
:10AB70000040298A28460BF00DFC2A4602210320BA
:10AB8000FFF7BCFCA0BB11238DF81730062400236F
:10AB900002939DF8173001930223009322462B461F
:10ABA00004213046FFF786FF0446E8B905F058F95E
:10ABB00006AB07AA04213046FFF789F8044658B9C6
:10ABC00039460698FFF786F80698837B43F0010321
:10ABD0008373FFF784F8074605F044F924B93A4631
:10ABE0000421304602F093FA204609B0BDE8F08314
:10ABF000A0F80090CBE70025C9E74D464F46C6E7D1
:10AC00000824F1E72DE9F04F16468BB081468A46BD
:10AC100000240DF12702042130468DF82740FFF76C
:10AC2000F4FC0546002876D134682368B3F8008028
:10AC30005B880593984502D8B8F1000F14D1012321
:10AC40008DF8273000240A259DF82730019304232E
:10AC50000093CDF8088023462A4651464846FFF720
:10AC600029FF0BB0BDE8F08F218A306020460BF041
:10AC700091FB224601210520FFF740FC074620B941
:10AC800011238DF827300625DEE751464846FFF7A9
:10AC900043F8224B3D701E680690AB461EB1738987
:10ACA000059A9A4205D2BBF1000F16D04FF000086A
:10ACB000CAE798452DD871683B780978102914D1D6
:10ACC00083B901233B700421238A069A0B449342E3
:10ACD000E9DC20460BF0D2FC80B90A238DF827303E
:10ACE0000525B1E7012BEED0DDE723B94FF00203D4
:10ACF0003B701221E8E7022BFBD0D4E77189079063
:10AD00000BF0B6F8079B7068991C0AF073FA0BF108
:10AD1000010B3668C2E7A04696E700BF2C3C002036
:10AD20002DE9F04F2DED028B14468FB082468B46F5
:10AD300000250DF12102062120468DF82150FFF754
:10AD400064FC0646002840F0DA8023681B685A88B5
:10AD5000B3F800800592904502D8B8F1000F16D1E3
:10AD600001238DF8213000250A269DF8213001931A
:10AD700006230093CDF808802B46324659465046AC
:10AD8000FFF798FE0FB0BDEC028BBDE8F08F9F88F7
:10AD900006F054FA054650B1024631460720FFF747
:10ADA000ADFB60B911238DF821300626DDE71123B4
:10ADB00025688DF82130266006242646D5E75946B9
:10ADC0005046FEF7A9FF2368ADF8267008EE103A4A
:10ADD00010238DF824304C4B06901F68B146344642
:10ADE00097B9C4B12B8A06991A1D914214DB2146EA
:10ADF0000DF121034A462846FFF71AFD01280446B3
:10AE000009D0002CD9D106E07B89984515D854B9D2
:10AE1000059A9A4241D22B8A012B72D80A238DF8C7
:10AE200021300524C9E79DF82430102B20D17A6801
:10AE30001378102B03D0B7F80A903F68D0E709A821
:10AE400007920AF0A3F942F601018842079A0BD84B
:10AE5000B0F5205F0CD310460AF098F9A0F5205009
:10AE600080B20128E7D803E042F60301884237D0D8
:10AE70002B8A069A04339A42CDDB21460DF1210339
:10AE80004A462846FFF7D4FC01280446B9D17B89FD
:10AE9000059A9342BFD84FF00009786809A90AF0D3
:10AEA0005AF950BB0DF1210301930DF122030093D8
:10AEB00010220AAB39465046FFF717FD044600281A
:10AEC0007FF47BAFBDF8223018EE100A0AAA0621E3
:10AED0000BF0ACFA0028B0D1B7F80A904C46ACE7BA
:10AEE000079010460AF052F9A0F5205292B2012ABA
:10AEF000BED9079B98429ED1BAE700249DE7A84699
:10AF000033E74FF0000830E72C3C00202DE9F04FEC
:10AF100013682DED028B1E8A97B00025062E08EED1
:10AF2000101A814617468DF82D5001D0142E13D1DA
:10AF30000DF12D0A524631463846FFF766FB0446AE
:10AF400050BB39680B681D885B8808939D4200D808
:10AF5000B5B901238DF82D3000260A249DF82D3037
:10AF600001930823009318EE101A029533462246E7
:10AF70004846FFF79FFD17B0BDEC028BBDE8F08F90
:10AF80000DF1440B331F042258460AF021F9044600
:10AF900028B104248DF82D4000252E46DEE73E68BA
:10AFA0008DF82D00318A386030460BF0F3F93246C7
:10AFB00001210920FFF7A2FA059030B91123059D60
:10AFC0008DF82D3006200446C8E718EE101A4846C2
:10AFD000FEF7A2FEA046069007942746CDF824A0CF
:10AFE0003846089A5946FFF709FD0746002855D00C
:10AFF0004389AB42F4D3099B01930DF12E030093D7
:10B0000001460CAB13224846FFF76FFC60B17D8907
:10B01000079B73BB9DF82D3013B90A238DF82D3093
:10B020000028D0D1052499E7069BBDF82E20033BCC
:10B030009342DEBF069B043BADF82E30BDF82EA038
:10B04000B8F1000F01D0D045E2D1328A069B02321E
:10B050005244934224DB0AF1020189B230460BF0DC
:10B060000DFB78B9079B7D8911228DF82D20CBB17E
:10B07000D04600238DF82D30059B08F1020883F897
:10B0800000806BE77A8920F8022B0CA9BDF82E20EE
:10B090001EF02CFA0123D0460793A1E70520B7E75D
:10B0A000D046B5E706208EE72DE9F04786B0174673
:10B0B0000DF1170A8046894600265246022138467D
:10B0C0008DF81760FFF7A1FA044650BB3D682B6866
:10B0D000298A1E88386028460BF05CF92A462146EA
:10B0E0000B20FFF70BFA90B911238DF817300624C7
:10B0F0009DF8173001930A23009302962B462246AF
:10B1000049464046FFF7D6FC06B0BDE8F087224628
:10B11000CDF800A02B4631464046FFF795FC04468B
:10B12000E6E73546E4E72DE9F04F87B017460DF125
:10B13000170A8046894600265246042138468DF873
:10B140001760FFF762FA044660BB3D682B68298AE6
:10B150001E88B3F802B0386028460BF01BF92A4667
:10B1600021460D20FFF7CAF990B911238DF8173049
:10B1700006249DF8173001930C23009302962B466A
:10B18000224649464046FFF795FC07B0BDE8F08FE0
:10B19000CDF800A02B465A4631464046FFF754FCF6
:10B1A0000446E6E73546E4E72DE9F04F87B0002492
:10B1B0000F46154606468DF81740FEF7ADFD804652
:10B1C00006F03CF8814698B1024621460F20FFF771
:10B1D00095F9044678B10DF1170B2B681B8A012BEA
:10B1E00003D9B9F81030434519D30024A24607E02B
:10B1F000D5F800902C6011238DF817304FF0060A17
:10B200009DF8173001930E23009302944B4652464B
:10B2100039463046FFF74EFC07B0BDE8F08F5A467E
:10B2200002212846FFF7F1F98246A0B92B68186879
:10B230000AF039FE0221044628680BF0ABF85246AA
:10B24000CDF800B04B4621463046FFF7FDFB824665
:10B250000028C2D0D4E70024D2E72DE9F04F89B00E
:10B2600000248946174680468DF81D40FEF754FDA0
:10B27000824605F0E3FF054650B1024621462120F3
:10B28000FFF73CF9C0B911238DF81D30044604E0E6
:10B2900011233D688DF81D303C6006229DF81D305D
:10B2A00001932023009302942B4649464046FFF722
:10B2B00001FC09B0BDE8F08F214602200AF082FFB0
:10B2C0000DF11D0B06463B681B8A012B02D92B8A08
:10B2D000534502D30024224636E05A46022138461E
:10B2E000FFF793F9024670BB3B68059018680AF0B7
:10B2F000DAFD0221044638680BF04CF8059ACDF8C7
:10B3000000B0334621464046FFF79EFB0246D8B9BF
:10B31000338AADF81E3002220DF11E0128460AF0D4
:10B320008EFF024690B9BDF81E30002BCBD03146BF
:10B3300028460AF0E2FF024640B9BDF81E1030462A
:10B340000BF028F8BFE70024002EA7D03046059266
:10B350000AF062FF059AA1E72DE9F04F13682DED81
:10B36000028B8946198A97B00025062908EE100A33
:10B3700017468DF81D5001D0142913D10DF11D026F
:10B380003846FFF742F90446002840F0DF8039686C
:10B390000B681D885B8804939D4200D8B5B90123D2
:10B3A0008DF81D3000260A249DF81D3001931023CE
:10B3B000009318EE100A0295334622464946FFF7DD
:10B3C00079FB17B0BDEC028BBDE8F08F0B8A0DF155
:10B3D000300B043B0422584609F0FAFE08B104235E
:10B3E000DEE70590584609F0D1FEA0F5205080B266
:10B3F0000128059B05D9102326468DF81D301C46D3
:10B40000D2E7494618EE100A05938DF81D40FEF765
:10B4100083FC3E683C60318A824630460AF0BAFFBF
:10B42000324601211120FFF769F8059B804620B9BB
:10B4300011238DF81D300624B6E7484A03701768BB
:10B440001C461A4697B9002A6CD04FF6FF7411AB10
:10B450000093514623463046FFF7E2F8062808BF1E
:10B460001123044608BF8DF81D305CE07B899D42A6
:10B470000ED8049999426CD3E2B17868059209F02C
:10B4800085FEA0F5205080B20128059A02D97C895A
:10B490003F68D7E711AB0093514623463046FFF78C
:10B4A000BFF8044630B106287D8921D111238DF8DB
:10B4B0001D3079E77868594609F04DFE00283FD1E4
:10B4C0000DF11D0301930DF11E030093102208AB33
:10B4D00039464FF6FF70FFF708FA044638B9BDF851
:10B4E0001E2008A911A809F012FE044620B17D898A
:10B4F000042C08BF002457E798F80030062B0DD025
:10B50000142B18D07BB99DF84430102B0CBF0623A8
:10B51000142388F800307A891446B9E79DF844303E
:10B52000102BF8D00024338A022B0BD80A238DF875
:10B530001D30052438E79DF84430102BEBD1F1E79E
:10B540000022A5E7002C3FF42FAFD1E700252E46BF
:10B550002AE7002A7FF47BAFE4E700BF2C3C002001
:10B560002DE9F043904687B006460F4600250DF1C1
:10B570001702022140468DF81750FFF746F804469F
:10B58000A8BBD8F800301B68B3F8009005F056FE51
:10B590000546C8B1024621461320FEF7AFFFC0B9E9
:10B5A00011238DF8173006249DF8173001931223CC
:10B5B0000093CDF808902B46224639463046FFF7D7
:10B5C00079FA07B0BDE8F083D8F80050C8F8004019
:10B5D000E6E7D8F8000002210AF0DCFE0DF11703BF
:10B5E000424649463046FFF7F1F90446DCE7A946F2
:10B5F000DAE773B5144605460DF10702022120462D
:10B60000FFF703F860B9206803681E8802210AF07A
:10B61000C1FE0DF10703224631462846FFF7D6F951
:10B6200002B070BD2DE9F047B0B00FA980461646B4
:10B6300000F0ACFC0446002840F08B808DF80F0031
:10B640000546DDF84700BDF84B209DF84D300290CF
:10B650001AA902A8ADF80C208DF80E3009F0B3FB42
:10B66000044600286ED19DF8B25015F0010572D045
:10B670000DF1070202213046FEF7C7FF04460028FD
:10B6800063D130680368018AB3F800900C2204ABE0
:10B690000C390AF059FE6FF00B0130680AF07AFE9F
:10B6A000D6F800A0BAF810700537BFB2384619F0C6
:10B6B00044FD0346D22203F8012B05462146BAF881
:10B6C000102050460AF040FE33682D9A1B8A2B4406
:10B6D0003946C3F8012028460AF0F3FB10220DF189
:10B6E000A2010BA80AF0FEFB2146102207A81DF0BC
:10B6F00025FF07AB3A4629460BA808F040FB044655
:10B7000000BB102107A80AF0DCFB04222DA904A825
:10B710001DF0DEFEF8B9082209A905A81DF0D8FE23
:10B72000C8B9404607F0EBFC044658B9306802211E
:10B730000AF030FE0DF10703324649464046FFF756
:10B7400045F90446284619F0FEFC204630B0BDE815
:10B75000F0870025F6E71724F4E710B504462068C3
:10B7600000B910BD03682360FFF786F8F7E7000013
:10B770002DE9F04F2DED028B16468BB008EE101A16
:10B7800007464FF0000B0DF12702042130468DF8DB
:10B7900027B0FEF73AFF0446002840F09C8033684B
:10B7A0001D68B5F800904846FFF704F98046B0B927
:10B7B00001238DF8273005249DF8273001931623A7
:10B7C000009318EE101ACDF80890434622463846EA
:10B7D000FFF770F90BB0BDEC028BBDE8F08F0246AD
:10B7E00021460DF127033846FEF758FF044600288E
:10B7F00074D104F035FBB5F800B0D6F800A01FFAFC
:10B800008BF306936B88ADF8143038469BB20793E0
:10B8100004F0C2FD804632480BF0A9F80546A0B9F5
:10B8200009238DF82730062404F01CFB0023D6F8EA
:10B8300000803360002CBFD1012140460AF085FE14
:10B84000D8F8003017221A70B6E7046044608460AC
:10B8500005F0F4FCA86020B92846FFF70DF8112385
:10B86000DFE7BDF81430EB80BAF81030A5F804B06B
:10B87000043B9BB2042251460AF03FFD044630B11E
:10B880002846FEF7F9FF09238DF82730CCE7D8F8D2
:10B8900044C0024663461BB19888069981420ED285
:10B8A000AAB9C5F800C0C8F8445018F065FE00F504
:10B8B000EA403030C8F8480004F00AFBB4E703D18E
:10B8C000D88807998842EBD81A461B68E3E71368C3
:10B8D0002B601560E9E7D946D8466DE7D8466BE797
:10B8E000703C00202DE9F04F154689B081468A460C
:10B8F0000DF1160201212846FEF787FE04460028B6
:10B9000040F083802F683B68398A1E78286038466B
:10B910000AF040FD3A4621461920FEF7EFFD0028C7
:10B9200076D1112325468DF8163006249DF8163061
:10B9300001931823009302953B4622465146484600
:10B94000FFF7B8F809B0BDE8F08F069E224606BBA7
:10B95000069D002D35D0AD884FF0000BDDF8188026
:10B96000B8F1000F39D12846CDF81CB0FFF722F806
:10B970000DF11703014607AA4846FEF78DFF8046E2
:10B9800007980AF049FCB8F1000FE1D09DF8174084
:10B9900017E0F1881AB1B5889088A84203D041B168
:10B9A000B58807240DE09068D288008A02448A4254
:10B9B000F7D1B268128A0A44B2F5007F0ADDB58871
:10B9C0000D24002C8DF8164018BF092406A8FFF797
:10B9D000C4FEABE732463668B9E7B8F80430AB428C
:10B9E000C1D1BBF1000F0AD1D8F808B0069BC8F846
:10B9F00008601B6806934046FEF73EFFAEE7D8F8A6
:10BA0000081058460AF01EFEF0E700273D468DE775
:10BA100004F026FA484604F0BFFC436C44640693E5
:10BA200004F020FA002E90D12546CFE7F7B5154651
:10BA30000646002202212846FEF7E7FD0446A8B983
:10BA40002B681B681F889FB101A93046FEF716FEC0
:10BA5000286802210AF09EFC2A68234639463046AF
:10BA600001F0D7FA2C60204603B0F0BD0624FAE7B7
:10BA70000A24F8E7082070472DE9F043154687B0FF
:10BA800080468946002202212846FEF7BEFD044674
:10BA900060B92B681B681F8867B105F0CFFB0646AD
:10BAA00060B92E682C60112306241EE000231E4678
:10BAB0001F461AE03B463E460A2416E0024621464F
:10BAC0001E20FEF71BFD0028EDD005A94046FEF71D
:10BAD000D5FD286802210AF05DFC01232A68394659
