:020000022000DC
:10600000000004202564040065640400A569040000
:10601000696404006B6404006D6404000000000007
:106020000000000000000000000000009D8004004F
:106030007164040000000000BD8004007564040069
:1060400091660400216A0300776404007764040009
:106050007764040077640400053404007764040066
:10606000776404007764040077640400396A0300ED
:10607000776404002D6A03007764040077640400E9
:1060800077640400513704007764040077640400E7
:106090007764040077640400776404007764040084
:1060A0007764040077640400776404007764040074
:1060B0007764040077640400000000000000000022
:1060C0007764040077640400776404007764040054
:1060D000776404007764040077640400C932040024
:1060E0007764040077640400776404000000000013
:1060F00000000000776404000000000077640400E2
:10610000000000000000000000000000000000008F
:10611000000000000000000000000000000000007F
:10612000000000000000000000000000000000006F
:10613000000000000000000000000000000000005F
:10614000000000000000000000000000000000004F
:10615000000000000000000000000000000000003F
:10616000000000000000000000000000000000002F
:10617000000000000000000000000000000000001F
:10618000000000000000000000000000000000000F
:1061900000000000000000000000000000000000FF
:1061A00000000000000000000000000000000000EF
:1061B00000000000000000000000000000000000DF
:1061C00000000000000000000000000000000000CF
:1061D00000000000000000000000000000000000BF
:1061E00000000000000000000000000000000000AF
:1061F000000000000000000000000000000000009F
:1062000010B5054C237833B9044B13B10448AFF3F0
:1062100000800123237010BDB8360020000000006C
:1062200054E5040008B5034B1BB103490348AFF321
:10623000008008BD00000000BC36002054E50400CA
:10624000A3F5803A704700BF174B002B08BF134BD4
:106250009D46FFF7F5FF00218B460F461348144A71
:10626000121A23F0B5F80E4B002B00D098470D4BB7
:10627000002B00D098470020002104000D000D489D
:10628000002802D00C48AFF3008023F035F820003E
:10629000290020F087F823F01BF800BF0000080059
:1062A000000000000000000000000420B8360020BC
:1062B00018900020000000000000000008B5012137
:1062C0000F2020F0EBFC00210F2020F025FD012104
:1062D0000D2020F0E3FCBDE8084001210D2020F056
:1062E0001BBD0000024A136801331360704700BFF2
:1062F0003037002070477047704710B5044620F0D3
:106300008DF8204610BD10B5044620F087F82046D1
:1063100010BD10B5044620F081F8204610BD00F1F4
:10632000080373B50360044608460D4623F077FA68
:106330000F2805EB0006019007D9002201A920468D
:1063400022F03AF8019B2060A3602068324629467B
:1063500022F065F8019B2268636000212046D15439
:1063600002B070BD13B504460846019123F057FAF8
:10637000019982B204F11C0002B0BDE8104001F0A6
:106380000EBB000008B50121152020F087FC01217B
:10639000162020F083FC0121172020F07FFC012132
:1063A000182020F07BFC0121052020F077FC002143
:1063B000152020F0B1FC0021162020F0ADFC0021BA
:1063C000172020F0A9FC0021182020F0A5FC0021B6
:1063D000052020F0A1FCBDE80840024902481AF05F
:1063E000AFBF00BF809B040008640020F8B5431EC7
:1063F000012B04460D460AD9304931481AF090FF66
:1064000021462F48BDE8F8400A221BF003B82D4969
:106410002B481AF085FF0A22214629481AF0F8FF76
:10642000294927481AF07CFF284B29492448002D88
:1064300008BF19461AF084FF012C4FF005004FF0F9
:1064400001010BBF152717271626182620F064FC1C
:106450000A201DF00DF955B30021384620F05CFCF0
:106460000121304620F058FC32201DF001F9384659
:10647000002120F051FC3046002120F04DFC00218D
:10648000052020F049FC012C0CBF124B124B134984
:106490001D700B481AF044FF214609480A221AF0E1
:1064A000B7FFBDE8F8400E4905481AF049BF012181
:1064B000384620F031FC2946D3E700BFC29B0400D8
:1064C00008640020D99B0400E89B0400BC9B0400E6
:1064D000B79B04003C37002044370020E19B0400B8
:1064E000EE9B0400012810B5044607D10B4B197828
:1064F000BDE8104081F00101FFF778BF022801D10B
:10650000074BF4E7074908481AF00AFF21460648F6
:10651000BDE810400A221AF07DBF00BF3C370020C2
:1065200044370020029C040008640020002102205F
:1065300020F0B4BB0000000008B5022020F0FAFAF9
:1065400022F0C4F80CA3D3E9002322F053FA0CA3E1
:10655000D3E9002322F024F922F01AFC22F0C8F833
:1065600009A3D3E9002322F01BF922F011FC00EE6D
:10657000100A08BDAFF300800000000000F88F4053
:106580006666666666660A40EE7C3F355EBA024025
:1065900038B510EE100A2DED028BB0EE408A22F0D5
:1065A000A7F815A3D3E9002304460D4622F07EFB8D
:1065B000E0B9F0EE087AB4EEE78AF1EE10FA12D9FB
:1065C0000FA3D3E900232046294621F031FF084BD1
:1065D000002222F0E5F8074B4FF0333222F00AFA9E
:1065E00022F0B6FBC0B2BDEC028B38BD6420FAE7E6
:1065F000000059403333F33F6666666666661040B6
:106600003333333333330740014837211AF012BB99
:10661000E8360020002238B505460C4606481146EB
:106620001AF0B6FB044885ED000A00211AF050FC70
:1066300084ED000A38BD00BFE836002008B502210D
:106640000D2020F02BFB02210F2020F027FBBDE8BE
:1066500008400221102020F021BB000038B51CF0BA
:10666000FFFF04460D2020F07BFB60B90D4D2B6829
:10667000E31AC82B07D90C4B1978012081F00101CE
:10668000FFF7B4FE2C600F2020F06AFB40B9074DE5
:106690002B68E31AC82B03D90220FFF723FF2C60D5
:1066A00038BD00BF103700203C37002014370020D1
:1066B00008B50021082020F0F1FABDE808400249A1
:1066C000042208201CF038BEE562020001210420EB
:1066D00020F0E4BA08B50121042020F01DFB64205D
:1066E0001CF0C6FF0420002120F016FBBDE8084086
:1066F0004FF461701CF0BCBF0021112020F0CEBA15
:1067000008B5112020F02CFB003818BF012008BD6F
:1067100070B52DED048B464C86B023688DF80700CC
:10672000F0EE408AB0EE608A002B7CD0414D2868A4
:1067300001220DF107011C3001F031F9206801F050
:10674000ABFC20B128684FF6FF7101F011FA9FED04
:106750003A9A3A4D68EE898A2868FDEEE88A022264
:1067600018EE903A04A91C30ADF8103001F017F97A
:10677000206801F091FC20B128684FF6FF7101F00C
:10678000F7F928EE098A2E4DBCEEC88A286818EE63
:10679000103A02220DF112011C30ADF8123001F056
:1067A000FEF8206801F078FC20B128684FF6FF71F0
:1067B00001F0DEF9234D244B28681B680593042261
:1067C00005A91C3001F0EBF8206801F065FC20B150
:1067D00028684FF6FF7101F0CBF91C4B1C4E1B785B
:1067E00030688DF80E301B4B1B4D1B788DF80F3029
:1067F00001220DF10E011C3001F0D1F828680122B0
:106800000DF10F011C3001F0CAF8206801F044FCC2
:1068100048B14FF6FF71306801F0AAF928684FF6C9
:10682000FF7101F0A5F906B0BDEC048B70BD00BF8F
:106830002C370020D83600200000C842383700200E
:106840000C37002004370020303700203C37002070
:1068500040370020443700204837002010B5094C4D
:10686000094920461AF06CFD084920461AF068FDD7
:10687000074920461AF064FD20460649BDE810404D
:106880001AF05EBD08640020249C04003C9C0400B7
:10689000739C0400AA9C040038B5084B1D785DB9B0
:1068A000074C206840B11EF0EAFB25600549064808
:1068B000BDE838401AF044BD38BD00BF2437002081
:1068C00018370020DE9C04000864002010B5044640
:1068D000006808B11FF0A2FD204610BD2DE9F0416F
:1068E0002DED028B90B001A96846FFF793FEFFF7EC
:1068F00023FEB0EE408AFFF74BFE8046FFF7AEFE68
:10690000FFF7E8FE80498148814F1AF009FD18EE33
:10691000100A21F0EDFE41EC100B02217B481AF029
:1069200045FE7C4979481AF0FBFC0A22414677482B
:106930001AF06EFD784975481AF002FD77497348E0
:106940001AF0EEFC009821F0D3FE41EC100B02216E
:106950006E481AF02EFE72496C481AF0E1FC01985C
:1069600021F0C6FE41EC100B022168481AF021FE0E
:106970006C4966481AF0D4FC6B4B644819680A22CB
:106980001AF052FD694961481AF0CAFCFFF7B8FED7
:10699000674A6849002818BF11465C481AF0D0FCC5
:1069A0003B68002B00F09C8063495848634E1AF006
:1069B000B7FC386801F070FB0A22014653481AF010
:1069C00029FD3378002B78D01CF04AFE5C4B1B6805
:1069D000984272D35B494D481AF0B2FC01F07AF943
:1069E00000F01BFEC8201CF043FE01F073F92021CB
:1069F000054600F00EFEA021284600F00CFE52498C
:106A00000AA8FFF78CFC0AA9284600F041FE0AA854
:106A100021F0F4FC00244C4904940AA8CDE9024476
:106A2000FFF77DFC01220AA902A800F0D0FB0AA80A
:106A300021F0E4FC45490AA8FFF771FC0AA905A862
:106A400002F08AF805A902A800F02EFC0AA821F09D
:106A5000D5FC02A9284600F098FE3B4907940AA8F5
:106A6000CDE90544FFF75BFC01220AA905A800F067
:106A7000AEFB0AA821F0C2FC05A9284600F0AEFE34
:106A8000204601F037F93249044620481AF048FC04
:106A90003049314B1D48002C08BF19461AF050FCF4
:106AA0001CB12E4919481AF04BFC002305A833707D
:106AB000FFF70CFF02A8FFF709FF386801F0ECFAB6
:106AC00070B9337863B901F005F900F0AFFD044601
:106AD00030B923490D481AF033FC204601F00AF979
:106AE000DDED010A9DED000A4046B0EE481AFFF7C1
:106AF0000FFEFFF7D1FE4FF47A701CF0B9FD10B015
:106B0000BDEC028BBDE8F0811C9D040008640020F0
:106B10002C370020269D04002B9D04002E9D040090
:106B2000359D04003B9D040030370020499D040042
:106B3000FE9C0400089D04004F9D04003437002093
:106B4000D4360020679D0400909D0400979D0400AA
:106B50009C9D040044D80400159D0400B99D0400C8
:106B6000EF9D04002DE9F04F93B0B849B84CB94FF0
:106B7000B94EDFF88493DFF88483DFF884B3DFF85D
:106B800084A30CA8FFF7CBFB0CA801F065F90CA8B7
:106B900021F034FC0021082001F00EF901F07EF80C
:106BA0000546206004201FF035FCAC4B0360014615
:106BB0000122284601F0E4FAA9492068A94D01F014
:106BC0006CFBA94BA949186012224FF4007301F025
:106BD000AAFFA74BA7491860206801F05EFBA649F1
:106BE00038604FF40073122201F09DFFA34BA449BB
:106BF000186012224FF40073386801F094FFA14B23
:106C0000A1491860206801F048FBA04AA049106023
:106C10004FF40073122201F086FF9E4B9E491860CC
:106C2000206801F03AFB9D4930604FF400731A224E
:106C300001F079FF4FF400731A229949C9F8000056
:106C4000306801F070FF9749C8F80000206801F033
:106C500024FB954928604FF40073022201F063FF82
:106C60004FF4007302229149CBF80000286801F02C
:106C70005AFF8F49CAF8000020688E4C01F00DFBC6
:106C80008D4920604FF40073082201F04CFF8B49BE
:106C90000C2208604FF400738949206801F043FF1B
:106CA000884B6A491860DBF80000FFF75BFB8649F8
:106CB000DAF80000FFF756FB844AD9F80000127892
:106CC0008DF80E20824A12788DF80F200DF10E01FA
:106CD00001221C3000F063FED8F8000001220DF103
:106CE0000F011C3000F05BFE04201FF093FB794A7B
:106CF000026001460190D9F8000000F043FF0199BD
:106D0000D8F8000000F03EFF04201FF083FB724A19
:106D10000260014601906948006800F033FF694B4A
:106D20000199186800F02EFF4F4B186801F05CFDC8
:106D3000386801F059FD554A106801F055FD30687A
:106D400001F052FD286801F04FFD206801F04CFD74
:106D500000F0C0FF4249044600F085FC454920464A
:106D600000F081FC4C49204600F07DFC5049204653
:106D700000F079FC2046202100F04BFC2046A021A9
:106D800000F049FC31490CA8FFF7C9FA0CA92046CC
:106D900000F07EFC0CA821F031FB00252B49069564
:106DA0000CA8CDE90455FFF7BAFA01220CA904A8F2
:106DB00000F00DFA0CA821F021FB29490CA8FFF7DF
:106DC000AEFA0CA907A801F0C7FE07A904A800F0B5
:106DD0006BFA0CA821F012FB294604A800F098FBDE
:106DE00004A9204600F0D1FC184909950CA8CDE96A
:106DF0000755FFF794FA01220CA907A800F0E7F95C
:106E00000CA821F0FBFA07A9204600F0E7FC284671
:106E100000F070FF3149044631481AF081FA3149D7
:106E2000314B2F48AC4208BF19461AF089FA002CA2
:106E30006AD02E492A481AF083FA2D4928481AF0B8
:106E40007FFA2C4926481AF07BFA5DE0909D0400F9
:106E50002C370020FC3600204C370020E09F040037
:106E6000979D0400E4360020DC360020239E0400B9
:106E7000D8360020289E04002D9E040038370020BC
:106E8000329E04000C370020379E04000837002093
:106E90005C9E040004370020819E0400A69E04002E
:106EA000CB9E0400F09E0400F59E0400FA9E0400B0
:106EB0004E9C040028370020859C04001C370020CD
:106EC000B99C040020370020FF9E04003C370020BE
:106ED0004437002014A0040034A00400059F0400DF
:106EE0000864002044D80400159D04002E9F04006F
:106EF000499F04008F9F040040370020483700203E
:106F0000E03600200037002007A8FFF7DFFC04A8C8
:106F1000FFF7DCFC13B0BDE8F08F00BF08B5FFF74A
:106F200031FAFFF703FBFFF76FFBFFF787FBFFF774
:106F3000BFFBFFF7CBFBFFF7DFFBFFF713FEFFF70E
:106F40008DFCBDE8084002484FF4E1311AF01EBC48
:106F500008640020062302481622194619F05ABE7A
:106F6000E836002008B11FF059BA70472DE9F04704
:106F7000194C1A4BA2EB010806464FEAA8004443FD
:106F80009C428946924602D9154821F00AFA1CB162
:106F900040461FF03FFA044604EB08033460B36038
:106FA0004FF0000C09EB0C05AA4508D00FCD04EBFF
:106FB0000C070FC72B683B600CF1140CF2E7094B70
:106FC0004FEA980803FB08F323F04043142000FB2A
:106FD00003447460BDE8F087CDCCCCCC6666660611
:106FE0004CA00400CDCCCC0C10B5D0E9002400207E
:106FF000A41AA04207D213185B788B4205D0135C09
:1070000001331844F5E74FF0FF3010BD091A08B5F9
:10701000531A29B10A460146184622F0BFF9034621
:10702000184608BD10B504461046D4E900236FF099
:1070300000449B1AE21A8A4201D221F0B2F9994225
:1070400038BF1946C91805D20029ACBF08466FF0F1
:10705000004010BD2046FCE710B50C1A134605D0C1
:1070600001462246184622F099F90346181910BD28
:1070700010B50C1A134605D001462246184622F0D8
:107080008DF90346181910BD70B5D1E90035ED1A18
:1070900000239D42C0E9003304460E46836011D0B0
:1070A00001DA21F078F928461FF0B4F902461544B8
:1070B000C4E90022D6E90001A560FFF7D9FF6060AE
:1070C000204670BD2A46F2E710B50446FFF7DCFF04
:1070D000204610BD9A422DE9F84F04460D4617464A
:1070E00099461ED09E1AD0E90183A3EB0803B34250
:1070F0002FD3A8EB010A564515D2A8EB060A424643
:1071000041465046FFF7B4FF626816445146424676
:1071100066602846FFF77AFF2A4649463846FFF759
:10712000A7FFBDE8F88F02EB0A0B494642465846D6
:10713000FFF79EFF6268A6EB0A0632446260414692
:107140002846FFF795FF6368534463602A46594613
:10715000E4E7134A3146FFF765FFB0F100081DD0A0
:1071600001DA21F018F91FF055F906463246294692
:107170002068FFF771FF494602463846FFF778FF5F
:10718000616802462846FFF767FF05462068FFF75B
:10719000E9FEC4E900654644A660C2E74646E5E765
:1071A0007DA0040037B5D0E900452C1B14441F2CEA
:1071B0000BD84FF000038DF800308B180A46294693
:1071C000FFF788FF012003B030BD0020FBE730B59A
:1071D0004B6809681E2B044638BF1046DAB228BF38
:1071E00000201D2A89B028BF1D22531C002802F14F
:1071F00002058DF80030EDB214BF092308230DF10C
:1072000002008DF8013022F0BBF82A46694620467C
:10721000FFF7C8FF09B030BD2DE9F04FD3E9007A80
:1072200089B080460D4614464FEAD20902265745DA
:1072300017D0384601F005FDA0420FD106EB090B2F
:10724000BBF11E0F0CDC384601F0FDFC4A4601463E
:107250000DEB060022F094F85FFA8BF61437E6E7A0
:107260000025731E202C8DF8003011D0802C14D0F6
:10727000102C17D1002D14BF032302233246694678
:1072800040468DF80130FFF78DFF09B0BDE8F08F63
:10729000002D14BF05230423F0E7002D14BF07239E
:1072A0000623EBE70020F0E7F0B5064689B0084674
:1072B0000C4601F0C6FC07460FCC03AD0FC5236892
:1072C0002B6008AA002303A96846CDE90033029386
:1072D000FFF74CFE6B463A4601213046FFF79CFF14
:1072E0000446009808B11FF099F8204609B0F0BD97
:1072F0002DE9F04706468AB008468A4601F0A1FC0F
:10730000C0F3C704042C38D0102C38D0022C4CD138
:107310000327FFB239463046FFF766FE421C08BF1E
:1073200004F102083146054602A80CBF5FFA88F84E
:10733000A046FFF7A9FEDDE902031B1A03EB0809CB
:10734000FFF710FEB9F11F0F2FD8504601F07BFC5C
:107350006B1C014615D1631C22460DF10A008DF805
:1073600008308DF8097022F00BF8424602A9304629
:10737000FFF718FF0AB0BDE8F0870527C9E7072720
:10738000C7E73368585D5F1901304FF000038DF88F
:1073900000300A460B1939183046FFF79BFE336858
:1073A000585D04445C550120E4E70020E2E700005A
:1073B00093422DE9F84F04460D46174699461ED0D4
:1073C0009E1AD0E90183A3EB0803B3422FD3A8EBA5
:1073D000010A564515D2A8EB060A424641465046D8
:1073E000FFF746FE626816445146424666602846EC
:1073F000FFF70CFE2A4649463846FFF739FEBDE83E
:10740000F88F02EB0A0B494642465846FFF730FE1A
:107410006268A6EB0A063244626041462846FFF7DE
:1074200027FE6368534463602A465946E4E7134ADB
:107430003146FFF7F7FDB0F100081DD001DA20F06A
:10744000AAFF1EF0E7FF0646324629462068FFF7EE
:1074500003FE494602463846FFF70AFE61680246C7
:107460002846FFF7F9FD05462068FFF77BFDC4E9D4
:1074700000654644A660C2E74646E5E77DA00400F5
:1074800070B588B00446FFF7AFFD431C05464FF0CA
:10749000000338D0266807939842CDE9053306EB00
:1074A000000102DA194820F07CFF2AD003911EF077
:1074B000B1FF039902465319304605920793FFF72F
:1074C000D7FD22680690535D1D4401354FF000033F
:1074D00001462A448DF8003005A86368FFF768FF6D
:1074E000DDE905126568079B20680695C4E900126E
:1074F000A568A36005900795FFF734FD012008B04B
:1075000070BD0246D7E71846F9E700BF4CA004005B
:1075100007B529B91921FFF7B3FF03B05DF804FBE4
:10752000042241F60313ADF806100DEB0201ADF88D
:107530000430FFF737FEF0E737B50C46012105466A
:10754000FFF752FD431C0DD03CB12B68184444F0AA
:1075500004048470012003B030BD01212846FFF7E8
:107560008FFFF8E74FF4817344F00404032201A96C
:107570002846ADF804308DF80640FFF713FEEAE721
:1075800000F1080373B5044603600D46E1B10846F7
:1075900022F045F90F2805EB0006019007D90022DB
:1075A00001A9204620F008FF019B2060A36020680D
:1075B0003246294620F033FF019B22686360002198
:1075C0002046D15402B070BD014820F0E7FE00BF54
:1075D00095A0040038B50023C0E90633C0E90033A4
:1075E000C0E90233C0E904330384C36243636FF02C
:1075F0000043836390F83C300446022523F00303E4
:1076000080F83C3005762946FFF796FF65762046E0
:1076100038BD418370478183704708B504F0E0FEB0
:1076200030F002030CBF0120002008BD08B505F0B2
:1076300003F8003818BF012008BD38B504460D46D0
:10764000FFF756FE38B194F83C306FF3410384F8ED
:107650003C30012038BD294604F10C00FFF748FEFC
:107660000028F0D1F6E710B58CB0044606A8FFF765
:1076700087FF06A901A801F06FFA01A92046FFF7CC
:10768000DCFF044606A820F0B9FE20460CB010BD71
:1076900038B590F83C30DB0704460D460CD5012286
:1076A0000C30FFF794FD38B194F83C306FF3410390
:1076B00084F83C30012038BD012229462046FFF7DE
:1076C00086FD0028F0D1F6E707B5826801910AB976
:1076D00020F06AFEC36801A9984703B05DF804FB77
:1076E00008B50378092B09D14068162808D8084A3C
:1076F00001238340134203D000F06EFA002008BD3E
:10770000CB6A002BFAD001F12400FFF7DDFFF5E78B
:10771000001848008142F7B504460D461FD0D1E954
:10772000007102688368CE1B9B1AB3421AD2002EE6
:1077300001DA20F030FE304601911EF06BFE019917
:10774000024605463846FFF793FC206808B11EF054
:1077500065FE25603544A56023681E4466602046AA
:1077600003B0F0BD43689B1A9E4203D83846FFF72A
:107770007FFCF1E7F9183846FFF77AFCD4E90002FC
:10778000D5E90031101A1844F1E770B586B00D46FE
:1077900004466846FFF798FC294603A8009EFFF7B9
:1077A00093FCDDE903313046C91A04F003FF0646B5
:1077B00003A8FFF78BF86846FFF788F866B92946F3
:1077C0002046FFF7A7FF94F83C3043F0020384F80B
:1077D0003C30012006B070BD0020FBE770B586B0DC
:1077E0000C4605466846FFF76FFC214603A8009E3D
:1077F000FFF76AFCDDE903313046C91A04F0FBFEED
:10780000064603A8FFF762F86846FFF75FF83EB93F
:10781000214605F10C00FFF77DFF012006B070BD89
:107820000020FBE72DE9F0432C4B1F7889B004467C
:107830000E46154627B90027384609B0BDE8F08343
:1078400004F0FAFE0028F7D100F03EFA074608B12E
:1078500000F0D3FB94F83C309A071CD42146204614
:10786000FFF793FF0028E6D094F83C30DB0712D5F1
:1078700004F10C0105A80391FFF726FCDDE9058959
:1078800005A8FFF723F8C14505D003992046FFF767
:10789000A5FF0028CFD0124BA663002E93F80080DE
:1078A00008BF6FF000461DB128460FF0A7FB054644
:1078B0000C480D4B002F14BF07461F46CDE900743E
:1078C00004F1180332462946404604F099FD30F091
:1078D00002030CBF01270027AEE700BF743700206A
:1078E0006937002021840200E176020008B590F893
:1078F0003C30826B6FF34103014680F83C3022B983
:10790000BDE808401146FFF78DBFC36A13B12430AC
:10791000FFF7DAFE08BD70B50E4601210446701867
:1079200015461DF0A8FBB5F5007F28BF4FF4007584
:1079300000232060A580E3802681204670BD10B51D
:107940000446006808B11DF09AFB204610BD2DE9E1
:10795000F041044688461746F2B1C588838815442D
:107960009D4219DC03890668ADB2AB4205D23046B0
:10797000691C1DF082FB258106466EB11BF0C8FE16
:10798000E0883A464146304421F0FAFC0023266064
:10799000E58073551BF0C4FE2046BDE8F081F8B5C4
:1079A0000368054600240F461646C4801C70FFF786
:1079B000CEFF28683246394621F0D4FC20B9EB8846
:1079C0009B1B58425841F8BD2046FCE77047C36AEC
:1079D0000A46196810B48C680146184623465DF8BB
:1079E000044B184770477047704710B504461EF0A7
:1079F00015FD204610BD70B504461C301D46FFF72E
:107A0000CEFFE06A03682A462146DB68BDE8704085
:107A10001847000070B5D0E90D560C4B03600446C2
:107A2000B54207D055F8040B0028F9D003685B680D
:107A30009847F5E7606B08B11EF0F0FC2046044B58
:107A400040F81C3BFFF77BFF204670BDE0A0040020
:107A5000C8A0040010B50446FFF7DCFF20461EF066
:107A6000DDFC204610BD0000F8B50D4604469C46DE
:107A70001746061D0FCD0FC62B68336000252583E2
:107A8000A5766246142104F11C00FFF744FF064B63
:107A90002360064BE362069B2785C4E90C35C4E9E5
:107AA0000E552046F8BD00BFE0A0040004340020BD
:107AB000008D7047016370472DE9FF471E46BDF8F2
:107AC00030400746154688464FF6FF7300293ED0E2
:107AD000002A3CD09C420DD091B2404609F052FBA6
:107AE0000246F0B1398B2046002E39D006F068FCF2
:107AF000044628E000F0E8F8014601A800F030FC58
:107B0000DDE9019A0024ADB2D14518D0294640469E
:107B100009F038FB024638B9019808B11EF07EFC26
:107B2000002004B0BDE8F08739F8020B398B1EB194
:107B300006F046FC0446E7E706F090FCFAE70198F9
:107B400008B11EF06BFCB4FA84F04009E9E79C42EE
:107B5000398B08D016B100222046C7E732462046AE
:107B600006F07CFCC4E7084607F0DAFC0120D8E701
:107B700007B50022009101231146FFF79DFF03B0D6
:107B80005DF804FB024B002908BF1946C16270472B
:107B900004340020024A0349034820F0F7BB00BF29
:107BA00000340020CD790200043400207047704773
:107BB00010B504461EF032FC204610BD024A0349AF
:107BC000034820F0E3BB00BF00340020AF7B02007D
:107BD0000834002070470000024B1A780AB10022D6
:107BE0001A7070477437002010B504461EF016FC5A
:107BF000204610BD08B50EF077F9BDE808400EF03C
:107C0000FDBE084611460DF005BA0000054B1B6885
:107C10000A46196810B48C680146184623465DF878
:107C2000044B18470C34002010B5134C207810BBBF
:107C30000EF00DF8F8B901200EF009F80246D0B99F
:107C4000014609F03DFA10B10C4B01221A700120D7
:107C50001CF022FD01232370094B1B785BB1094BFB
:107C6000186808B100F057F9074B186818B1BDE85B
:107C70001040FFF73BBE10BD74370020693700206D
:107C800068370020703700206C37002010B504469C
:107C9000006808B11EF0C2FB204610BD38B5094C83
:107CA000236863B920201EF0B5FB054600F08CF96F
:107CB000256007F043FF01F0E1FE01F06FFF20684F
:107CC00038BD00BF78370020014B1868704700BFEF
:107CD0007837002038B5064C236833B940201EF0B1
:107CE00099FB0546FFF776FC2560206838BD00BF8C
:107CF0006C37002007B50190FFF7ECFF01990022D7
:107D000003B05DF804EBFFF78DBD08B5FFF7E2FFA8
:107D1000BDE80840FFF781BC70B5044670B3194B4D
:107D200003201E4653F8042B944228D120460FF01E
:107D3000E1FB356858B195F8283043F0020385F827
:107D4000283028461321BDE870400FF0F9B92369A7
:107D500053B195F8283043F0040385F828302846BD
:107D6000BDE870400FF0FBB92DB128460FF094F933
:107D700028461EF053FB00233360012070BD0138FC
:107D8000CFD1FBE750370020F7B50A4F0646032551
:107D900057F8044B44B1214668460FF0EBF93146E1
:107DA00068460FF02CF910B9013DF1D12C46204660
:107DB00003B0F0BD5037002008B501F079FAB0FAF1
:107DC00080F0400908BD0000014B1868704700BFF3
:107DD0001434002010B50C4604F024FF04B12060D8
:107DE00030F002030CBF0120002010BD30B5044666
:107DF00087B00D461422002101A821F0E9FA0223E0
:107E0000208C8DF8043001A902950BF099FDB0FA91
:107E100080F0400907B030BD30B587B004460D464C
:107E20001422002101A821F0D3FA0423208C8DF81C
:107E300004300DEB03018DF808500BF081FDB0FA12
:107E400080F0400907B030BD08B5006801F000FEC1
:107E5000B0FA80F0400908BD37B5154C2278E2B978
:107E600001900EF023F8134B134A1A61134A5A611A
:107E7000134A9A621A89019822F46F6222F00F0263
:107E800042F003021A810322DA721A73FFF7DCFF51
:107E90000DF04CFD0B480EF07DFD0B4D2B780120B5
:107EA00013B91CF0F9FBF9E7207003B030BD00BF37
:107EB0006837002040350020D97B0200297C020071
:107EC0000D7C0200F57B02007437002008B5084ADB
:107ED0000849094820F05AFA0848054A0849002389
:107EE000C0E900338360BDE8084020F04FBA00BF0E
:107EF00000340020D57B0200103400205C370020C5
:107F00008D7C020070477047704710B504461EF024
:107F100085FA204610BD0146162251F80C0B036865
:107F20001B691847024A0349034820F02FBA00BFD3
:107F300000340020057F020018340020704770478D
:107F4000704770470048704740E201007047704733
:107F500010B504461EF062FA204610BD0846012105
:107F6000FFF75ABF00F1080373B5044603600D46DE
:107F7000E1B1084621F053FC0F2805EB0006019003
:107F800007D9002201A9204620F016FA019B2060A3
:107F9000A36020683246294620F041FA019B2268FE
:107FA000636000212046D15402B070BD014820F02A
:107FB000F5F900BF95A0040010B52C22044600215D
:107FC00021F006FA204610BD027822F00F0202705E
:107FD000054A42600022C0E90222C26102614FF0FC
:107FE000FF324261028370471C3400200378DA07B5
:107FF00044BF43F002030370704703782DE9F74F45
:10800000D907044645D407F02DF9002841D1D4E919
:108010000259A9452ED02868837D0BB32B68D3E97C
:10802000067ABA4524D057F8043BD3E90D6B5E4578
:10803000F7D0286800F016FE804657F8040C04308C
:1080400000F010FE01903068043000F00BFE56F88E
:10805000043B019902461833404607F07DFCE6E7F1
:1080600000F000FE2968143107F068FC0028D5D024
:108070000435CEE723789A0707D56FF341032370C1
:108080004FF6FF71012001F07BFD237843F00103DF
:10809000237003B0BDE8F08F10B500F11402002387
:1080A0001A304FF6FF71824205D032F8024B8C42F3
:1080B000F9D00133F7E7D8B210BD2DE9F0478CB005
:1080C00000AF14460646381D1D46FFF775FF391DE3
:1080D000304603F0F9FE2378032B4FD8DFE803F096
:1080E000022002206368DB8843B14FF6FF739E4293
:1080F00004D02B68391D9B68284698471BF008FB65
:108100006A8CE96960680EF036F804461BF008FBDB
:10811000002C18BF112420463037BD46BDE8F0873B
:108120006468B5F82090E6884E45E84602D90D24EB
:10813000C546F0E709F10703DB08A8EBC3039D463A
:10814000216832466846EA4621F01AF9E46864B1CB
:10815000E288B3189945EADB0AEB0600216821F0B2
:108160000FF9E3881E44B6B2F0E72B683246D3F825
:108170000C9051463B1D2846C847D9E70E24CAE754
:10818000037821B1416062F3820303707047024AB1
:10819000426061F38203F8E71C34002007B50191C7
:1081A000FFF798FD0199002203B05DF804EBFFF79B
:1081B00039BB00002DE9F84FD0E9009893466FF0E5
:1081C0006043A8EB0902B3EBA20F07468A464FEAC9
:1081D000A20402D11D4820F0E4F8012C224638BF49
:1081E0000122A418A1EB09052DD23CB19C4228BF65
:1081F0001C46A0001EF00EF9064600E02646DBF8FD
:1082000000307351002D04DD2A464946304621F0E6
:10821000C5F8A8EB0A080435B8F1000F354404DDB1
:1082200042465146284621F0ABF84544B9F1000FCB
:1082300002D048461EF0F2F806EB8404C7E9006558
:10824000BC60BDE8F88F1C46D3E700BF58A104000E
:1082500010B50A46D0E90114A14204D0126841F8D1
:10826000042B416010BDFFF7A5FFFBE730B585B0DB
:108270000446442001911EF0CDF80199054600F016
:108280007BFA03A904F108000395FFF7E1FF2046FC
:10829000FFF7ACFE039805B030BD10B58CB00446B6
:1082A00006A8FFF75FFE06A901A800F055FC01A98A
:1082B0002046FFF7DBFF044606A820F09FF8204683
:1082C0000CB010BD2DE9F84FD0E9009893466FF03F
:1082D0004043A8EB0902B3EB620F07468A464FEA18
:1082E000620402D11D4820F05CF8012C224638BF00
:1082F0000122A418A1EB09052DD23CB19C4228BF54
:108300001C4660001EF086F8064600E02646BBF8D4
:1083100000307353002D04DD2A464946304621F0D3
:108320003DF8A8EB0A080235B8F1000F354404DD2A
:1083300042465146284621F023F84544B9F1000F42
:1083400002D048461EF06AF806EB4404C7E900650F
:10835000BC60BDE8F88F1C46D3E700BF58A10400FD
:10836000F8B50023C0E900330446836001F1140628
:1083700001F11A054FF6FF77AE4232460FD036F8BC
:10838000023BBB42F8D0D4E90110814203D021F86E
:10839000023B6160F0E72046FFF794FFECE72046E0
:1083A000F8BD42680B4604318A4210B5044604D039
:1083B0001846521A20F0F2FF03466268043A6260DF
:1083C000184610BDF8B50546FFF766FE38BB2F46C8
:1083D000FFF79BFC07F0B2FB01F050FB01F0DEFB66
:1083E00057F8084FEB68A34215D02668B37D6BB1F0
:1083F000022B0ED1304600F0D8F930461EF00EF8B0
:1084000021463846FFF7CDFF0446EBE7304600F043
:10841000EBF90434E6E72B786FF300032B70F8BD1B
:108420002DE9F04393B0054607A80191FFF7C4FD7D
:10843000FFF74AFC2B7801990646122B1BD8DFE880
:1084400013F013003D001A00E8001A001A001A0089
:108450001A001A00E300020135011A00C100800071
:10846000B2001B01F60026016B681A2B05D023B160
:108470000020FFF73FFC00241CE0288907A903F037
:1084800023FD04460028F6D106F1140306F11A076D
:108490004FF6FF719F421A4606D01088884203F1BA
:1084A0000203F7D12B8913807068036807AA9B68C1
:1084B00031469847204613B0BDE8F0836868162817
:1084C00006D8904A01238340134201D0FFF784FB72
:1084D00006F1140306F11A04A3421A4608D01088C4
:1084E000298D884203F10203F6D14FF6FF73138002
:1084F000F36933B12A8D998C914204BF4FF6FF7214
:108500009A843378990702D53046FFF75BFF05F16F
:1085100008070FCF07AC0FC40FCF0FC497E80700B1
:1085200084E807007068036807AADC686B68314656
:10853000A04733781A079ED500213046FFF72EFE5C
:1085400099E7D0E90267B74295D056F8043BD3E9E2
:108550000648A045F7D02368EA881B8B9A4220D1B1
:10856000A88807A903F0B0FC0028ECD12068FFF729
:108570009FFA079911F0010105D110F4606F02D044
:10858000A888FFF727FC21686A7AC86A0368C2F3E3
:10859000C00CC2F34002D3F8149002EB4C0307AABC
:1085A000C8470434D5E7A88807A903F08DFC044622
:1085B00000287FF460AF70682989036807AA1B69E7
:1085C000984777E7D0E90227002197420DD052F86B
:1085D000043BD3E9063C9C45F7D053F8040B6E8965
:1085E000048BA64208BF0146F5E700293FF443AFDC
:1085F0002B7B6A68DB0702D5002A3FF43CAFC86AD0
:1086000003681B69984736E72846FFF769F8044670
:1086100050E7288907A903F057FC044600287FF497
:108620002AAF706803685B6A07A9984742E7A88881
:1086300007A903F049FC002861D10DF127000CF0D7
:1086400092FC012436E7288907A903F03DFC044683
:108650000028F6D17068036807A9DB699847F169BB
:1086600000293FF408AF8A8C2B899A427FF403AF2C
:1086700028460EF099FD1DE7A88807A903F024FC01
:1086800004460028DDD1706803681B6ACCE728899E
:1086900007A903F019FC04460028D2D17068AA7A11
:1086A000036807A99E6AEB7AB04703E7142200210A
:1086B00002A820F08DFE2B79032B11D18DF8083004
:1086C000FFF782FB104B0390984204D17068036857
:1086D0005B6998470390A88902A90BF031F9CAE6B3
:1086E000042B7FF4C8AEA88907A903F0EDFB00288E
:1086F000A7D17068AA68036807A99B6982E702246A
:10870000D8E600BF0018480040E20100024A0349D1
:1087100003481FF03BBE00BF003400203D7F020035
:108720001C34002000F1080373B5044603600D46B5
:10873000E1B1084621F073F80F2805EB000601901F
:1087400007D9002201A920461FF036FE019B2060B8
:10875000A3602068324629461FF061FE019B226813
:10876000636000212046D15402B070BD01481FF063
:1087700015FE00BF95A0040070B50D4604460646E0
:108780000FCD0FC62B6833600021C4E90611A1820A
:10879000A1752162202204F1240020F019FE204658
:1087A00000F060FAA062204670BD036B70B504460D
:1087B0003BB1D86808B11DF033FE206B08B11DF045
:1087C0002FFED4E90656AE4207D055F8040B002818
:1087D000F9D003685B689847F5E7A06908B11DF018
:1087E0001DFE204670BD00002DE9F04F036B87B0E1
:1087F000044673B9236BABB9D4E9063200259A421B
:10880000194619D00968897E04330029F7D101354A
:10881000F5E7FFF759FA03789B07EBD4012007B07F
:10882000BDE8F08FD86808B11DF0FAFD206B002874
:10883000E2D01DF0F5FDDFE7002D00F09980544AED
:108840006B1C93429ABF1C2058434FF0FF301DF021
:10885000E3FD06460346002D08DB18461C220021D6
:1088600020F0B6FD03461C33013DF4E7E369A5693A
:1088700001934FF000094FF01C0B019BAB4276D0E7
:108880002B689A7E002A70D1D3E90D319046994227
:108890001A4607D01268927E0433002AF7D108F1F5
:1088A0000108F4E7B8F1000F46D008F10100B0F17B
:1088B000006F34BF00014FF0FF301DF0ADFD0746E3
:1088C0000346B8F1000F09DB18461022002120F002
:1088D0007FFD0346103308F1FF38F2E72B689A6BEF
:1088E000D3F8348002924FF0000A029B434520D017
:1088F000D8F80000827E0592C2B94FEA0A1107EB50
:108900000A1304300491039300F0ACF90499039B1B
:108910007850D8F80010059A098D19715A711D4ABE
:108920009A60D8F80020DA600AF1010A08F1040818
:10893000DBE70BFB0963DF602868043000F092F985
:108940000BFB09F806EB0807124B46F808007B60A2
:108950002B68BB602868FFF7ABF80023BB742B685B
:10896000388218337B6109F10109043585E72663F4
:10897000012304F8243F204607F03CF830B9204694
:1089800007F010F8B0FA80F0400948E7002046E709
:1089900024499204BB8002002DE9F843D0E906582F
:1089A00089461646002445452F460FD0386849466B
:1089B0000430043500F058F90028F4D0B44202D154
:1089C0003868BDE8F8830134A4B2ECE70020F8E78A
:1089D0002DE9F84FD0E9009893466FF06043A8EB7B
:1089E0000902B3EBA20F07468A464FEAA20402D15E
:1089F0001D481FF0D6FC012C224638BF0122A418C6
:108A0000A1EB09052DD23CB19C4228BF1C46A00019
:108A10001DF000FD064600E02646DBF800307351ED
:108A2000002D04DD2A464946304620F0B7FCA8EB6D
:108A30000A080435B8F1000F354404DD42465146BA
:108A4000284620F09DFC4544B9F1000F02D048466D
:108A50001DF0E4FC06EB8404C7E90065BC60BDE8DA
:108A6000F88F1C46D3E700BF58A1040010B50A4692
:108A7000D0E90114A14204D0126841F8042B4160EE
:108A800010BDFFF7A5FFFBE773B58B7E0191044690
:108A9000084673B1D4E906250023194695421646C7
:108AA00007D03668B04202F10402F7D18176012383
:108AB000F4E7D4E906259542114609D009688842B1
:108AC00002F10402F7D12146FEF7F4FF02B070BDB7
:108AD00023B901A904F11800FFF7C8FF2146019846
:108AE000FEF7E8FFFFF7F0F8FFF780FAEEE77FB553
:108AF000044640200391164602931DF08BFC029B16
:108B000003990094B2B205460291FEF7ADFF0299B7
:108B100000222046FFF740FF20462946FFF7B4FF1A
:108B2000284604B070BD10B58EB0044608A8CDE943
:108B30000032FFF7F7FD08A903A800F00DF8DDE902
:108B4000003203A92046FFF7D2FF044608A81FF011
:108B500055FC20460EB010BDF0B50D4687B014226E
:108B60000021044620F034FC6B68042B09D110224C
:108B700028682270002120F07BFF6080204607B02B
:108B8000F0BD082B08D12023286823701022002173
:108B900020F06EFF6060F1E7102B0CD12B68621C97
:108BA00003F1100153F8040B42F8040B8B42F9D186
:108BB00080232370E2E7242B41D12868102201A9E9
:108BC00020F0D0FE05460198102201A9013020F0C6
:108BD000C9FE0F042B4647EA1047050401980026FA
:108BE00075194FF0100201A900F1010043EB0707CE
:108BF00020F0B8FE281847EB0101CDE902010198E9
:108C0000102201A9013020F0ADFE05460198102286
:108C10003146013020F0A6FE2A04301842EB010153
:108C200002ABCDE9040103CB04ABC4F80900C4F8DE
:108C30000D1003CBC4F80100C4F80510B8E70023F9
:108C4000B7E7007870470378202B05D0802B05D03C
:108C5000102B05D102307047043070470130704747
:108C600000207047704700002DE9FF410578064657
:108C70000C46002D60D00A78002A5DD0AA4234D07C
:108C80002E4B6F4603F1100EB84618685968BC4663
:108C9000ACE80300083373456746F6D1802D15D143
:108CA0002046FFF7D0FF102A01460CBF0222042203
:108CB00003A820F065FB3046FFF7C5FF10224146B0
:108CC00020F050FBB0FA80F040091BE0802A33D13D
:108CD0003046FFF7B8FF102D01460CBF02220422D8
:108CE00003A820F04DFB2046E6E7102A0DD1FFF740
:108CF000AAFF02460846FFF7A6FF138800881B1A42
:108D00005842584104B0BDE8F081202A08D1FFF74D
:108D10009AFF02460846FFF796FF13680068EEE7E1
:108D2000802A09D1FFF78FFF05460846FFF78BFF22
:108D3000102201462846C3E70020E3E7A8A104006B
:108D400010B5C0E90012836004461BF003FEE0602A
:108D5000204610BD70471FB54A1C08461AD1029123
:108D6000002403AB00944FF00042214620461BF044
:108D7000D7FE039BA34211DB029B00934FF00042FE
:108D80002346214620461BF0CBFE431E5842584145
:108D900004B010BD02A90EF010F9E1E70120F7E7D9
:108DA00007B54160C06830B10021009101234FF048
:108DB00000421BF00BFF03B05DF804FB064BD3F839
:108DC00050253AB122F00801042903D1D3F85015F7
:108DD0009142FAE7704700BF00100040F0B5283913
:108DE00022B11F4B1F4A9B7AD35CC91A1E4DD5F87E
:108DF0004035D5F804259B1A23F07F4311F11D0F50
:108E000003F1FF33B5BF841E00F1FF343D271E2759
:108E1000022B24F07F461FD9B31A13F4000023F06D
:108E20007F4219D1022A17D9104B012239441A6006
:108E3000C3F83415C3F834014FF48033C5F840014A
:108E4000C5F84065C5F84433094B4FF00042C3F8FC
:108E50000425034B1C63F0BD4FF0FF30FBE700BF60
:108E60007C37002088A3040000B000400C80004044
:108E700000F00140314A3249D079324BF0B13248EA
:108E8000C3F8040503F56043C3F80C05C3F81015D7
:108E90002E49C3F814152E49C3F804152D49C3F8FB
:108EA00008150021C3F80012C3F80811C3F8041113
:108EB0000121196003F580334FF00071C3F80415E8
:108EC000137AA3B3244B0321C3F800152349C3F835
:108ED00008152349C3F814150021C3F80011C3F87D
:108EE0000411C3F808111F4B4FF48011C3F8081583
:108EF0004FF40001C3F808150123D3700021114B72
:108F0000917151730822C3F8602540F25312C3F8DF
:108F10000411C3F81411C3F82811C3F81C11C3F8C5
:108F20003011C3F800221222C3F804237047D3790A
:108F3000002BD8D10849C1F80035D4E77C37002090
:108F4000BB38002000100040B4370020C03A002099
:108F5000010000019882002000F00040648D002094
:108F60008C37002000F001400A4A43F2FF43C2F868
:108F7000083301210023C2F800321161064A074973
:108F8000C2F80815064A0221C2F88011054AD370BA
:108F9000704700BF0010004000F00140F000B082B8
:108FA00000E100E07C37002010B51AF0B1FB114B56
:108FB000012200241A60C3F83425C3F834410CF0B0
:108FC000CBFF0D4B033020F07F42C3F84041C3F884
:108FD00040254FF48032C3F8442303F5A0334FF00B
:108FE0000042C3F80425054B18631AF099FB20468C
:108FF00010BD00BF0C80004000B000407C37002056
:1090000083072DE9F04106D0234B244A24484FF42E
:10901000F9711DF0ABFC8B684D79B3F800E00A8A5A
:10902000AEEB0505043D0F46AA42944628BFAC4668
:109030002CF0030C3E68A7F806C0A2EB0C02E04639
:10904000444603E050F8083046F80830B8F1040808
:10905000F8D500193619032A03D8A5EB0C05AA4246
:1090600002D9FF687546DFE7FB881344FB8001E007
:10907000835CB354013AFBD50A4C01F1180304F1A7
:109080001005224603CAAA4218605960144603F12B
:109090000803F6D1BDE8F081B8A1040003A30400E1
:1090A000D2A104009437002010B5154B01289C7AFA
:1090B000144B05BF144AD3F84835D3F84035525CF9
:1090C00012490CBF993328331A44114B1B5D114CC4
:1090D00028331A440B4BC3F84C250022C3F84C210B
:1090E00030200122C1F804052260D3F84445D3F8AA
:1090F0004C359C4282BF084BC1F808051A6010BD70
:109100007C370020008000408CA3040000F0014068
:1091100080A3040044800040101000402DE9F84373
:10912000334F344D344840F201137B812823BB7008
:10913000324B0024012643F2FF423E734FF00308F6
:10914000C3F8FC4FC3F8FC6FC3F808232C4AC3F8DC
:109150001085C3F814252B4AC3F81825D3F85026D8
:109160003243C3F8502640F20312C3F82C45C3F82B
:109170003065C3F8342540F25B62C3F838254FF000
:10918000FF399622C3F844252146C5F808934FF4C9
:109190008672C5F80062C5F8084120F019F91A4B2B
:1091A0003C61C5F80835194BC5F808930422C5F889
:1091B0000041C5F80441C5F80841C5F80445144DFF
:1091C0001E60DE60C3F80485C3F80045C3F80C25B3
:1091D00000F098FB0F4985F8014330460DF032FC52
:1091E00002232B603B7803B93E700020BDE8F88372
:1091F0007C37002000F00040C03A00200010004002
:1092000008011000FF000302648D0020048000406C
:1092100000E100E065930200094B00F1100250F8F4
:10922000041B43F8041B9042F9D1064B0122DA716A
:10923000054B0022C3F800250222C3F80025704721
:10924000988200207C37002000F00040034A036829
:10925000C2F819304368C2F81D3070479882002068
:10926000024B186159611A76704700BF988200203E
:10927000094B4FF00072C3F80825A3F57F43F83B74
:1092800001221A60054A0023C2F80831C2F80035ED
:10929000034AD371704700BF00F0014000F0004066
:1092A0007C370020014BC3E90A1070477C3700204F
:1092B00010B540B200F04CFB044600F043FB024BFB
:1092C0005C70002010BD00BF7C37002008B540B2A4
:1092D00000F03EFB08BD0000272810B506D9104B52
:1092E000104A114840F642011DF040FB0F4B0C02A2
:1092F000C3F81C45D3F8244524F0FF0444EA116464
:10930000C3F824450A4C6161C3F83C25094AA070A2
:10931000125CC3F80825C3F85405002010BD00BF37
:109320002FA2040048A30400D2A1040000100040B2
:109330007C37002058A30400074A08B501231360B6
:10934000D360064B4FF48032C3F84823FFF70CFE7E
:10935000034B00225A7108BD0480004000B0004059
:109360007C370020F8B5B04BB04CD3F8047317F03D
:10937000020F47D0D3F80421002A43D0002502224F
:10938000C3F80451C3F8082303F5F0333022C3F8BF
:1093900008250FF005FD226BA378A5492262A3766C
:1093A0000123E5766377D1F84455A37AA149A377E1
:1093B000CB5C208328339D4238BF1E35A5EB0305C7
:1093C00038BF02F1FF32284638BF22630CF0C8FDD7
:1093D00006460CF0CDFD2D1A1F2D206A924B04BFBE
:1093E000013600253044C4E90805D3F85025D3F8E8
:1093F0002811F9B9002AF8D143F2FF41C3F8081344
:10940000C3F80022FB063FD5874BD3F81021002A72
:109410003AD0D3F80C21E178002A38D1012902D1C1
:10942000A279002A33D0844B844A40F2D551844833
:109430001DF09CFA237AF3B1824AD37859061AD5E3
:1094400003F00F03072B0CBF02230023D91C0A448F
:109450007D49C1F81025A1F560410022C1F82821FD
:109460007A4A4FF40000C2F80405627B083302EB2D
:10947000C303C1F86035764AA17876480FF020FC26
:10948000002878DB0123A37100236371F8BD00225B
:1094900010200129C3F80C21C3F81021C3F80803D8
:1094A00006D002296DD06C4B644A4FF4BE61BEE712
:1094B000A079002862D0654A4FF40011C2F808155F
:1094C000D3F81C2122B9654B654A40F2BB41AEE797
:1094D000D3F84825D3F83031524213F0FF0F2277EA
:1094E0001BD0238B43F080022283E279AAB1564A33
:1094F000D2F804110029FBD05249097929B1D2F8D8
:10950000002412B943F0A00323834F4BD3F8083152
:109510001BB1238B23F080032383454AA17F51484D
:10952000D2F84835415C5048504E6E335B1AA17AF0
:10953000415C46485B1A0021C2F840354FF4801563
:10954000C2F840110121C0F804553160D2F84C65D1
:10955000B34205D2D2F8403113B9C0F80855617151
:1095600038483B4903794371C37800F8043F0FF052
:1095700033FC002888DAFFF7DFFE85E70FF082FB77
:1095800082E7E379A77A2BB12F4BD3F8081109B101
:10959000C3F80821E36A25790BB1A06A9847022D28
:1095A000234E17D1FFF766FC002239460120FFF752
:1095B0007BFD2F4BD6F84825DB5D6C321344C6F893
:1095C00040350023C6F84031204B4FF40012C3F859
:1095D000042559E7032D57D1254BDD5D94F836302E
:1095E000002B47D0D6F84835A08E1844A37A1E4ADF
:1095F000D35C283DED1A0E4B28440022C3F84005E9
:10960000C3F840211948114A4FF480110125C2F8CE
:1096100004150560D3F84C05D3F8403598427FF621
:1096200033AFC2F808152FE7001000407C37002048
:109630000080004080A3040048A204003CA3040072
:10964000D2A10400B838002000F0004000F0014032
:1096500094370020BB3800209AA30400BEA2040067
:1096600029A3040084A3040088A304004C800040C4
:109670008CA304003846D6F8446514F061FDA38E2F
:1096800033442B44181AB1E70B4A012313603361AA
:109690000A4B3022C3F808254FF48012C3F808257E
:1096A0004FF00042C3F80825002D3FF4EDAE044B07
:1096B000044A40F28A41BAE60480004000F00140CA
:1096C000DDA2040016A3040010B5094C4FF40013EA
:1096D000C4F808350122FFF781FB18B1FFF72CFE13
:1096E000052010BD4FF48013C4F80435F9E700BF1E
:1096F00000F0014010B5FFF761FB0E4AD2F850159B
:10970000134649B1D2F8502502F00702022A03D0CD
:10971000FFF712FE012010BD002443F2FF42C3F800
:109720000823C3F80C41C3F81041FFF7A3FB204600
:10973000F1E700BF0010004038B50C4D4FF4801326
:10974000C5F808350022FFF749FB68B1FFF72CFC8C
:1097500001244FF40013C5F80435FFF7CBFF10B90F
:10976000002C18BF062038BD0446F2E700F0014087
:109770000B4A08B501231360D3600A4B4FF48032C3
:10978000C3F84823FFF7F0FBFFF70EFC064B4FF43E
:109790000012C3F80425BDE80840FFF7ABBF00BFC7
:1097A0000480004000B0004000F001402DE9FF417E
:1097B000334C80466079164628B1FFF7BDFD052081
:1097C00004B0BDE8F0810191FFF7F8FA2D4B2E4F60
:1097D00001993022C3F808254FF40002C3F8082588
:1097E0004FF00072C3F80825E279A3F58033002A10
:1097F0003CD00122C3F80022244D254AC3F80C5561
:10980000C3F81075C3F814254FF08072C3F808012F
:10981000C3F804251F4AC3F808250DF10F02E81C00
:10982000C0479DF80F302B700023AB70E379687050
:1098300013B1194B01221A60184900230322C1F801
:109840000475C1F80031C1F80C31C1F81031C1F80C
:1098500000221022C1F8042326716072D1F850252D
:109860000B2A08D00222E2701846A9E70C4AC3F876
:1098700008253D46D1E7FFF75FFD0120A0E700BFC7
:109880007C37002000F00140BC390020B4370020B4
:10989000C03A00209882002000F0004000100040F4
:1098A000648D0020014B5869704700BF7C37002051
:1098B000014B9879704700BF7C370020024BD3F8EA
:1098C0005005C0B2704700BF00100040FB20704739
:1098D000044B1A78044BC3F80425044B01221A7276
:1098E000704700BF608D002000F000407C370020F2
:1098F000014B00221A7270477C3700201DF0A4B87B
:109900001DF0DEB80D4B4FF08062C3F804254FF018
:109910000062C3F804250A4AC3F8302502F5DE4286
:109920004832C3F8342502F58072C3F83825A2F511
:10993000E2423C3AC3F83C25704700BF00F00140CA
:1099400004110040014BC3F80C05704700100040A3
:1099500007281ADC25D0062823D0052821D0042882
:109960001FD003281DD0002811DA031D11DA10F1D1
:10997000080F11DA10F10C0F11DA10F1140FB4BF47
:109980006FF027006FF01300704708207047002029
:1099900070476FF0030070476FF0070070476FF07B
:1099A0000B007047936813B5186814460BF08AFBD8
:1099B00028B91F4B1F4AF1211F481CF0D7FFB0F5F3
:1099C000285F08D042F6012398421CD01B4B194A4D
:1099D0004FF49471F0E7237863B919481FF01FFF23
:1099E000174982B260680CF0C6FB002818BF11202E
:1099F00002B010BD012B114B02D1124A8721DBE7C7
:109A00000C4AFA21D8E723783BB90F4B1B88ADF8F5
:109A1000063002220DF10601E4E7012B08BF0B4AD4
:109A2000064B16BF034AB02140F20511C4E700BF40
:109A300090A3040052A404009CA304009AA3040071
:109A40008034002009A40400CC3B00202EA4040094
:109A500037B501901FF0E3FE1F2804460AD8064DD3
:109A60000199024628461FF08BFC00232B5518460F
:109A700003B030BD0320FBE78034002008B50A485E
:109A800005F0B8FF30B1094B094A40F26F1109489F
:109A90001CF06CFF044805F085FF20B1034B044A1D
:109AA0004FF4B971F3E708BD78A4040001A40400E1
:109AB00065A404009CA3040010B51478134634B9BF
:109AC0000449586801220CF056FB204610BD0320C3
:109AD000FCE700BFD23B002037B5137815467BB9B1
:109AE00001220DF1070105F06DFD044678B96868A3
:109AF00001220DF107010CF03EFB204603B030BD02
:109B0000012B06D1516805F07BFD0446F5E70E24D4
:109B1000F3E70024F1E7000070B5147815462CB186
:109B2000104B114A942111481CF020FF5068042169
:109B30000CF040FD064690B1AA680D4B9A4203D046
:109B40000C4B094A9C21EEE70B4B19880CF02CF9C1
:109B50000A4BB01C19880CF027F9204670BD06206E
:109B6000FCE700BF98A404005DA50400C0A40400A5
:109B7000B034002027A50400D43B0020D03B0020B7
:109B8000034B1880034B1980034B188805F0C8BCA1
:109B9000D43B0020D03B0020CE3B002008B5094834
:109BA00005F028FF28B1084B084AE72108481CF0B7
:109BB000DDFE044805F0F6FE18B1034B034AEA2126
:109BC000F4E708BD84A5040001A4040071A5040005
:109BD000C0A404002DE9F34110F0400805460E46EC
:109BE00017461C460ED11868018A0CF06FFB06233D
:109BF000CDE9008322682B463946304600F0DAFE74
:109C0000C4F8008002B0BDE8F08107F0EEBA7047FA
:109C1000172938BF17218181704710B5044607F016
:109C200013FE30B1A38923B16089984228BF18463A
:109C300010BD1720FCE710B50C46FFF7EEFF218A98
:109C40000B1A002B05DD411A2046BDE810400CF030
:109C50003DBB10BD1FB5CDE9001006F09FF8DDE952
:109C6000001002AB03AA07F0C0FA40B90298FFF750
:109C7000D4FF044606F094F8204604B010BD00243A
:109C8000F8E7000008B507F0BFFD38B104230381F1
:109C9000C380034B1B884381024B836108BD00BF17
:109CA000D63B0020119D020002381E2811D8DFE8A3
:109CB00000F01210121012101210121012101210C6
:109CC000121012101010121012101010101210108A
:109CD000120000207047012070470138202812D858
:109CE000DFE800F0131113111311131113111311E5
:109CF0001311131113111311111113111311111148
:109D0000111311111300002070470120704700004B
:109D10002DE9FF41044607F0C7FD4FF6FF73984257
:109D200005463BD0206926890DF107030122002159
:109D300004F110070CF0A4FA70BB042E16D19DF8A4
:109D40000700FFF7CAFF88B106F028F802AA03ABA4
:109D50003146284607F061FA024638B9029803995D
:109D600080F8742000F08EFB06F01AF89DF80700CA
:109D7000DFF86080002398F80020904210D004D3D0
:109D800001331F2B08F10808F5D13B46324629461E
:109D9000FFF720FF082418E0042416E0072414E04D
:109DA000206901210CF092FAD8F804303A46314685
:109DB00028469847044640B1082C06D19DF8070074
:109DC0003B4632462946FFF705FF204604B0BDE872
:109DD000F08100BFA4A50400024B4FF480721A80EA
:109DE00000207047D63B0020F8B506460F461046C7
:109DF0000421154607F0DAF9044640B92B681A68C1
:109E00003946D378B2F80120304604F02DFB2046C5
:109E1000F8BD30B5162985B005460C463BD905F08E
:109E2000BDFF01AB02AA04212846FFF7EEFE28B1D0
:109E300005F0B6FF0724204605B030BD019B9B7B93
:109E4000DB0709D405F0ACFF022103AA084600F0A5
:109E500006FB28B90624EEE705F0A2FF0224EAE794
:109E60000480039A0421284600F04EFB0446002893
:109E7000E1D105F093FF01AB02AA04212846FFF7C8
:109E8000C4FE044620B9019A937B43F00103937307
:109E900005F086FFCFE70324CDE7F7B506460F466A
:109EA00010460221154607F081F9044630BB2B68A5
:109EB0001D6805F073FF224601AB39463046FFF7B7
:109EC000A4FE0446C0B929880198FFF7A1FE0198B5
:109ED000FFF7A3FE054605F063FF24B92A460421D7
:109EE000304603F0B2F830462B462246042104F0F7
:109EF000D5FA204603B0F0BD0025ECE70025F2E7D7
:109F0000F7B506460F461D46144682B19A420ED852
:109F1000042101AA084600F0A2FA50B1048045804D
:109F2000019A3946304600F0EFFA03B0F0BD032045
:109F3000FBE70620F9E72DE9F047074686B088469B
:109F400010460121144607F031F9054640B9206852
:109F50000121D0F800A00CF0B9F923681B8A43B99D
:109F600038462A46414604F0E6FA284606B0BDE8DF
:109F7000F0879AF80060012E1CD0022E25D14FF0F8
:109F800012094946204607F011F918BB23681868E2
:109F90000BF025FF012EADF800000ED0022E16D0DA
:109FA000206849460CF092F96A464146384604F06A
:109FB00099FAD2E74FF00409E3E702231A46216831
:109FC00001A80BF0A1F80028EAD00A25C8E7102361
:109FD0003246F4E70546C3E72DE9F341DDF8288072
:109FE00006460F461D461446D2B19A4218D801AA19
:109FF00008F10601062000F032FA98B1BDF82030D1
:10A000000999048045808380424606301FF0B8F9E4
:10A01000019A3946304600F077FA02B0BDE8F08187
:10A020000320FAE70620F8E773B505460E46144606
:10A0300023681A8A32B92846314604F0C9FA00204A
:10A0400002B070BD0421204607F0B0F8B0B9206816
:10A05000036859781A7842EA0122ADF804209A7808
:10A06000DB78042142EA0323ADF806300CF02EF928
:10A0700001AA3146284604F080FAD9E70A22DAE735
:10A080002DE9F341DDF8208006460F461D461446B3
:10A09000C2B19A4216D840460BF072F801AA011DCF
:10A0A000082000F0DCF978B1011D048045804046AD
:10A0B0000BF03CF8019A3946304600F025FA02B020
:10A0C000BDE8F0810320FAE70620F8E72DE9F04328
:10A0D000064685B00F4610460121144607F066F883
:10A0E000054670B92068036893F8008001210CF0E0
:10A0F000EDF8B8F1010F28D9A8F1020923681B8AED
:10A1000043B930462A46394604F09EFA284605B03F
:10A11000BDE8F0834146204607F048F8B8B9236807
:10A120001B6859781A78CDF8089042EA0122ADF8F8
:10A13000042002333946304601AA039304F06CFA36
:10A14000206841460CF0C2F8D8E70A25D9E7054651
:10A15000D7E773B505460E4614466AB101AA022137
:10A160000A2000F07CF948B10480019A3146284663
:10A1700000F0CAF902B070BD0320FBE70620F9E742
:10A1800008B51346002204F0C9FA002008BDF7B54F
:10A1900005460E461F46144672B101AA04210C2042
:10A1A00000F05DF950B104804780019A314628469D
:10A1B00000F0AAF903B0F0BD0320FBE70620F9E7A1
:10A1C00008B51346002204F0C1FA002008BD13B5FB
:10A1D000002413460094224604F0CBFA204602B035
:10A1E00010BD082070472DE9F341DDF820800646B8
:10A1F0000F461D461446C2B19A4216D840460AF090
:10A20000BFFF01AA011D102000F029F978B1011D3E
:10A210000480458040460AF089FF019A394630465D
:10A2200000F072F902B0BDE8F0810320FAE70620E1
:10A23000F8E72DE9F043064685B00F4610460121A8
:10A24000144606F0B3FF054658B92068036801219B
:10A2500093F800800CF03AF8A8F1040923681B8AEF
:10A2600043B930462A46394604F034FA284605B048
:10A27000BDE8F083B8F1040F21DD4146204606F029
:10A2800095FFF0B9236818680BF0A9FD2368ADF8B5
:10A290000400186802300BF0A2FD2368ADF8060038
:10A2A0001B68CDF8089004333946304601AA039361
:10A2B00004F0E2F9206841460CF008F8CEE70425E6
:10A2C000CFE70546CDE708B504F06DFA002008BDDC
:10A2D0002DE9F341089D074688461C46164602B301
:10A2E0002B8A2344B3F5007F1BDCFFF7B3FC2B8ADA
:10A2F0000438984215DD01AA0421162000F0AFF8B9
:10A30000A0B144800680294601980CF037F9019AE3
:10A310004146384600F0F8F80446204602B0BDE851
:10A32000F081032428460BF013FFF6E70624F9E733
:10A330002DE9F74306460F4610460421154606F060
:10A3400035FF0446A0B9286803680421B3F80090DB
:10A35000B3F802800BF0BAFF3046CDE900854B46DA
:10A360002246394604F030FA204603B0BDE8F083B7
:10A370004FF00008C146EFE773B504460D46164698
:10A38000012101AA182000F06AF838B10670019A7C
:10A390002946204600F0B8F802B070BD0620FBE761
:10A3A00008B5002204F02EFA002008BD73B5064659
:10A3B00015460C4699B101AA02211B2000F04FF866
:10A3C00090B10480294601980CF0D8F8019A042134
:10A3D000304600F099F80446204602B070BD0324D0
:10A3E00028460BF0B5FEF7E70624F9E7F7B5064671
:10A3F0000F461D4614469AB101AA02211D2000F005
:10A400002EF890B10480294601980CF0B7F8019A13
:10A410003946304600F078F80446204603B0F0BDD7
:10A42000032428460BF094FEF7E70624F9E708B565
:10A4300004F000FA002008BD013170B589B206466B
:10A44000104615460CF0B6F8044620B928460BF025
:10A450007FFE204670BD2C6804F8016BF9E737B524
:10A4600015460446019106F087FE0246286030B189
:10A470000199204603B0BDE83040FFF7DDBF03B0CF
:10A4800030BD000070B505460E4614465AB990F826
:10A490007430C3B9C46EB4B16368C36613B900F154
:10A4A0006C030367103C23681878FFF7FDFB78B155
:10A4B00095F874304BB1002363612B6F04F11002E7
:10A4C00014341A602C67002070BD012385F87430A5
:10A4D00023681878FFF79BFB21463046FFF7ABFB5C
:10A4E00022463146284607F081FA0028EBD0034B7C
:10A4F000034A04485B211CF039FA00BF01A40400A0
:10A50000F4A604009CA6040030B585B01546019061
:10A5100005F044FC019802AB03AA042106F07DFE7D
:10A52000044638B105F03CFC28460BF011FE2046ED
:10A5300005B030BDDDE902102A46FFF7A3FF04464F
:10A5400005F02EFCF3E710B5144606F02FFE0628A2
:10A550000CBF1123002304B1237010BDF8B5069F72
:10A560001D463B78102B038A16460CBF0622142288
:10A5700013448B4211DC11460CF01CF8044670B1F8
:10A5800031460BF011FC2946A01C0BF00DFC211DDF
:10A5900038460AF0CBFD0020F8BD0420FCE7062079
:10A5A000FAE7000010B5034C20681AF068FD00239C
:10A5B000236010BDD83B002013B50C46019005F078
:10A5C000EDFB019805F086FE836D236002B0BDE8C7
:10A5D000104005F0E5BB00002DE9F0470646147A6F
:10A5E000A0B017461D468846A1B1E00705D4022356
:10A5F0002B70102020B0BDE8F08704F0040A04F0AE
:10A60000080904F0100444EA090353EA0A030CD1D0
:10A610000020EFE7A10701D40323E9E704F0200AB3
:10A6200004F0400904F08004EDE769463046FFF786
:10A63000C3FF364B5B7A13F0100F9DF8003011D03A
:10A6400003F00302032A04D005232B7040F2051007
:10A65000D0E703F0F802802A04D00C232B704FF4CB
:10A660008670C7E759EA0A0231D013F0010A29D1EE
:10A6700005F094FB304605F015FE78B103A905F00E
:10A6800047FEDDF81300BDF817209DF819308DF84E
:10A690000BA00190ADF808208DF80A3005F080FB82
:10A6A0000AA901A80AF02BFB50B99DF8503013F00D
:10A6B000010F0CBF05200F20287000F5807099E76E
:10A6C0000520F9E7B9F1000F01D09A07BCD57A7AD5
:10A6D000B2EBD30FC1D8002C9AD005F05FFB304607
:10A6E00005F0E0FD044605F05BFB94F85930DB070C
:10A6F0008ED479894246304602F0D7FC022887D1B1
:10A7000008232B704FF4847074E700BF403500209D
:10A710002DE9F04186B00546039300238DF81730EC
:10A720004FF6FF7398420C9F0C4616460FD12369D3
:10A73000019303AB0093D4F80C8061893346012266
:10A740002846C04778B18DF81700092007E00A466F
:10A750000DF117030121FFF73FFF0028E7D017B1E4
:10A760009DF817303B7006B0BDE8F08173B5044624
:10A770000DF1060015461E460BF016FB02220DF1E8
:10A78000060120460BF0F7FC20B1112333700620A0
:10A7900002B070BD29460DF106000BF005FB022248
:10A7A0000DF1060120460BF0E6FC0028EDD101205A
:10A7B000EEE7000010B5044640B180680BF0C8FC1D
:10A7C00021460348BDE810400CF094B810BD00BF0E
:10A7D000483C0020F0B51D4685B04FF6FF730C468F
:10A7E00098424FF00001064617468DF80F100DD124
:10A7F00023696189CDE900730222E76800233046AE
:10A80000B84750B18DF80F00092006E00DF10F0395
:10A810002246FFF7E1FE0028EAD015B19DF80F307F
:10A820002B7005B0F0BD2DE9F04385B00446DDF88E
:10A830003490039190461F4606F09EFC054600B3F7
:10A8400003460399CDF8009020460022FFF760FFF1
:10A85000044630B92E8A46450AD90E2389F80030BD
:10A86000042428460BF074FC204605B0BDE8F083B4
:10A870003B460146324628460BF002FD0C9B1E80EB
:10A88000EFE70624EDE700002DE9F041804612488D
:10A890000F4616461D460CF006F80446B8B10F4B9D
:10A8A000C0F804801A880772013292B21A80069B9F
:10A8B000C360079B03610A4B4672596842810020BE
:10A8C00020600C605C6025B12A80BDE8F081062024
:10A8D000FBE72846F9E700BFDC3B0020003C0020F6
:10A8E000043C0020014B1888704700BF003C00204A
:10A8F000044A0346106800B9704742899A42FBD067
:10A900000068F8E7043C002037B505460846019288
:10A910001C46FFF7EDFF019A014628B90CB101234F
:10A920002370052003B030BD2346284603B0BDE8A0
:10A930003040FFF74FBF000070B50D46164640B9D6
:10A940000A4B1C681CB16389B34204D90024204619
:10A9500070BD0468F6E7002DF9D0606829460AF05A
:10A9600096FB0028F3D02468ECE700BF043C0020ED
:10A97000026822B14068401A20EAE07070476FF028
:10A980000040704737B504460846CDE90032FFF76E
:10A99000AFFF069DDDE90032014628B90DB1012364
:10A9A0002B70052003B030BD204603B0BDE8304019
:10A9B000FFF7AEBE2DE9F84304460D460120042101
:10A9C000BDF820909DF8248016461F46FFF734FD01
:10A9D00058B1077080F80380A0F8019032462946EC
:10A9E0002046BDE8F843FFF78FBD0620BDE8F88399
:10A9F0002DE9F34106469DF824800F461C46154676
:10AA000042B1B8F1000F1DD05BB1218A20460BF096
:10AA10005DFC0AE01A46FFF777FD054688B14FF066
:10AA20000E0806F0A9FB044660B1BDF8283000937B
:10AA3000CDF804809DF82030224639463046FFF795
:10AA4000B9FF002420460BF083FB284602B0BDE886
:10AA5000F0812DE9F043042989B006460D46904661
:10AA60004FF000096AD10DF1170202214046FFF7AD
:10AA70006AFD044600285ED1D8F800301B681F88A4
:10AA80008DF8170005F08AF9224607AB29463046B3
:10AA9000FFF7BBF8044610B9079BB3F80A9005F01E
:10AAA0007FF9002C45D1D8F80050C8F80040298A19
:10AAB00028460BF00BFC2A4602210320FFF7BCFCC2
:10AAC000A0BB11238DF817300624002302939DF8B4
:10AAD000173001930223009322462B46042130466F
:10AAE000FFF786FF0446E8B905F058F906AB07AA58
:10AAF00004213046FFF789F8044658B939460698CC
:10AB0000FFF786F80698837B43F001038373FFF712
:10AB100084F8074605F044F924B93A460421304642
:10AB200002F093FA204609B0BDE8F083A0F8009047
:10AB3000CBE70025C9E74D464F46C6E70824F1E7B5
:10AB40002DE9F04F16468BB081468A4600240DF160
:10AB50002702042130468DF82740FFF7F4FC054614
:10AB6000002876D134682368B3F800805B880593A9
:10AB7000984502D8B8F1000F14D101238DF8273081
:10AB800000240A259DF82730019304230093CDF873
:10AB9000088023462A4651464846FFF729FF0BB056
:10ABA000BDE8F08F218A306020460BF08FFB2246F3
:10ABB00001210520FFF740FC074620B911238DF83D
:10ABC00027300625DEE751464846FFF743F8224B7B
:10ABD0003D701E680690AB461EB17389059A9A4275
:10ABE00005D2BBF1000F16D04FF00008CAE7984518
:10ABF0002DD871683B780978102914D183B90123C5
:10AC00003B700421238A069A0B449342E9DC2046D8
:10AC10000BF0D0FC80B90A238DF827300525B1E769
:10AC2000012BEED0DDE723B94FF002033B70122178
:10AC3000E8E7022BFBD0D4E7718907900BF0B4F85A
:10AC4000079B7068991C0AF071FA0BF1010B3668CA
:10AC5000C2E7A04696E700BF043C00202DE9F04F74
:10AC60002DED028B14468FB082468B4600250DF1E8
:10AC70002102062120468DF82150FFF764FC06468C
:10AC8000002840F0DA8023681B685A88B3F80080F7
:10AC90000592904502D8B8F1000F16D101238DF826
:10ACA000213000250A269DF82130019306230093C8
:10ACB000CDF808802B46324659465046FFF798FE9D
:10ACC0000FB0BDEC028BBDE8F08F9F8806F054FA00
:10ACD000054650B1024631460720FFF7ADFB60B98B
:10ACE00011238DF821300626DDE7112325688DF824
:10ACF0002130266006242646D5E759465046FEF701
:10AD0000A9FF2368ADF8267008EE103A10238DF8DD
:10AD100024304C4B06901F68B146344697B9C4B1F5
:10AD20002B8A06991A1D914214DB21460DF121034D
:10AD30004A462846FFF71AFD0128044609D0002C90
:10AD4000D9D106E07B89984515D854B9059A9A421D
:10AD500041D22B8A012B72D80A238DF82130052489
:10AD6000C9E79DF82430102B20D17A681378102B76
:10AD700003D0B7F80A903F68D0E709A807920AF015
:10AD8000A1F942F601018842079A0BD8B0F5205F7D
:10AD90000CD310460AF096F9A0F5205080B2012895
:10ADA000E7D803E042F60301884237D02B8A069A9F
:10ADB00004339A42CDDB21460DF121034A46284651
:10ADC000FFF7D4FC01280446B9D17B89059A934248
:10ADD000BFD84FF00009786809A90AF058F950BBAC
:10ADE0000DF1210301930DF12203009310220AAB10
:10ADF00039465046FFF717FD044600287FF47BAF25
:10AE0000BDF8223018EE100A0AAA06210BF0AAFAA1
:10AE10000028B0D1B7F80A904C46ACE7079010462E
:10AE20000AF050F9A0F5205292B2012ABED9079B30
:10AE300098429ED1BAE700249DE7A84633E74FF039
:10AE4000000830E7043C00202DE9F04F13682DED99
:10AE5000028B1E8A97B00025062E08EE101A814636
:10AE600017468DF82D5001D0142E13D10DF12D0A57
:10AE7000524631463846FFF766FB044650BB3968F8
:10AE80000B681D885B8808939D4200D8B5B90123E3
:10AE90008DF82D3000260A249DF82D3001930823CB
:10AEA000009318EE101A0295334622464846FFF7E3
:10AEB0009FFD17B0BDEC028BBDE8F08F0DF1440B88
:10AEC000331F042258460AF01FF9044628B104240F
:10AED0008DF82D4000252E46DEE73E688DF82D00CA
:10AEE000318A386030460BF0F1F9324601210920F1
:10AEF000FFF7A2FA059030B91123059D8DF82D308A
:10AF000006200446C8E718EE101A4846FEF7A2FECF
:10AF1000A046069007942746CDF824A03846089A04
:10AF20005946FFF709FD0746002855D04389AB4233
:10AF3000F4D3099B01930DF12E03009301460CAB52
:10AF400013224846FFF76FFC60B17D89079B73BBF6
:10AF50009DF82D3013B90A238DF82D300028D0D15B
:10AF6000052499E7069BBDF82E20033B9342DEBFE4
:10AF7000069B043BADF82E30BDF82EA0B8F1000FB3
:10AF800001D0D045E2D1328A069B0232524493422C
:10AF900024DB0AF1020189B230460BF00BFB78B9D1
:10AFA000079B7D8911228DF82D20CBB1D04600233F
:10AFB0008DF82D30059B08F1020883F800806BE7BF
:10AFC0007A8920F8022B0CA9BDF82E201EF0D8F9A2
:10AFD0000123D0460793A1E70520B7E7D046B5E7A0
:10AFE00006208EE72DE9F04786B017460DF1170AC7
:10AFF0008046894600265246022138468DF8176061
:10B00000FFF7A1FA044650BB3D682B68298A1E88C9
:10B01000386028460BF05AF92A4621460B20FFF7E4
:10B020000BFA90B911238DF8173006249DF81730CC
:10B0300001930A23009302962B4622464946404636
:10B04000FFF7D6FC06B0BDE8F0872246CDF800A099
:10B050002B4631464046FFF795FC0446E6E7354669
:10B06000E4E72DE9F04F87B017460DF1170A804647
:10B07000894600265246042138468DF81760FFF7AE
:10B0800062FA044660BB3D682B68298A1E88B3F8C3
:10B0900002B0386028460BF019F92A4621460D20E7
:10B0A000FFF7CAF990B911238DF8173006249DF8DF
:10B0B000173001930C23009302962B4622464946F3
:10B0C0004046FFF795FC07B0BDE8F08FCDF800A033
:10B0D0002B465A4631464046FFF754FC0446E6E705
:10B0E0003546E4E72DE9F04F87B000240F461546BA
:10B0F00006468DF81740FEF7ADFD804606F03CF899
:10B10000814698B1024621460F20FFF795F9044683
:10B1100078B10DF1170B2B681B8A012B03D9B9F8F5
:10B120001030434519D30024A24607E0D5F800901B
:10B130002C6011238DF817304FF0060A9DF8173058
:10B1400001930E23009302944B46524639463046F3
:10B15000FFF74EFC07B0BDE8F08F5A4602212846A3
:10B16000FFF7F1F98246A0B92B6818680AF037FE9C
:10B170000221044628680BF0A9F85246CDF800B029
:10B180004B4621463046FFF7FDFB82460028C2D0E1
:10B19000D4E70024D2E72DE9F04F89B00024894696
:10B1A000174680468DF81D40FEF754FD824605F097
:10B1B000E3FF054650B1024621462120FFF73CF946
:10B1C000C0B911238DF81D30044604E011233D68F9
:10B1D0008DF81D303C6006229DF81D300193202320
:10B1E000009302942B4649464046FFF701FC09B004
:10B1F000BDE8F08F214602200AF080FF0DF11D0B03
:10B2000006463B681B8A012B02D92B8A534502D381
:10B210000024224636E05A4602213846FFF793F9C9
:10B22000024670BB3B68059018680AF0D8FD022101
:10B23000044638680BF04AF8059ACDF800B033465A
:10B2400021464046FFF79EFB0246D8B9338AADF847
:10B250001E3002220DF11E0128460AF08CFF024624
:10B2600090B9BDF81E30002BCBD0314628460AF0ED
:10B27000E0FF024640B9BDF81E1030460BF026F83C
:10B28000BFE70024002EA7D0304605920AF060FFE9
:10B29000059AA1E72DE9F04F13682DED028B894641
:10B2A000198A97B00025062908EE100A17468DF86E
:10B2B0001D5001D0142913D10DF11D023846FFF79E
:10B2C00042F90446002840F0DF8039680B681D8889
:10B2D0005B8804939D4200D8B5B901238DF81D30D9
:10B2E00000260A249DF81D3001931023009318EEC8
:10B2F000100A0295334622464946FFF779FB17B0FC
:10B30000BDEC028BBDE8F08F0B8A0DF1300B043BD6
:10B310000422584609F0F8FE08B10423DEE7059040
:10B32000584609F0CFFEA0F5205080B20128059BB9
:10B3300005D9102326468DF81D301C46D2E7494614
:10B3400018EE100A05938DF81D40FEF783FC3E6849
:10B350003C60318A824630460AF0B8FF324601210D
:10B360001120FFF769F8059B804620B911238DF85D
:10B370001D300624B6E7484A037017681C461A4673
:10B3800097B9002A6CD04FF6FF7411AB0093514669
:10B3900023463046FFF7E2F8062808BF112304468B
:10B3A00008BF8DF81D305CE07B899D420ED8049962
:10B3B00099426CD3E2B17868059209F083FEA0F55A
:10B3C000205080B20128059A02D97C893F68D7E7CE
:10B3D00011AB0093514623463046FFF7BFF80446B1
:10B3E00030B106287D8921D111238DF81D3079E7F0
:10B3F0007868594609F04BFE00283FD10DF11D0336
:10B4000001930DF11E030093102208AB39464FF64D
:10B41000FF70FFF708FA044638B9BDF81E2008A9E6
:10B4200011A809F010FE044620B17D89042C08BF44
:10B43000002457E798F80030062B0DD0142B18D0B5
:10B440007BB99DF84430102B0CBF0623142388F8D9
:10B4500000307A891446B9E79DF84430102BF8D0B3
:10B460000024338A022B0BD80A238DF81D300524C3
:10B4700038E79DF84430102BEBD1F1E70022A5E727
:10B48000002C3FF42FAFD1E700252E462AE7002AF3
:10B490007FF47BAFE4E700BF043C00202DE9F043DC
:10B4A000904687B006460F4600250DF1170202218F
:10B4B00040468DF81750FFF746F80446A8BBD8F869
:10B4C00000301B68B3F8009005F056FE0546C8B181
:10B4D000024621461320FEF7AFFFC0B911238DF8B5
:10B4E000173006249DF81730019312230093CDF8EE
:10B4F00008902B46224639463046FFF779FA07B0C6
:10B50000BDE8F083D8F80050C8F80040E6E7D8F866
:10B51000000002210AF0DAFE0DF117034246494607
:10B520003046FFF7F1F90446DCE7A946DAE773B5E0
:10B53000144605460DF1070202212046FFF703F8E5
:10B5400060B9206803681E8802210AF0BFFE0DF171
:10B550000703224631462846FFF7D6F902B070BDF0
:10B560002DE9F047B0B00FA98046164600F0ACFCBC
:10B570000446002840F08B808DF80F000546DDF86A
:10B580004700BDF84B209DF84D3002901AA902A843
:10B59000ADF80C208DF80E3009F0B1FB0446002800
:10B5A0006ED19DF8B25015F0010572D00DF1070271
:10B5B00002213046FEF7C7FF0446002863D13068F9
:10B5C0000368018AB3F800900C2204AB0C390AF02E
:10B5D00057FE6FF00B0130680AF078FED6F800A035
:10B5E000BAF810700537BFB2384619F042FD03466D
:10B5F000D22203F8012B05462146BAF81020504606
:10B600000AF03EFE33682D9A1B8A2B443946C3F854
:10B61000012028460AF0F1FB10220DF1A2010BA82F
:10B620000AF0FCFB2146102207A81DF0D1FE07AB53
:10B630003A4629460BA808F03EFB044600BB102101
:10B6400007A80AF0DAFB04222DA904A81DF08AFE3F
:10B65000F8B9082209A905A81DF084FEC8B940461A
:10B6600007F0E9FC044658B9306802210AF02EFEC2
:10B670000DF10703324649464046FFF745F90446B7
:10B68000284619F0FCFC204630B0BDE8F0870025C4
:10B69000F6E71724F4E710B50446206800B910BD9A
:10B6A00003682360FFF786F8F7E700002DE9F04F05
:10B6B0002DED028B16468BB008EE101A07464FF0A0
:10B6C000000B0DF12702042130468DF827B0FEF75C
:10B6D0003AFF0446002840F09C8033681D68B5F8A6
:10B6E00000904846FFF704F98046B0B901238DF871
:10B6F000273005249DF8273001931623009318EE78
:10B70000101ACDF80890434622463846FFF770F9E4
:10B710000BB0BDEC028BBDE8F08F024621460DF167
:10B7200027033846FEF758FF0446002874D104F07A
:10B7300035FBB5F800B0D6F800A01FFA8BF30693DE
:10B740006B88ADF8143038469BB2079304F0C2FD05
:10B75000804632480BF0A7F80546A0B909238DF8BA
:10B760002730062404F01CFB0023D6F80080336049
:10B77000002CBFD1012140460AF083FED8F80030EA
:10B7800017221A70B6E704604460846005F0F4FC88
:10B79000A86020B92846FFF70DF81123DFE7BDF8B0
:10B7A0001430EB80BAF81030A5F804B0043B9BB21B
:10B7B000042251460AF03DFD044630B12846FEF70A
:10B7C000F9FF09238DF82730CCE7D8F844C00246AA
:10B7D00063461BB19888069981420ED2AAB9C5F872
:10B7E00000C0C8F8445018F063FE00F5EA4030305D
:10B7F000C8F8480004F00AFBB4E703D1D8880799D9
:10B800008842EBD81A461B68E3E713682B60156083
:10B81000E9E7D946D8466DE7D8466BE7483C0020B3
:10B820002DE9F04F154689B081468A460DF1160282
:10B8300001212846FEF787FE0446002840F0838059
:10B840002F683B68398A1E78286038460AF03EFD2A
:10B850003A4621461920FEF7EFFD002876D1112344
:10B8600025468DF8163006249DF8163001931823CE
:10B87000009302953B46224651464846FFF7B8F8EA
:10B8800009B0BDE8F08F069E224606BB069D002D3E
:10B8900035D0AD884FF0000BDDF81880B8F1000FFF
:10B8A00039D12846CDF81CB0FFF722F80DF1170367
:10B8B000014607AA4846FEF78DFF804607980AF022
:10B8C00047FCB8F1000FE1D09DF8174017E0F18870
:10B8D0001AB1B5889088A84203D041B1B588072431
:10B8E0000DE09068D288008A02448A42F7D1B2689B
:10B8F000128A0A44B2F5007F0ADDB5880D24002CB7
:10B900008DF8164018BF092406A8FFF7C4FEABE760
:10B9100032463668B9E7B8F80430AB42C1D1BBF162
:10B92000000F0AD1D8F808B0069BC8F808601B6859
:10B9300006934046FEF73EFFAEE7D8F8081058469B
:10B940000AF01CFEF0E700273D468DE704F026FADA
:10B95000484604F0BFFC436C4464069304F020FAAC
:10B96000002E90D12546CFE7F7B5154606460022B2
:10B9700002212846FEF7E7FD0446A8B92B681B689C
:10B980001F889FB101A93046FEF716FE28680221E4
:10B990000AF09CFC2A6823463946304601F0D7FA63
:10B9A0002C60204603B0F0BD0624FAE70A24F8E72D
:10B9B000082070472DE9F043154687B08046894638
:10B9C000002202212846FEF7BEFD044660B92B681E
:10B9D0001B681F8867B105F0CFFB064660B92E686B
:10B9E0002C60112306241EE000231E461F461AE089
:10B9F0003B463E460A2416E0024621461E20FEF73C
:10BA00001BFD0028EDD005A94046FEF7D5FD2868AE
:10BA100002210AF05BFC01232A683946404601F006
:10BA200096FA2C602346CDE901371D230093224668
:10BA3000334649464046FEF7DBFF07B0BDE8F083DA
:10BA400038B50D4C0D4D216831B90D4C0B4D2168A9
:10BA500051B90C4B198038BD0B68236003B9646081
:10BA600028460AF047FFEEE70B68236003B96460DD
:10BA700028460AF03FFFEAE7043C0020DC3B0020B8
:10BA8000F83B0020003C002037B5FEF78BFD0F4B44
:10BA90001C881CB90024204603B030BD142505FBCA
:10BAA00004F019F0E6FA0A4B186068B1094B0093EC
:10BAB0002A460346214608480AF0B0FE0028E9D08D
:10BAC0000B24FEF76FFDE6E70624FAE70C8300205F
:10BAD000D83B002009A70400DC3B002007B50B4B36
